:100C6500C0F9A4B0999282F88090C6868CC83FFFDF
:10094E004400310000000044002700000000410078
:10095E001F00410025004100260041002B004100F0
:10096E00090041000A0041000B0041000700410050
:10097E000800410024004100390041000C004400F1
:10098E00350000000046000D00000000000046008B
:10099E0013000000000000460019000000000000D7
:1009AE0046000108080808080841002F00440020EE
:1009BE000000000041002C0041002D0041002E00DF
:0809CE0041000000410030006F
:10001E00120C41D2AFE4FF120BD3E4FF120BA87BFC
:10002E00017A00792F750C017F06120A5B90002F62
:10003E00E0640160207B017A007901750C06E4FF13
:10004E00120AFD90002F7401F0FB7A00792FF50C47
:10005E007F06120AFD7B017A007919750C06E4FF02
:10006E00120A5B900009E0702890001FE0702212C7
:10007E00071E900025EFF090001F7401F0900031E4
:10008E00E0FCA3E0FDA3E0FEA3E0FF900027120832
:10009E0089900009E0704790001FE0B40140900085
:1000AE0027E0F8A3E0F9A3E0FAA3E0FB900031E02B
:1000BE00FCA3E0FDA3E0FEA3E0C39BFFEE9AFEEDE2
:1000CE0099FDEC98FCE47B19FAF9F8C31208785004
:1000DE000D12071E900026EFF0E490001FF0900026
:1000EE0026E0FF900025E0FEB50710EF600D9000B2
:1000FE0009E0700704F090002BEEF0900009E0B4D8
:10010E00011312071EEF700D90002BE090000AF005
:10011E00E4900009F090000BE0701090000AE0B43B
:10012E000D09A37401F0E490000AF090000BE06456
:10013E0001600302032690000AE0FFB403047E016F
:10014E0080027E00EFB402047F0180027F00EF4E3A
:10015E00FF90000AE0FEB404047D0180027D00EDF4
:10016E004FFFEEB406047E0180027E00EE4FFF903C
:10017E00000AE0FEB407047D0180027D00ED4FFF12
:10018E00EEB408047E0180027E00EE4FFF90000A5E
:10019E00E0FEB40B047D0180027D00ED4FFFEEB456
:1001AE000C047E0180027E00EE4FFF90000AE0FEFE
:1001BE00B40F047D0180027D00ED4FFFEEB41004FC
:1001CE007E0180027E00EE4F6026900007E0FFC3A6
:1001DE009405501C90000AE0FE740D2FF582E43455
:1001EE0000F583EEF0900007E004F0E490000AF0D2
:1001FE0090000AE0B40514900007E07003F080064A
:10020E00900007E014F0E490000AF0900007E0641C
:10021E000560030202E2900024F0900024E0FF2427
:10022E000DF582E43400F583E0FE74192FF582E4B7
:10023E003400F583E06E600690000C7401F09000BF
:10024E000CE0B4013E900031E0FCA3E0FDA3E0FE23
:10025E00A3E0FF900035120889E4900024F090008E
:10026E0024E0FFC394065014740D2FF582E434007D
:10027E00F583E4F0900024E004F080E2E4900007BF
:10028E00F08042E4900024F0900024E0FFC3940636
:10029E005014740D2FF582E43400F583E4F09000D1
:1002AE0024E004F080E2E4900007F090000B74026A
:1002BE00F0900031E0FCA3E0FDA3E0FEA3E0FF9090
:1002CE000020120889900024E004F0E0C394065048
:1002DE000302022890000CE0B4013D900035E0F8D6
:1002EE00A3E0F9A3E0FAA3E0FB900031E0FCA3E069
:1002FE00FDA3E0FEA3E0C39BFFEE9AFEED99FDEC9D
:10030E0098FCE47B887A13F9F8C31208785009E454
:10031E0090000CF090000BF090000BE06402705D0A
:10032E0090000AE0B4091DA37403F0900031E0FCC4
:10033E00A3E0FDA3E0FEA3E0FF900020120889E4F5
:10034E0090000AF0900020E0F8A3E0F9A3E0FAA3F1
:10035E00E0FB900031E0FCA3E0FDA3E0FEA3E0C3D0
:10036E009BFFEE9AFEED99FDEC98FCE47B887A13E8
:10037E00F9F8C31208785005E490000BF090000BCA
:10038E00E0640360030204E690000AE0FFB4030495
:10039E007E0180027E00EFB402047F0180027F00A6
:1003AE00EF4EFF90000AE0FEB404047D0180027D52
:1003BE0000ED4FFFEEB406047E0180027E00EE4F8C
:1003CE00FF90000AE0FEB407047D0180027D00ED7F
:1003DE004FFFEEB408047E0180027E00EE4FFF90C8
:1003EE00000AE0FEB40B047D0180027D00ED4FFF9C
:1003FE00EEB40C047E0180027E00EE4FFF90000AE8
:10040E00E0FEB40F047D0180027D00ED4FFFEEB4DF
:10041E0010047E0180027E00EE4F6026900008E000
:10042E00FFC39405501C90000AE0FE74132FF58252
:10043E00E43400F583EEF0900008E004F0E4900060
:10044E000AF090000AE0B40514900008E07003F082
:10045E008006900008E014F0E490000AF090000A84
:10046E00E064097073900008E06405706B900039C9
:10047E00F0900039E0FF2413F582E43400F583E0B8
:10048E00FE74192FF582E43400F583EEF0900039F6
:10049E00E004F0E0B406DA7B017A007919750C06F7
:1004AE00E4FF120AFDE4900039F0900039E0FFC33A
:1004BE009406501474132FF582E43400F583E4F09F
:1004CE00900039E004F080E2E4900008F090000B18
:1004DE007402F0E490000AF090000BE0FF700690BA
:1004EE00002CF08036EFB4010DE490002CF0A30444
:1004FE00F0E4A3F08029EFB4030CE490002CF0A3F9
:10050E00F0A304F0801990000CE0B4010990002CC7
:10051E007401F0E48005E490002CF0A3F0A3F090B9
:10052E00002DE05401C4333354C0FF90002CE0542E
:10053E00014FFF90002EE05401FEC433333354803C
:10054E004FFF120BD390000BE0FFB403047E01802B
:10055E00027E00EFB402047F0180027F00EF4E6046
:10056E00089000007401F08005E4900000F0900007
:10057E0000E0FF120BA890000BE07047FB7D0F7F91
:10058E00011209D7E4FB7D0F7F021209D7E4FB7D30
:10059E000F7F031209D7E4FB7D0F7F041209D7E406
:1005AE00FB7D0F7F051209D7E4FB7D0F7F06120935
:1005BE00D7E4FB7D0F7F071209D7E4FB7D0F7F0881
:1005CE001209D790000BE064017075FB7D0E7F0160
:1005DE001209D7E4FB7D0F7F021209D7E490003099
:1005EE00F0900007E0FFC374069FFF900030E0FE1E
:1005FE00C39F5013EE2403FFE4FB7D0F1209D79027
:10060E000030E004F080DAE4900030F0900007E073
:10061E00FE900030E0FDC39E5026C374089DFFEE91
:10062E00C39DFDE49400FC740C2DF58274003CF522
:10063E0083E0FDE4FB1209D7900030E004F080CC9B
:10064E0090000BE064027045FBFD7F011209D7E4B8
:10065E00FB7D0F7F021209D7E4FB7D0F7F0312098A
:10066E00D7E4FB7D0F7F041209D7E4FBFD7F051253
:10067E0009D7E4FB7D0C7F061209D7E4FB7D0B7FC7
:10068E00071209D7E4FB7D0D7F081209D790000BE6
:10069E00E064036003020071FB7D0A7F011209D73B
:1006AE00E4FB7D0F7F021209D7E4900030F090003A
:1006BE0008E0FFC374069FFF900030E0FEC39F501A
:1006CE0013EE2403FFE4FB7D0F1209D7900030E0F8
:1006DE0004F080DAE4900030F0900008E0FE900024
:1006EE0030E0FDC39E4003020071C374089DFFEE0F
:1006FE00C39DFDE49400FC74122DF58274003CF54C
:10070E0083E0FDE4FB1209D7900030E004F080C9CD
:100C4100438E4053890F758BCD758DD4C28FD28E53
:030C5100D2AB2201
:03001B00020AB224
:100AB200C0E0C0F0C083C082C0D075D000C000C00A
:100AC20004C005C006C007900031E0FCA3E0FDA30E
:100AD200E0FEA3E02401FFE43EFEE43DFDE43CFC35
:100AE200900031120889D007D006D005D004D0007A
:0B0AF200D0D0D082D083D0F0D0E03212
:100B3F00E4FCFDFE900031E0F8A3E0F9A3E0FAA396
:100B4F00E02FF511EE3AF510ED39F50FEC38F50E03
:100B5F00900031E0FCA3E0FDA3E0FEA3E0FFAB11AA
:0C0B6F00AA10A90FA80ED312087850E4B9
:010B7B002257
:050C540053A01F7F0109
:0B0C5900E4FEEEC39F5004000E80F785
:010C6400226D
:10071E00E4FEF508C2C4D2C2D2B5D2B4E5B0540FCD
:10072E00D2C4C2C2D2B5D2B4C4F8540FC868FFEE58
:10073E00C454F048FEE5B0540FFDEF4DD2C4D2C202
:10074E00C2B5D2B4C4F8540FC868FFEEC454F04812
:10075E00FEE5B0540FFDEF4DD2C4D2C2D2B5C2B435
:10076E00C4F8540FC868FFEEC454F048FEE5B05408
:10077E000FFDEF4DFF6307FF6306FFEF8EF01208CC
:10078E0095081E00010819000208140004080F0045
:10079E0008080A0010080500200800004007FB00AA
:1007AE008007F6010007F1020007EC040007E708D6
:1007BE000007E2100007DD200007D8400007D380B5
:1007CE000000000823750801804E750802804975E7
:1007DE0008038044750804803F750805803A750843
:1007EE000680357508078030750808802B75080956
:1007FE00802675080A802175080B801C75080C80F0
:10080E001775080D801275080E800D75080F80087B
:0A081E007508108003E4F508AF0828
:0108280022AD
:100BD300AD07120C54EDF4F580120C59E5A0541F27
:0D0BE3004480F5A07F03120C5953A01F227F
:1009D700AC07EC70047F0180027F00ECD3940840E1
:1009E700047E0180027E00EE4FFFEDD3940F40049A
:1009F7007E0180027E00EE4FFFEBD3940140047E20
:100A07000180027E00EE4F704A120C54EC14FF7402
:100A170001A807088002C333D8FCF5807F01120CB8
:100A270059E5A0541F44C0F5A07F03120C5953A0E9
:100A37001FED900C6593F580EB6002C2877F011272
:100A47000C59E5A0541F44E0F5A0120B3F7580FF39
:040A570053A01F2267
:100BA800AD07EDD394015022120C54ED7004F5807A
:100BB80080037580107F01120C59E5A0541F44A0D2
:0B0BC800F5A07F03120C5953A01F2260
:040C0D00D2A07F05ED
:100C1100000000000000000000000000000000AE25
:060C2100071FEE70EB223C
:0F0C7500D2A1120C0DC2A17F05120C11C2A02238
:0C0C8400C2A1120C0DD2A17F05020C11C0
:020B7C00AD07C3
:100B7E00E4FCC2A07F05120C11ED30E704D2A18077
:100B8E0002C2A17F05120C11D2A0ED25E0FD7F055A
:090B9E00120C110CBC08DBC2A012
:010BA700222B
:100BF000E4FC120C0DED25E0FD30A103430501C21C
:0C0C0000A07F05120C110CBC08E8AF0529
:010C0C0022C5
:080C2700120C757FA0120B7C7A
:100C2F00120C0DA2A1E433FDC2A07F05120C11AF6F
:010C3F0005AF
:010C40002291
:10000300C2A0EF24FF92A17F05120C11120C0DC2A6
:08001300A0D2A17F05020C112F
:080AFD008F088B098A0A890B9E
:100B0500E4F50D120C27AF08120B7C120C2FE4F53F
:100B15000DE50DC3950C501AAB09AA0AA90B850D55
:100B250082758300120829FF120B7C120C2F050D0C
:0A0B350080DF120C847F05020B3FE5
:080A5B008F088B098A0A890B40
:100A6300E4F50D120C27AF08120B7C120C2F120C9D
:100A730084120C757FA1120B7C120C2FE4F50DE58B
:100A83000DC3950C5026120BF0AB09AA0AA90B85CE
:100A93000D82758300EF120856E50C14B50D047F23
:0F0AA300018002E4FF120003050D80D3020C84D2
:030000000208C231
:0C08C200787FE4F6D8FD75811102090969
:10082900BB010CE58229F582E5833AF583E0225084
:1008390006E92582F8E622BBFE06E92582F8E222CE
:0D084900E58229F582E5833AF583E49322E8
:10085600F8BB010DE58229F582E5833AF583E8F0D8
:10086600225006E92582C8F622BBFE05E92582C884
:02087600F2226C
:10087800EB9FF5F0EA9E42F0E99D42F0E89C45F0D6
:01088800224D
:0C088900ECF0A3EDF0A3EEF0A3EFF022E2
:10089500D083D082F8E4937012740193700DA3A3F2
:1008A50093F8740193F5828883E473740293B5F029
:0D08B500067403936860E9A3A3A3A380D891
:1008CE0002001EE493A3F8E493A34003F68001F222
:1008DE0008DFF48029E493A3F85407240CC8C3332B
:1008EE00C4540F4420C8834004F456800146F6DFFA
:1008FE00E4800B010204081020408090094EE47E33
:10090E00019360BCA3FF543F30E509541FFEE493EE
:10091E00A360010ECF54C025E060A840B8E493A3B5
:10092E00FAE493A3F8E493A3C8C582C8CAC583CAE0
:10093E00F0A3C8C582C8CAC583CADFE9DEE780BE98
:0109D6000020
:00000001FF
