:1016C900C0F9A4B0999282F8809088C6868E898CD8
:0216D900BFFF51
:100F4E004400390000000041002800410012004119
:100F5E0000000044000B0000000041004100410071
:100F6E0020004100110041001900410030004100F5
:100F7E00580044001B0000000041001A00410013FD
:100F8E000041005100420015000041005A0044008B
:100F9E0035000000004100520041001000410027C2
:100FAE0000410017004400210000000041000A002B
:100FBE0041001F0041002600410025004100291E6E
:100FCE0041005B004100420044005400000000411B
:100FDE0000480041000F004100530044004D000046
:100FEE0000004100180041005900440005000000B7
:100FFE000044000100000000410044004100450093
:10100E004100460041002B004100470041003200E4
:10101E004100140044003D0000000041002D00413D
:10102E000009004100430044004900000000410057
:10103E00340041002A0041002C0041002E004100E6
:0A104E002F00410031004100330083
:10001E001216B61216EDD2AFE4FBFDFF121059E424
:10002E00FF121670900046E0702890002BE07022B0
:10003E001214AF900044EFF09000467401F090005F
:10004E0039E0FCA3E0FDA3E0FEA3E0FF9000011267
:10005E000F11900046E0B4014490002BE0703E90EA
:10006E000001E0F8A3E0F9A3E0FAA3E0FB90003969
:10007E00E0FCA3E0FDA3E0FEA3E0C39BFFEE9AFE2F
:10008E00ED99FDEC98FCE47B19FAF9F8C3120F0018
:10009E00500B1214AF900045EFF0E4A3F090002B3C
:1000AE00E07019900045E0FF900044E0FEB5070CAB
:1000BE00600A900047F090002B7401F090002BE046
:1000CE0064016003020166900047E064047076905C
:1000DE000014E0FB701604F0900039E0FCA3E0FD84
:1000EE00A3E0FEA3E0FFA3120F11806CEBB4013B63
:1000FE0090003DE0F8A3E0F9A3E0FAA3E0FB900046
:10010E0039E0FCA3E0FDA3E0FEA3E0C39BFFEE9A63
:10011E00FEED99FDEC98FCE47BD07A07F9F8C3125A
:10012E000F00500790003274058012900014E0B456
:10013E0001261214AFEF70209000327404F0E49098
:10014E000014F0800F1214AFEF700D900047E09086
:10015E000032F0E490002BF090002DE06403601864
:10016E00900032E0B4011190002DE004F0E0B403F1
:10017E0002E4F0E4900032F090002DE0FB64017098
:10018E0066900032E0B40211900009E004F0E0B491
:10019E000302E4F0E4900032F0900009E064027093
:1001AE0046900032E0B4053FE490001AF090001340
:1001BE00F0900051F0900025F090005BF09000540C
:1001CE00120F1D00000000E4900048F0900052F065
:1001DE00900027F0900021120F1D00000000E49007
:1001EE000017F0900032F0EB64027032900032E0B3
:1001FE00B40312900029E004F0E0B464037463F0D9
:10020E00E4900032F0900032E0B40412900029E045
:10021E0014F0E0B40903740AF0E4900032F0900098
:10022E0005E0F8A3E0F9A3E0FAA3E0FB900039E0C3
:10023E00FCA3E0FDA3E0FEA3E0C39BFFEE9AFEED60
:10024E0099FDEC98FCE47BF47A01F9F8C3120F00E7
:10025E00501712146B900039E0FCA3E0FDA3E0FEF2
:10026E00A3E0FF900005120F11900058E07023904C
:10027E000020E0701D1216A09000207401F0900076
:10028E0039E0FCA3E0FDA3E0FEA3E0FF90000B121B
:10029E000F11900058E07077900020E06401706FAD
:1002AE0090000BE0F8A3E0F9A3E0FAA3E0FB9000C6
:1002BE0039E0FCA3E0FDA3E0FEA3E0C39BFFEE9AB2
:1002CE00FEED99FDEC98FCE47B64FAF9F8C3120F8D
:1002DE0000503C121639900041EFF0E4900020F0EF
:1002EE00900019E0900030F0EFC394795007E4903D
:1002FE000019F08014900041E0C394AE90001950A4
:10030E00057401F080037402F09000117401F090F6
:10031E000058E07058900030E06402705090001960
:10032E00E0704A900011E0B401439000587401F05F
:10033E00900039E0FCA3E0FDA3E0FEA3E0FF9000F7
:10034E001B120F1190001AE004F0900028E09000AC
:10035E0013F0900012E0900051F090002DE090000C
:10036E0043F090002D7403F0E4900011F090001112
:10037E00E07050900058E0B4014990001BE0F8A3E3
:10038E00E0F9A3E0FAA3E0FB900039E0FCA3E0FD66
:10039E00A3E0FEA3E0C39BFFEE9AFEED99FDEC9861
:1003AE00FCE47BB87A0BF9F8C3120F005015E490F9
:1003BE000058F0900053F090001FF0900043E09032
:1003CE00002DF0900058E0B40129900053E0702306
:1003DE0090000FE0701D1216FE90000F7401F09049
:1003EE000039E0FCA3E0FDA3E0FEA3E0FF90004D8A
:1003FE00120F11900058E06401600302051F900077
:10040E0053E0600302051F90000FE06401600302D9
:10041E00051F90004DE0F8A3E0F9A3E0FAA3E0FB7E
:10042E00900039E0FCA3E0FDA3E0FEA3E0C39BFF38
:10043E00EE9AFEED99FDEC98FCE47BEE7A02F9F86B
:10044E00C3120F00400302051F900025E0900042EA
:10045E00F0121179900025EFF0900029E0FEEFD315
:10046E009E40089000187401F08005E4900018F08A
:10047E00900042E0FF900025E0FED39F40089000E0
:10048E00597401F08005E4900059F090005BE0FF94
:10049E00EED39F4008900025E090005BF09000485E
:1004AE00E004F0E024FFFDE434FFFCE4120E38908B
:1004BE000054E0F8A3E0F9A3E0FAA3E0FB120C8DE0
:1004CE00C004C005C006C007900025E0FCE4120E73
:1004DE003DD003D002D001D000120B9CC004C00549
:1004EE00C006C007900048E0FCE4120E3DA804A927
:1004FE0005AA06AB07D007D006D005D004120D967C
:10050E00900054120F119000537401F0E490000FFC
:10051E00F0900058E0B4012990001FE07023900085
:10052E005AE0701D12170B90005A7401F0900039AA
:10053E00E0FCA3E0FDA3E0FEA3E0FF900035120F68
:10054E0011900058E0640160030206B390001FE0B2
:10055E0060030206B390005AE0640160030206B322
:10056E00900035E0F8A3E0F9A3E0FAA3E0FBA3E0E6
:10057E00FCA3E0FDA3E0FEA3E0C39BFFEE9AFEED1D
:10058E0099FDEC98FCE47BE87A03F9F8C3120F00AE
:10059E0040030206B3900052E0900010F01216DBFA
:1005AE00900015EEF0A3EFF0D394D0EE9407400434
:1005BE007F0180027F00900015E0FCA3E0FDC39454
:1005CE00C8EC940050047E0180027E00EE4F60095C
:1005DE0090000A7401F00206A8E490000AF0ED24DF
:1005EE0038FDEC34FFFCE4120E387B587A3979343E
:1005FE00783D120C8DE4FBFA79207841120B9C1297
:10060E000E71900052EFF0900010E0FEEFD39E407E
:10061E00089000267401F08005E4900026F090000A
:10062E0027E0FF900052E0FED39F4005900027EE9A
:10063E00F0900017E004F0E024FFFDE434FFFCE44A
:10064E00120E38900021E0F8A3E0F9A3E0FAA3E03F
:10065E00FB120C8DC004C005C006C007900052E00E
:10066E00FCE4120E3DD003D002D001D000120B9C40
:10067E00C004C005C006C007900017E0FCE4120ECF
:10068E003DA804A905AA06AB07D007D006D005D011
:10069E0004120D96900021120F1190001F7401F09C
:1006AE00E490005AF0900049E0F8A3E0F9A3E0FAD4
:1006BE00A3E0FB900039E0FCA3E0FDA3E0FEA3E085
:1006CE00C39BFFEE9AFEED99FDEC98FCE47B64FA79
:1006DE00F9F8C3120F005023900034E0700404F0B8
:1006EE008005E4900034F0900039E0FCA3E0FDA317
:1006FE00E0FEA3E0FF900049120F1190002DE0FFE5
:10070E00700790002A04F08005E490002AF0EFB400
:10071E00010890002C7401F08005E490002CF0EF9D
:10072E00B4020890002E7401F08005E490002EF0C3
:10073E00900018E0B40106900034E08001E49000CF
:10074E002FF090000AE0B401089000317401F0809F
:10075E0005E4900031F0900026E0600E900059E024
:10076E0060089000337401F08005E4900033F0903F
:10077E00002CE0540125E0FF90002AE054014FFFC9
:10078E0090002EE0540125E025E04FFFA3E0540138
:10079E0033333354F84FFF900031E05401C454F01A
:1007AE004FFF900033E05401FEC43354E04FFF126C
:1007BE00167090002DE014700302084714700302A7
:1007CE000ABA147003020B0E24036003020B8D9001
:1007DE000028E075F00A84FDE4FB7F0112130F90F0
:1007EE000028E075F00A84ADF0E4FB7F0212130FCF
:1007FE00E4FB7D107F0312130F900012E075F00AD8
:10080E0084FDE4FB7F0412130F900012E075F00AD2
:10081E0084ADF0E4FB7F0512130FE4FB7D107F0621
:10082E0012130F900000E075F00A84FDE4FB7F07C1
:10083E0012130F900000020B03900009E0147003D6
:10084E00020937147003020A1024026003020AB26E
:10085E00E4FB7D0B7F0112130FE4FB7D117F02126F
:10086E00130F90001AE07033FB7D117F0312130FEC
:10087E00E4FB7D117F0412130FE4FB7D117F051243
:10088E00130FE4FB7D117F0612130FE4FB7D117F26
:10089E000712130FE4FB7D11020B8590005BE075D0
:1008AE00F00A84FDE4FB7F0312130F90005BE075EA
:1008BE00F00A84ADF0E4FB7F0412130FE4FB7D100D
:1008CE007F0512130F900054E0FCA3E0FDA3E0FEA1
:1008DE00A3E0FF120E71EF75F00A84FDE4FB7F06B4
:1008EE0012130F900054E0FCA3E0FDA3E0FEA3E082
:1008FE00FF120E71EF75F00A84ADF07B017F0712C7
:10090E00130FE4FFFE7D207C41900054E0F8A3E03D
:10091E00F9A3E0FAA3E0FB120C8D120E71EF75F045
:10092E000A84ADF0E4FB020B85E4FB7D0E7F011221
:10093E00130FE4FB7D117F0212130F90001AE0706B
:10094E0033FB7D117F0312130FE4FB7D117F041225
:10095E00130FE4FB7D117F0512130FE4FB7D117F56
:10096E000612130FE4FB7D117F0712130FE4FB7DBC
:10097E0011020A0D900027E075F00A84FDE4FB7F5A
:10098E000312130F900027E075F00A84ADF0E4FB1C
:10099E007F0412130FE4FB7D107F0512130F9000DE
:1009AE0021E0FCA3E0FDA3E0FEA3E0FF120E71EF39
:1009BE0075F00A84FDE4FB7F0612130F900021E010
:1009CE00FCA3E0FDA3E0FEA3E0FF120E71EF75F0B5
:1009DE000A84ADF07B017F0712130FE4FFFE7D202A
:1009EE007C41900021E0F8A3E0F9A3E0FAA3E0FB3C
:1009FE00120C8D120E71EF75F00A84ADF0E4FB024D
:100A0E000B85E4FB7D0D7F0112130F90001AE0752C
:100A1E00F00A84FDE4FB7F0212130F90001AE075BA
:100A2E00F00A84ADF0E4FB7F0312130F90001AE07E
:100A3E007029FB7D117F0412130FE4FB7D117F05DE
:100A4E0012130FE4FB7D117F0612130FE4FB7D11D1
:100A5E007F0712130FE4FB7D118046900013E075A3
:100A6E00F00A84FDE4FB7F0412130F900013E0756F
:100A7E00F00A84ADF0E4FB7F0512130FE4FB7D104A
:100A8E007F0612130F900051E075F00A84FDE4FB0F
:100A9E007F0712130F900051E075F00A84ADF0E459
:100AAE00FB020B85E4900009F0020032E4FB7D0F9F
:100ABE007F0112130FE4FB7D117F0212130FE4FB73
:100ACE007D117F0312130FE4FB7D117F0412130FB0
:100ADE00E4FB7D117F0512130FE4FB7D117F0612DF
:100AEE00130F900029E075F00A84FDE4FB7F0712D6
:100AFE00130F900029E075F00A84ADF0E4FB8077C7
:100B0E00E4FB7D0C7F0112130FE4FB7D117F0212BB
:100B1E00130FE4FB7D117F0312130F900025E07578
:100B2E00F00A84FDE4FB7F0412130F900025E0759C
:100B3E00F00A84ADF0E4FB7F0512130FE4FB7D1089
:100B4E007F0612130F90000AE0B4010FE4FB7D0A3A
:100B5E007F0712130FE4FB7D0A801C900052E07594
:100B6E00F00A84FDE4FB7F0712130F900052E0752C
:100B7E00F00A84ADF0E4FB7F0812130F020032E49A
:070B8E0090002DF00200327F
:10000300D2A1D2A07F037E0012165DC2A17F037E20
:070013000012165DC2A022DD
:10168900C2A0C2A17F037E0012165DD2A07F037E95
:071699000012165DD2A12230
:021425008F092D
:10142700E4F50AC2A0C2A17F02FE12165DE4F50A26
:10143700C37407950AFFE509A807088002C313D8F4
:10144700FC1392A17F027E0012165DD2A07F037E5D
:101457000012165DC2A0050AE50AC3940840D1C26E
:03146700A0D2A16F
:01146A00225F
:10153600E4F509F50AC2A0D2A17F03FE12165DE406
:10154600F509E50A25E0F50AD2A07F037E0012160A
:101556005D30A103430A01C2A07F027E0012165D20
:0F1566000509E509C3940840D9C2A0D2A1AF0A74
:011575002253
:1015E9008F09C2A0C2A17F017E0012165DE5092400
:1015F900FFB392A17F017E0012165DD2A07F027E09
:091609000012165DC2A0D2A1225C
:10161200E4FFC2A0C2A10FFE12165DD2A07F017E1E
:101622000012165DA2A1E43370047E0180027E00E6
:06163200AF06C2A0D2A128
:01163800228F
:1015B200E4F50FD2947F0AFE12165DC2947F087E74
:1015C2000212165DD2947F397E0012165DA294E457
:1015D20033F50F70047F0180027F008F0F7FC87E7A
:0615E2000012165DAF0FC0
:0115E80022E0
:02138D008F0FC0
:10138F00E4F510D2947F0AFE12165DE4F510AF104B
:10139F00E50FA807088002C313D8FC30E00FC294F2
:1013AF007F067E0012165DD2947F37800DC2947F28
:1013BF003C7E0012165DD2947F057E0012165D05ED
:0A13CF0010E510C3940840C6D29444
:0113D90022F1
:1014F300E4F50FF510D2947F0AFE12165DE4F50FA2
:10150300E510C313F510C2947F027E0012165DD25C
:10151300947F087E0012165D3094034310807F375A
:101523007E0012165D050FE50FC3940840D2D294D6
:02153300AF10F7
:011535002293
:041203008F0B8D0CB4
:10120700E4F50DC293C2A3C297D2937F0AFE1216CA
:101217005DE4F50DAF0DE50BA807088002C313D8F1
:10122700FC1392A37F057E0012165DD2977F057E81
:101237000012165DC2977F017E0012165D050DE54F
:101247000DC3940840CEE4F50DAF0DE50CA80708D3
:101257008002C313D8FC1392A37F057E0012165D8C
:10126700D2977F057E0012165DC2977F017E00121E
:10127700165D050DE50DC3940840CEC293C2A3C207
:0112870097CF
:011288002243
:021289008F08CC
:10128B00E4F509F50AC293C2A3C297D2937F0AFE73
:10129B0012165DE4F509AF09E508A807088002C33B
:1012AB0013D8FC1392A37F057E0012165DC2977FA5
:1012BB00057E0012165DD2977F017E0012165D052A
:1012CB0009E509C3940840CED2A37F017E00121614
:1012DB005DE4F509E50AC313F50AD2977F037E0097
:1012EB0012165DC2977F017E0012165D30A3034379
:1012FB000A800509E509C3940840D9C293C2A3C269
:03130B0097AF0A8F
:01130E0022BC
:1016B600438E4053890F758BCD758DD4C28FD28ED4
:0316C600D2AB2282
:1016ED00438E805389F0438905C28DE4F58AF58CCC
:0116FD0022CA
:03001B000213DAF3
:1013DA00C0E0C0F0C083C082C0D075D000C000C0D9
:1013EA0004C005C006C007900039E0FCA3E0FDA3D5
:1013FA00E0FEA3E02401FFE43EFEE43DFDE43CFC04
:10140A00900039120F11D007D006D005D004D000B1
:0B141A00D0D0D082D083D0F0D0E032E0
:10157600E4FCFD900039E0F8A3E0F9A3E0FAA3E06B
:101586002FF50BEA3EF50AED39F509EC38F508902A
:101596000039E0FCA3E0FDA3E0FEA3E0FFAB0BAA4D
:0B15A6000AA909A808C3120F0050E4B6
:0115B1002217
:06165700F5807F017E001A
:10165D00E4FDFCC3ED9FEC9E5008000DBD00010C98
:02166D0080F10A
:01166F002258
:1016A0001200037F901214251216127F4112142586
:0616B00012161202168959
:10163900E4F5081200037F911214251216121215EF
:0D164900368F087F011215E9121689AF08CF
:011656002271
:0D16FE001215B27FCC12138D7F4402138DA4
:10117900E4F508FFF509F50AF50EF50DF50CF50B83
:101189001215B27FCC12138D7FBE12138D1214F378
:101199008F081214F3EFF509E508F50AE50930E7B8
:1011A90011E50AF4FFE509F4FEEF2401F50AE43E2E
:1011B900F5097C00E50A540FFDE4120E38E4FBFA48
:1011C9007980783D120C8DC004C005C006C007E5C2
:1011D90009C4F854F0C8E50AC4540F487C00FDE47A
:1011E900120E38D003D002D001D000120B9C8F0E02
:0911F9008E0D8D0C8C0B120E7191
:0112020022C9
:061059008F088D098B0ACF
:10105F00E509D3943B40047F0180027F00E508D36C
:10106F00941740047E0180027E00EE4FFFE50AD305
:10107F00943B40047E0180027E00EE4F705FE4FDE2
:10108F007F8E121203E50875F00A84C454F0FFE551
:10109F000875F00A84E5F0540F4FFD7F8412120398
:1010AF00E50975F00A84C454F0FFE50975F00A8468
:1010BF00E5F0540F4FFD7F82121203E50A75F00A17
:1010CF0084C454F0FFE50A75F00A84E5F0540F4F1D
:0D10DF00FD7F801212037D807F8E121203B0
:0110EC0022E1
:10146B00E47F85121289EFC4540F75F00AA4FEEFC6
:10147B00540F2E900028F07F83121289EFC4540F63
:10148B0075F00AA4FEEF540F2E900012F07F81121C
:10149B001289EFC4540F75F00AA4FEEF540F2E906F
:0314AB000000F04E
:0114AE00221B
:0A170B00E4F58AF58CC28DD28C2221
:1016DB00C28CAF8CEFFEAD8AEDFFC28DE4F58AF5BF
:0116EB008C72
:0116EC0022DB
:1016700053A01FEFF4121657E5A0541F4480F5A0A5
:091680007F0312165D53A01F2226
:10130F00AA05EF70047E0180027E00EFD39408409F
:10131F00047D0180027D00ED4EFEEAD3941140045E
:10132F007D0180027D00ED4EFEEBD3940140047DE4
:10133F000180027D00ED4E704453A01FEF14FF7427
:10134F0001A807088002C333D8FC121657E5A05432
:10135F001F44C0F5A07F0312165D53A01FEA90161D
:10136F00C993F580EB6002C287121659E5A0541F8E
:0E137F0044E0F5A01215767580FF53A01F22E2
:1014AF00C2C4D2C2E5B0540C1313543FD2C4C2C24B
:1014BF0025E025E044F0FFE5B0540C1313543F4FE3
:1014CF00F414601714601024FE600824FC70107E62
:1014DF0001800E7E02800A7E0380067E048002E475
:0314EF00FEAF0647
:0114F20022D7
:100B9500020EDDE86480F8E933E83360110460F0A3
:100BA500ED33EC337009E8FCE9FDEAFEEBFF2204C6
:100BB50060DED3EB9FEA9EE99DE8C2E78CF0C2F7C1
:100BC50095F0400CE8CCF8E9CDF9EACEFAEBCFFB8D
:100BD500120EA885D0F05804700320D5B3E8047030
:100BE500075002B2D5020EE792D5EC0460F7E4CCCB
:100BF500C0E0C398F8603B94186008400DD0E0FB56
:100C0500020EBFE4FBFAC9FC8028E830E406E4C91B
:100C1500FBE4CAFCE830E305E4C9CACBFCE85407A9
:100C25006010F8C3E913F9EA13FAEB13FBEC13FCB4
:100C3500D8F130F52FC3E49CFCEF9BFFEE9AFEED57
:100C450099FDD0E0FBEF4E4D4C701222DB03020EF6
:100C5500E4EC2CFCEF33FFEE33FEED33FDED30E736
:100C6500EB020EBFEF2BFFEE3AFEED39FDD0E0FBB8
:100C750050130BBB0003020EE7ED13FDEE13FEEF61
:080C850013FFEC13FC020EBF8B
:100C8D00EC4D6011E8497017ED33EC3304600DE461
:100C9D00FCFFFEFD22E933E8330470F8020EDD128D
:100CAD000EA858046009E4CC24815006285009028E
:100CBD000EE7284003020EE4C0E0EB4A7044B98011
:100CCD0006D0E0FB020ED3EF4E701CBD8008EBFF8B
:100CDD00EAFEE9FD80EBE98DF0A4FEE5F0020D766C
:100CED00E9CDF9EAFEEBFFEF89F0A4FCE5F0CE8942
:100CFD00F0A42EFFE435F0CD89F0A42DFEE435F0FF
:100D0D008067EF4E7005BD80D780C3EF8BF0A4AC2C
:100D1D00F0EE8BF0A42CFCE435F0F8EF8AF0A42C67
:100D2D00E5F038FCE433CB8DF0A42CFCE5F03BF87A
:100D3D00EE8AF0A42CFCE5F038F8E433CF89F0A46A
:100D4D002CFCE5F038CF3400CE89F0A42FFFE5F070
:100D5D003EFEE433C98DF0A42EFEE5F039CD8AF0C8
:100D6D00A42FFFE5F03EFEE43DFD33D0E0FB500740
:100D7D000BBB000F020EE7EC2CFCEF33FFEE33FE46
:060D8D00ED33FD020EBF74
:100D9300020EE7EC5D046005E859047003020EDD02
:100DA300120EA8580460F6EC4860F2EC7004FDFEE5
:100DB300FF22C860DB2481C85009C3986002500633
:100DC300020EE49850CAF582E9294B4A7005AB82BA
:100DD300020ED375F0007C1A7880C3EF9BEE9AED78
:100DE30099400DC3EF9BFFEE9AFEED99FDE842F0AB
:100DF300DC23ACF0D0E0FFD0E0FED0E0FDAB8220FE
:100E0300E7101BEB60BAEC2CFCEF33FFEE33FEED87
:100E130033FD020EBFE803F830E705C0F075F000BC
:100E2300EF2FFFEE33FEED33FD40B830E7C280AA6B
:100E330075F020800E75F010800575F0087D007E3A
:100E4300007F003392D530D503120EF2EC334010FD
:100E5300EF33FFEE33FEED33FDEC33FCD5F0ED2243
:0E0E6300E5F0247EA2D513CC92E7CDCEFF227F
:100E7100EDD2E7CD33EC3392D524814006E4FFFE79
:100E8100FDFC22FCE4CFCECDCC24E0501174FF80D8
:100E9100EDC3CC13CCCD13CDCE13CECF13CF047075
:070EA100F030D5DE020EF275
:100EA800E9D2E7C933E833F892D5EDD2E7CD33EC90
:070EB80033FC5002B2D52209
:100EBF00EC30E7100FBF000C0EBE00080DBD000494
:100ECF000BEB6014A2D5EB13FCED92E7FD2274FF40
:100EDF00FCFDFEFF22E480F8A2D574FF13FC7D8099
:030EEF00E480EFAD
:030000000210EDFE
:0C10ED00787FE4F6D8FD75811002113404
:0E0EF200C3E49FFFE49EFEE49DFDE49CFC2211
:100F0000EB9FF5F0EA9E42F0E99D42F0E89C45F047
:010F100022BE
:0C0F1100ECF0A3EDF0A3EEF0A3EFF02253
:100F1D00A8828583F0D083D082120F34120F341241
:100F2D000F34120F34E473E493A3C583C5F0C58366
:100F3D00C8C582C8F0A3C583C5F0C583C8C582C81E
:010F4D002281
:1010F90002001EE493A3F8E493A34003F68001F2EF
:1011090008DFF48029E493A3F85407240CC8C333F7
:10111900C4540F4420C8834004F456800146F6DFC6
:10112900E4800B0102040810204080900F4EE47EF9
:10113900019360BCA3FF543F30E509541FFEE493BB
:10114900A360010ECF54C025E060A840B8E493A382
:10115900FAE493A3F8E493A3C8C582C8CAC583CAAD
:10116900F0A3C8C582C8CAC583CADFE9DEE780BE65
:011058000097
:00000001FF
