:1006BC00262A48656C6C6F20576F726C64212A2651
:1006CC00007B5B283D3C4D43555F20203E3D295D22
:1006DC007D0054696D653A002D0053746570686532
:1006EC006E20466C616E6B65720057697368207979
:1006FC006F752062657374212121002A4861707026
:10070C0079206E657720796561722A0057656C6374
:10071C006F6D6520746F200048656C6C6F2C004900
:10072C0020616D2E2E2E004920616D20596F75743D
:10073C00682E405354430050434C4B3A0020202029
:10074C0020202020202020202020202020002020BD
:10075C0020004F003C3C3C54696D6520697320556A
:05076C00503E3E3E007E
:10093C00044900000000044D0000000004580000B1
:10094C000000045C000000000145000112000108D9
:10095C0000010A000152000147000151000256003B
:10096C0000060C0000000000000146000109000117
:10097C0044000143000153AA015401015500010B2D
:10098C0000011300014800202F1406000600060089
:10099C000600060006000600070003070003070711
:1009AC00000200070006000600060006000600060E
:0909BC0000010306050407000315
:10000E00120C44D2AF120BE87BFF7A0679BC7D014D
:10001E007F011209D07A0679CD1209CA7B057D0AB5
:10002E007F02120A4D7B017D0B7F02120A4D7F016A
:10003E001208117F0A7E00120B6B7F021208117FCD
:10004E000A7E00120B6B7F031208117F0A7E0012CC
:10005E000B6B7F041208117F0A7E00120B6B7F055B
:10006E001208117F0A7E00120B6B7F061208117F99
:10007E000A7E00120B6B7F071208117F0A7E001298
:10008E000B6B7F01120C5A1209C67D08120AAB7D4A
:10009E000B120AAB7BFF7A0679E47D107F02120900
:1000AE00D0C3E54C9550FFE54B954FFEE54A954E76
:1000BE00FDE549954DFCE47BE87A03F9F8C3120699
:1000CE00AB5057E54575F00A84FB7D067F02120A98
:1000DE004DE5457D07120A45E51275F00A84FB7D54
:1000EE00097F02120A4DE5127D0A120A45E50875CE
:1000FE00F00A84FB7D0C7F02120A4DE50875F00AAA
:10010E0084ABF07D0D7F02120A4DAF4CAE4BAD4A63
:10011E00AC498F508E4F8D4E8C4DC3E54C955BFF89
:10012E00E54B955AFEE54A9559FDE5499558FCE48F
:10013E007B0AFAF9F8C31206AB40030201F2E5445A
:10014E0014601614602814603D1460522404600379
:10015E000201E20543AF438028E5535480C41313D4
:10016E00135401FFE55325E04FF553FF8013E5547B
:10017E005480C41313135401FFE55425E04FF55476
:10018E00FF120003804EE555C313309109F5554318
:10019E005580AF558003F555FF12000380367FFF63
:1001AE00120003C3740A950BFFE49400FE120B6B4E
:1001BE00E4FF120003AF0B7E00120B6BE51370040D
:1001CE00050B8002150BE50BB40A03751301E50B45
:1001DE007002F513AF4CAE4BAD4AAC498F5B8E5AE5
:1001EE008D598C58C3E54C955FFFE54B955EFEE54A
:1001FE004A955DFDE549955CFCE47BE87A03F9F8E8
:10020E00C31206AB400302033CE509B407004003EA
:10021E0002033C900228F828287302023D02024590
:10022E0002024D0202550202840202AD0202BD7BA1
:10023E00FF7A0679E6806E7BFF7A0679F680667B1A
:10024E00FF7A077907805E7BFF7A0779187D017F39
:10025E00011209D07B027D0C7F01120A4DE4FB7D59
:10026E000D7F01120A4D7B027D0E7F01120A4D7B1E
:10027E00067D0F0203377BFF7A0779247D017F010C
:10028E001209D07B027D077F01120A4DE4FB7D0827
:10029E007F01120A4D7BFF7A07792B7D0A80087B3E
:1002AE00FF7A0779337D017F011209D002033C7B6F
:1002BE00FF7A0779437D017F011209D07B2D7D08DE
:1002CE007F01120AAF7B2D7D0B7F01120AAF7B25BA
:1002DE007D0E7F01120AAFE50A75F00A84FB7D06DA
:1002EE007F01120A4DE50A75F00A84ABF07D077F97
:1002FE0001120A4DE55275F00A84FB7D097F011249
:10030E000A4DE55275F00A84ABF07D0A7F01120AA0
:10031E004DE54775F00A84FB7D0C7F01120A4DE511
:10032E004775F00A84ABF07D0D7F01120A4D120B5A
:10033E000A8F48E548B4030D0544E544B40503E4CB
:10034E00F544E4F548E5486401600302042FE545F1
:10035E0075F00A84F50CE54575F00A8485F00DE517
:10036E001275F00A84F50EE51275F00A8485F00F09
:10037E00E50875F00A84F510E50875F00A8485F035
:10038E0011E4020428120B0A8F48E548B40423E551
:10039E000C75F00AA4250DF545E50E75F00AA42599
:1003AE000FF512E51075F00AA42511F508E4F548CD
:1003BE00806FE548B4010A0546E546B40603E4F548
:1003CE0046E548B40211740C2546F806740C254611
:1003DE00F8E6B40A02E4F6AB0C7D067F02120A4D73
:1003EE00AB0D7D077F02120A4DAB0E7D097F021207
:1003FE000A4DAB0F7D0A7F02120A4DAB107D0C7FAA
:10040E0002120A4DAB117D0D7F02120A4DAF4674DA
:10041E0080A807088002C313D8FCFF120003020352
:10042E0093E548B4021A7BFF7A0779497D017F0173
:10043E001209D00509E509B40703E4F509E4F54806
:10044E00E5486404600302056E7BFF7A0779431268
:10045E0009CCE50A75F00A84F50CE50A75F00A84F4
:10046E0085F00DE55275F00A84F50EE55275F00A29
:10047E008485F00FE54775F00A84F510E54775F0B1
:10048E000A8485F011E4020567120B0A8F48E548CD
:10049E0064047027E50C75F00AA4250DF50AE50E27
:1004AE0075F00AA4250FF552E51075F00AA4251172
:1004BE00F5471209C6E4F54802056EE548B4010A8F
:1004CE000546E546B40603E4F546E548B402117464
:1004DE000C2546F806740C2546F8E6B40A02E4F636
:1004EE00E54864037030E55170047F0180027F009F
:1004FE008F517BFF7A07795A7D0E7F021209D0E564
:10050E00517BFF60067A07795E80047A0679E47D76
:10051E00107F021209D0AB0C7D067F02120A4DAB82
:10052E000D7D077F02120A4DAB0E7D097F02120A66
:10053E004DAB0F7D0A7F02120A4DAB107D0C7F0270
:10054E00120A4DAB117D0D7F02120A4DAF4674801B
:10055E00A807088002C313D8FCFF120003020497F9
:10056E00E545B50A047F0180027F00E5515FFFE596
:10057E0012B552047E0180027E00EE5FFFE508B5E3
:10058E0047047E0180027E00EE5F70030200AF7BA7
:10059E00FF7A0779607D017F011209D0120C0A02E1
:0205AE0000AF9C
:100C4400438E7F5389F0438901758A66758CFCC293
:060C54008DD28CD2A92212
:03000B0002077178
:10077100C0E0C0F0C083C082C0D075D000C000C04E
:1007810001C002C003C004C005C006C007AF4CAE23
:100791004BAD4AAC49EF2401F54CE43EF54BE43D49
:1007A100F54AE43CF549758A66758CFCE47BE87A88
:1007B10003F9F8AF4CAE4BAD4AAC49120619AC0087
:1007C100AD01AE02AF03E4FBFAF9F8C31206AB7058
:1007D100020508E508C3943C40057508000512E5CB
:1007E10012C3943C40057512000545E545C39418B4
:1007F1004003754500D007D006D005D004D003D002
:1008010002D001D000D0D0D082D083D0F0D0E0325D
:0B0B6000EE2480FF120C5A7F037E0081
:100B6B00EF254CF567EE354BF566E4354AF565E454
:100B7B003549F564AF4CAE4BAD4AAC49AB67AA6691
:0A0B8B00A965A864D31206AB50EA76
:010B9500223D
:100B96007F03120BAEC286120BAE8BA07F05120B23
:080BA600AED285120BAEC28530
:100BAE00E4FDFCC3ED9FEC9E50070DBD00010C80D3
:010BBE00F244
:010BBF002213
:100C5A00AB07C2857F057E00120BAEC287120B96C8
:050C6A00C286C28722D2
:100C6F00AB07C2857F057E00120BAED287120B96A3
:050C7F00C286C28722BD
:100BE8007F327E00120B6B7F38120B647F0C120B66
:100BF800647F06120B647F01120C5A7F037E000289
:020C08000B6B74
:040AAB007B2D7F021E
:020AAF008B605A
:100AB100E4FEEFD3940240047C0180027C00EFC38A
:100AC100940150047B0180027B00EB4CFCEDC3944C
:100AD1000150047B0180027B00EB4CFCEDD39410B0
:100AE10040047B0180027B00EB4C701CBF0103EDD5
:100AF10014FEBF0204ED243FFE120B60AF60120C26
:080B01006F7F017E00120B6BF7
:010B090022C9
:0A09C6007A0679DE7BFF7D017F02D7
:0609D0008B608A61896260
:1009D600E4FEF563EFD3940240047C0180027C00C0
:1009E600EFC3940150047B0180027B00EB4CFCEDCD
:1009F600C3940150047B0180027B00EB4CFCEDD3D9
:100A0600941040047B0180027B00EB4C7030BF01E8
:100A160003ED14FEBF0204ED243FFE120B60AB6033
:100A2600AA61A9628563827583001205B0FF600E14
:0E0A3600120C6F7F017E00120B6B056380E0D7
:010A4400228F
:080A450075F00A84ABF07F029A
:020A4D008B60BC
:100A4F00E4FEEFD3940240047C0180027C00EFC3EC
:100A5F00940150047B0180027B00EB4CFCEDC394AE
:100A6F000150047B0180027B00EB4CFCEDD3941012
:100A7F0040047B0180027B00EB4C701FBF0103ED34
:100A8F0014FEBF0204ED243FFE120B60E56024301C
:0B0A9F00FF120C6F7F017E00120B6B3A
:010AAA002229
:100BC000D2B2D2B3D2B4D2B57F017E00120BAE2026
:100BD000B5012220B4037F022220B3037F03222029
:080BE000B2037F04227F002212
:100B0A00E4F560FFF561120BC08F607F057E00126D
:100B1A000B6B120BC0D2B7E5606F7037E5607002DD
:100B2A00FF22856061120BC08F607F0A7E00120B64
:100B3A006B120BC0E560B507047E0180027E00E5FA
:100B4A006070047D0180027D00EE5D60D8120C2A7F
:050B5A00AF61227F00E5
:010B5F002273
:05000300EFF4F590226E
:100C2A00E4F562F562B2B67F057E00120B6BC2B6BE
:090C3A000562E562C3940A40EC76
:010C4300228E
:10081100E4FBEF14B4070040030208AF90082B7506
:10082100F003A4C58325F0C5837302084002085074
:100831000208600208700208800208900208A0E421
:10084100FBB2B67F327E00120BAE0BBB43F322E448
:10085100FBB2B67F2A7E00120BAE0BBB32F322E451
:10086100FBB2B67F257E00120BAE0BBB24F322E454
:10087100FBB2B67F1F7E00120BAE0BBB2DF322E441
:10088100FBB2B67F187E00120BAE0BBB31F322E434
:10089100FBB2B67F137E00120BAE0BBB32F322E428
:0E08A100FBB2B67F0D7E00120BAE0BBB37F321
:0108AF002226
:100C0A00E4F560F56074142560F8E6FF1208117FB8
:0F0C1A003C7E00120B6B0560E560C3942F40E633
:010C290022A8
:030000000208B043
:0C08B000787FE4F6D8FD7581670208F738
:1005B000BB010CE58229F582E5833AF583E0225000
:1005C00006E92582F8E622BBFE06E92582F8E2224A
:0D05D000E58229F582E5833AF583E4932264
:1005DD0075F008758200EF2FFFEE33FECD33CDCCD5
:1005ED0033CCC58233C5829BED9AEC99E582984058
:1005FD000CF582EE9BFEED9AFDEC99FC0FD5F0D635
:10060D00E4CEFBE4CDFAE4CCF9A88222B800C1B95E
:10061D000059BA002DEC8BF084CFCECDFCE5F0CB9C
:10062D00F97818EF2FFFEE33FEED33FDEC33FCEBD5
:10063D0033FB10D703994004EB99FB0FD8E5E4F990
:10064D00FA227818EF2FFFEE33FEED33FDEC33FC7D
:10065D00C933C910D7059BE99A4007EC9BFCE99A71
:10066D00F90FD8E0E4C9FAE4CCFB2275F010EF2FB6
:10067D00FFEE33FEED33FDCC33CCC833C810D707B6
:10068D009BEC9AE899400AED9BFDEC9AFCE899F8F1
:0E069D000FD5F0DAE4CDFBE4CCFAE4C8F92284
:1006AB00EB9FF5F0EA9E42F0E99D42F0E89C45F0A5
:0106BB00221C
:1008BC0002000EE493A3F8E493A34003F68001F244
:1008CC0008DFF48029E493A3F85407240CC8C3333D
:1008DC00C4540F4420C8834004F456800146F6DF0C
:1008EC00E4800B010204081020408090093CE47E57
:1008FC00019360BCA3FF543F30E509541FFEE49301
:10090C00A360010ECF54C025E060A840B8E493A3C7
:10091C00FAE493A3F8E493A3C8C582C8CAC583CAF2
:10092C00F0A3C8C582C8CAC583CADFE9DEE780BEAA
:0109C5000031
:00000001FF
