:10136E00D2A1D2A07F037E00121354C2A17F037EAE
:07137E0000121354C2A0226B
:10138500C2A0C2A17F037E00121354D2A07F037EA8
:0713950000121354D2A12243
:021183008F0AD1
:10118500E4F50BC2A0C2A17F02FE121354E4F50BD5
:10119500C37407950BFFE50AA807088002C313D897
:1011A500FC1392A17F027E00121354D2A07F037E0E
:1011B50000121354C2A0050BE50BC3940840D1C21D
:0311C500A0D2A114
:0111C8002204
:10120C00E4F50AF50BC2A0D2A17F03FE121354E43D
:10121C00F50AE50B25E0F50BD2A07F037E00121337
:10122C005430A103430B01C2A07F027E0012135461
:0F123C00050AE50AC3940840D9C2A0D2A1AF0B9E
:01124B002280
:1012BF008F0AC2A0C2A17F017E00121354E50A2437
:1012CF00FFB392A17F017E00121354D2A07F027E42
:0912DF0000121354C2A0D2A12296
:1012E800E4FFC2A0C2A10FFE121354D2A07F017E58
:1012F80000121354A2A1E43370047E0180027E0020
:06130800AF06C2A0D2A155
:01130E0022BC
:10128800E4F50FD2947F0AFE121354C2947F087EAD
:1012980002121354D2947F397E00121354A294E49C
:1012A80033F50F70047F0180027F008F0F7FC87EA7
:0612B80000121354AF0FF9
:0112BE00220D
:02109F008F0FB1
:1010A100E4F510D2947F0AFE121354E4F510AF1048
:1010B100E50FA807088002C313D8FC30E00FC294E3
:1010C1007F067E00121354D2947F37800DC2947F25
:1010D1003C7E00121354D2947F057E0012135405F6
:0A10E10010E510C3940840C6D29435
:0110EB0022E2
:1011C900E4F50FF510D2947F0AFE121354E4F50FDB
:1011D900E510C313F510C2947F027E00121354D296
:1011E900947F087E001213543094034310807F3794
:1011F9007E00121354050FE50FC3940840D2D29410
:02120900AF1024
:01120B0022C0
:0D13E5001212887FCC12109F7F4402109FCF
:100E2900E4F508FFF509F50AF50EF50DF50CF50BD6
:100E39001212887FCC12109F7FBE12109F1211C907
:100E49008F081211C9EFF509E508F50AE50930E738
:100E590011E50AF4FFE509F4FEEF2401F50AE43E81
:100E6900F5097C00E50A540FFDE4120BAEE4FBFA28
:100E79007980783D120A2AC004C005C006C007E57A
:100E890009540FFEE50A54F0FFEEC4F854F0C8689F
:100E9900FCEFC4540F48FDE4120BAED003D002D0CE
:0E0EA90001D0001209398F0E8E0D8D0C8C0BAE
:010EB7002218
:10139C0012136E7F901211831212E87F4112118387
:0613AC001212E802138595
:10103700E4F508F50912136E7F911211831212E875
:1010470012120C8F097F011212BF121385E509B422
:1010570099047F0180027F00E509D3949940047EBB
:101067000180027E00EE4F60057508018027E509C3
:10107700C39499500BE509946540057508028015DE
:10108700E509D39419400BE50994665005750803E3
:071097008003750804AF0897
:01109E00222F
:1013B200438E805389F0758ACD758CD4C28DD28CC0
:0313C200D2A9228B
:1013C500438E4053890F438910C28FE4F58BF58D09
:0113D50022F5
:03000B00021138A7
:10113800C0E0C0F0C083C082C0D075D000C000C07D
:1011480004C005C006C007900027E0FCA3E0FDA38B
:10115800E0FEA3E02401FFE43EFEE43DFDE43CFCA8
:10116800900027120D28D007D006D005D004D00053
:0B117800D0D0D082D083D0F0D0E03285
:10124C00E4FCFD900027E0F8A3E0F9A3E0FAA3E0AA
:10125C002FF50BEA3EF50AED39F509EC38F5089057
:10126C000027E0FCA3E0FDA3E0FEA3E0FFAB0BAA8C
:0B127C000AA909A808D3120D1750E4BE
:011287002244
:041350007F017E009B
:10135400E4FDFCC3ED9FEC9E500F00000000000074
:0913640000000DBD00010C80EA3F
:01136D00225D
:10133000AB0753A01F121350EBF4F580121354E5C2
:10134000A0541F4480F5A07F0312135453A01F2202
:100F4400AA05EF70047E0180027E00EFD39408406E
:100F5400047D0180027D00ED4EFEEAD3940E400430
:100F64007D0180027D00ED4EFEEBD3940140047DB3
:100F74000180027D00ED4E704653A01FEF14FF74F4
:100F840001A807088002C333D8FCF580121350E58A
:100F9400A0541F44C0F5A07F0312135453A01FEAAA
:100FA4009013D693F580EB6002C287121350E5A02C
:100FB400541F44E0F5A012124C7580FF53A01F2269
:10130F00EF7003FB80027B1053A01F8B80121350D2
:10131F00E5A0541F44A0F5A07F0312135453A01F40
:01132F00229B
:1010EC00C2C4D2C2E5B0540C1313543FFFD2C4C2D5
:1010FC00C2E5B0540C1313543FFDEF25E025E04D31
:10110C0044F0F4146019146012146017146008246D
:10111C00FC70147E0180127E02800E7E03800A7E9B
:0B112C000480067E058002E4FEAF0692
:011137002295
:100FC400E4FBF50BF50AF509F508F58DF58BD290E0
:100FD4007F0D7E00121354C2901213540BBB03EE08
:100FE400D28E30911CAF8DEFFEAD8B7C00E42DFFD3
:100FF400EC3EFEE4FD7BA87ADEF9F8D3120D015035
:10100400E1C28EC28FAF8DEFAD8BFCE4120BAE7BD1
:10101400347A8079B7783A120A2A8F0B8E0A8D09AE
:101024008C08E4F58DF58BAF0BAE0AAD09AC081254
:021034000BE7C8
:011036002297
:0F13D600C0F9A4B0999282F88090C68EC7C8FF64
:100D6500440027000000004400400000000041004E
:100D75000F0044001A0000000044003441F0000058
:100D85004100190044000A0000000041001800411C
:100D95000017004400050000000041002400410048
:100DA50045004100001E410023004100470041006D
:100DB5002C004100160041001F0044002F000000D8
:100DC500004400010000000041002D0041002E00FC
:100DD50041000E0041002000410033004100220087
:100DE5004400120000000041004600410038004167
:100DF50000390041003A0041003B004100440041F8
:100E050000090044003C00000000410011004100C1
:100E15001000420025000041001E00410021004154
:030E2500002B009F
:10000E001213C51213B2D2AFE4FF121330E4FF1273
:10001E00130F90000FE0701D1213E590000F740186
:10002E00F0900027E0FCA3E0FDA3E0FEA3E0FF902C
:10003E000040120D2890000FE0B40142900040E005
:10004E00F8A3E0F9A3E0FAA3E0FB900027E0FCA3FD
:10005E00E0FDA3E0FEA3E0C39BFFEE9AFEED99FD4B
:10006E00EC98FCE47B207A03F9F8C3120D17500EBE
:10007E00120E2990001A120D28E490000FF0900035
:10008E0018E0701D12139C9000187401F090002758
:10009E00E0FCA3E0FDA3E0FEA3E0FF90000A120D3A
:1000AE0028900018E0B4013E90000AE0F8A3E0F9B1
:1000BE00A3E0FAA3E0FB900027E0FCA3E0FDA3E0A1
:1000CE00FEA3E0C39BFFEE9AFEED99FDEC98FCE4D7
:1000DE007B64FAF9F8C3120D17500B12103790000B
:1000EE0017EFF0E4A3F0900005E0F8A3E0F9A3E029
:1000FE00FAA3E0FB900027E0FCA3E0FDA3E0FEA343
:10010E00E0C39BFFEE9AFEED99FDEC98FCE47BE8D4
:10011E007A03F9F8C3120D175024900027E0FCA3C0
:10012E00E0FDA3E0FEA3E0FF900005120D28900075
:10013E0024E0900045F0120FC4900024EFF09000E0
:10014E0020E0702890000EE070221210EC90002D2E
:10015E00EFF090000E7401F0900027E0FCA3E0FD9C
:10016E00A3E0FEA3E0FF900001120D28900020E016
:10017E00705C90000EE064017054900001E0F8A3F2
:10018E00E0F9A3E0FAA3E0FB900027E0FCA3E0FD7A
:10019E00A3E0FEA3E0C39BFFEE9AFEED99FDEC9863
:1001AE00FCE47B14FAF9F8C3120D1750211210EC6F
:1001BE0090002EEFF090002DE0FEB5070C600A9037
:1001CE000033F09000207401F0E490000EF09000E7
:1001DE0020E064017028900033E064056013121073
:1001EE00ECEF700D900033E0900022F0E4900020D0
:1001FE00F0900033E0B40506E4F0900020F090009B
:10020E0046E070201210ECBF051A900027E0FCA308
:10021E00E0FDA3E0FEA3E0FF900012120D28900077
:10022E00467401F0900046E0B40145900012E0F8EB
:10023E00A3E0F9A3E0FAA3E0FB900027E0FCA3E023
:10024E00FDA3E0FEA3E0C39BFFEE9AFEED99FDEC4D
:10025E0098FCE47BD07A07F9F8C3120D17501112EF
:10026E0010ECBF05069000227405F0E4900046F0F5
:10027E00900022E0B4011D900021E004F0E0B404EF
:10028E0002E4F0900021E0B40205E490002BF0E4CB
:10029E00900022F0900021E0640260030203A7A305
:1002AE00E0B4021490002BE0700404F08005E4909A
:1002BE00002BF0E4900022F090002BE0600302038C
:1002CE006B900022E0B40347900034E0FCA3E0FD05
:1002DE00A3E0FEA3E0FFE4FBFA7980783F12093930
:1002EE00900034120D28E4FFFE7DA27C4290003473
:1002FE00E0F8A3E0F9A3E0FAA3E0FB120B30700ADA
:10030E00900034120D3442A00000E4900022F090D0
:10031E000022E0B40447900034E0FCA3E0FDA3E02B
:10032E00FEA3E0FFE4FBFA798078BF120939900052
:10033E0034120D28E4FFFE7D987C41900034E0F8E5
:10034E00A3E0F9A3E0FAA3E0FB120B30700A9000D1
:10035E0034120D3441A00000E4900022F090002BE6
:10036E00E064017034900022E0B40313900000E0CA
:10037E002405F0E0B455037450F0E4900022F090A0
:10038E000022E0B40413900000E024FBF0E0B40F70
:10039E00037414F0E4900022F0900021E0B40310F6
:1003AE00A3E0B4050BE4900025F0A3F0900022F03A
:1003BE00900000E0FF900024E0C39F5008900023BF
:1003CE007401F08005E4900023F0900034E0FCA36B
:1003DE00E0FDA3E0FEA3E0FF90001AE0F8A3E0F931
:1003EE00A3E0FAA3E0FB120B30600A40089000195C
:1003FE007401F08005E4900019F0900016E0706D25
:10040E00900045E0FF900024E0C39FFFE49400FEBF
:10041E001213F2AC06AD07EC120BAEE4FBFA79A0A8
:10042E007840120B306011400F90002CE090004786
:10043E00F0E490002CF08035900045E0FF90002411
:10044E00E0C39FFFE49400FE1213F2C3EF940AEE92
:10045E006480948090002CE09000475009F090004A
:10046E002C7401F08007F090002C7402F0900016AE
:10047E00E0702690002CE0FF900047E06F601A902D
:10048E0000167401F0900027E0FCA3E0FDA3E0FE4F
:10049E00A3E0FF90002F120D28900016E0B401414A
:1004AE0090002FE0F8A3E0F9A3E0FAA3E0FB9000A0
:1004BE0027E0FCA3E0FDA3E0FEA3E0C39BFFEE9AC2
:1004CE00FEED99FDEC98FCE47BB87A0BF9F8C312BB
:1004DE000D17500D90002CE090001FF0E4900016C8
:1004EE00F0900021E06402700302060A900023E0FF
:1004FE0064017041900017E024FE601314601B1419
:10050E0060272403702F9000387401F0E48020904F
:10051E0000387401F0A3F0E480179000387401F0F5
:10052E00A3F0A3F0E4A3F0800C9000387401F0A3C4
:10053E00F0A3F0A3F090001FE014600A14600F24E3
:10054E00027013E4800C9000447401F08008900057
:10055E0009E0900044F090003CE0F8A3E0F9A3E03D
:10056E00FAA3E0FB900027E0FCA3E0FDA3E0FEA3CE
:10057E00E0C39BFFEE9AFEED99FDEC98FCE47B64E4
:10058E00FAF9F8C3120D175023900009E070040415
:10059E00F08005E4900009F0900027E0FCA3E0FD58
:1005AE00A3E0FEA3E0FF90003C120D28900023E094
:1005BE006401703F900019E0B4013890001174018D
:1005CE00F0900010E07035900026E004F070069078
:1005DE000025E004F0900025E0B4270FA3E0B4104E
:1005EE000A9000257427F0A3740FF0900010740188
:1005FE00F08009E4900011F0900010F0900039E0C6
:10060E00540125E0FF900038E054014FFF90003A6E
:10061E00E0540125E025E04FFFA3E05401333333CE
:10062E0054F84FFF900044E05401FEC4333333546A
:10063E00804FFF121330900011E0FF12130F900045
:10064E0021E01470030206DB1470030207471470D6
:10065E000302081724036003020020E4FB7D0A7FD7
:10066E0001120F4490001AE0FCA3E0FDA3E0FEA3EC
:10067E00E0FF120BE77C007D0A120CBDAD07E4FB18
:10068E007F02120F4490001AE0FCA3E0FDA3E0FEEF
:10069E00A3E0FF120BE77C007D0A120CBDE4FB7F8A
:1006AE0003120F44E4FB7D0E7F04120F44E4FB7D26
:1006BE000E7F05120F44E4FB7D0E7F06120F44E4FD
:1006CE00FB7D0D7F07120F449000178062E4FB7DC7
:1006DE000C7F01120F4490001FE075F00A84ADF0FC
:1006EE00E4FB7F02120F44E4FB7D0E7F03120F44E6
:1006FE00E4FB7D0E7F04120F44E4FB7D0E7F05129A
:10070E000F44900024E075F0648475F00A84ADF017
:10071E00E4FB7F06120F44900024E075F00A847506
:10072E00F00A84ADF0E4FB7F07120F44900024E042
:10073E0075F00A84ADF002080D90002BE07070FB8E
:10074E007D0B7F01120F44E4FB7D0A7F02120F44E2
:10075E00E4FB7D0E7F03120F44E4FB7D0E7F04123B
:10076E000F44E4FB7D0E7F05120F44E4FB7D0E7FEC
:10077E0006120F44900034E0FCA3E0FDA3E0FEA3BC
:10078E00E0FF120BE77C007D0A120CBDAD07E4FB07
:10079E007F07120F44900034E0FCA3E0FDA3E0FEBF
:1007AE00A3E0FF120BE77C007D0A120CBD8050E423
:1007BE00FB7D0B7F01120F44E4FB7D0D7F02120FB8
:1007CE0044E4FB7D0E7F03120F44E4FB7D0E7F0499
:1007DE00120F44E4FB7D0E7F05120F44E4FB7D0EE9
:1007EE007F06120F44900000E075F00A84FDE4FBD2
:1007FE007F07120F44900000E075F00A84ADF0E41C
:10080E00FB7F08120F44020020E4FB7D0D7F0112D6
:10081E000F44E4FB7D0A7F02120F44E4FB7D0E7F42
:10082E0003120F44E4FB7D0E7F04120F4490001E52
:10083E00E07024900025E0FEA3E0FF7C037DE8122B
:10084E000C687C007D0A120C68ED4C700AFB7D0E64
:10085E007F05120F448023900025E0FEA3E0FF7C6D
:10086E00037DE8120C687C007D0A120C68E4FB7FA5
:10087E0005120F4490001E7401F090001EE07024CB
:10088E00900025E0FEA3E0FF7C007D64120C687CE6
:10089E00007D0A120C68ED4C700AFB7D0E7F05126E
:1008AE000F448023900025E0FEA3E0FF7C007D64D2
:1008BE00120C687C007D0A120C68E4FB7F06120F96
:1008CE004490001E7401F090001EE07021900025EF
:1008DE00E0FEA3E0FF7C007D0A120C687C007D0A1E
:1008EE00120C68ED4C7007FB7D0E7F05801A900090
:1008FE0025E0FEA3E0FF7C007D0A120C687C007DE3
:10090E000A120C68E4FB7F07120F44900025E0FEEC
:10091E00A3E0FF7C007D0A120C68E4FB7F08120F37
:04092E00440200205F
:10093200020C53E86480F8E933E83360110460F094
:10094200ED33EC337009E8FCE9FDEAFEEBFF22042B
:1009520060DED3EB9FEA9EE99DE8C2E78CF0C2F726
:1009620095F0400CE8CCF8E9CDF9EACEFAEBCFFBF2
:10097200120C1E85D0F05804700320D5B3E8047021
:10098200075002B2D5020C5D92D5EC0460F7E4CCBC
:10099200C0E0C398F8603B94186008400DD0E0FBBB
:1009A200020C35E4FBFAC9FC8028E830E406E4C90D
:1009B200FBE4CAFCE830E305E4C9CACBFCE854070F
:1009C2006010F8C3E913F9EA13FAEB13FBEC13FC1A
:1009D200D8F130F52FC3E49CFCEF9BFFEE9AFEEDBD
:1009E20099FDD0E0FBEF4E4D4C701222DB03020C5E
:1009F2005AEC2CFCEF33FFEE33FEED33FDED30E726
:100A0200EB020C35EF2BFFEE3AFEED39FDD0E0FBA9
:100A120050130BBB0003020C5DED13FDEE13FEEF52
:080A220013FFEC13FC020C357C
:100A2A00EC4D6011E8497017ED33EC3304600DE4C6
:100A3A00FCFFFEFD22E933E8330470F8020C53127E
:100A4A000C1E58046009E4CC24815006285009027F
:100A5A000C5D284003020C5AC0E0EB4A7044B9808E
:100A6A0006D0E0FB020C49EF4E701CBD8008EBFF7C
:100A7A00EAFEE9FD80EBE98DF0A4FEE5F0020B1336
:100A8A00E9CDF9EAFEEBFFEF89F0A4FCE5F0CE89A7
:100A9A00F0A42EFFE435F0CD89F0A42DFEE435F064
:100AAA008067EF4E7005BD80D780C3EF8BF0A4AC92
:100ABA00F0EE8BF0A42CFCE435F0F8EF8AF0A42CCD
:100ACA00E5F038FCE433CB8DF0A42CFCE5F03BF8E0
:100ADA00EE8AF0A42CFCE5F038F8E433CF89F0A4D0
:100AEA002CFCE5F038CF3400CE89F0A42FFFE5F0D6
:100AFA003EFEE433C98DF0A42EFEE5F039CD8AF02E
:100B0A00A42FFFE5F03EFEE43DFD33D0E0FB5007A5
:100B1A000BBB000F020C5DEC2CFCEF33FFEE33FE37
:060B2A00ED33FD020C3565
:100B300074F8CC6480CCC86480C8F58204604FC36C
:100B4000EB9FF5F0EA9E42F0E99D42F0E89C45F00B
:100B5000603C501DE5825FFFE582D313CB5BCBF495
:100B60002B5582FB50280ABA002409B900200880BE
:100B70001DE5825BFBE582D313CF5FCFF4C3132F58
:100B80005582FF50090EBE00050DBD00010CC3EBE0
:100B90009FF5F0EA9E42F0E99D42F0E89C45F06046
:090BA00007CC4820E701B3EC2268
:100BA90075F020800E75F010800575F0087D007EC7
:100BB900007F003392D530D503120CF3EC3340108B
:100BC900EF33FFEE33FEED33FDEC33FCD5F0ED22D0
:0E0BD900E5F0247EA2D513CC92E7CDCEFF220C
:100BE700EDD2E7CD33EC3392D524814006E4FFFE06
:100BF700FDFC22FCE4CFCECDCC24E0501174FF8065
:100C0700EDC3CC13CCCD13CDCE13CECF13CF047001
:070C1700F030D5DE020CF302
:100C1E00E9D2E7C933E833F892D5EDD2E7CD33EC1C
:070C2E0033FC5002B2D52295
:100C3500EC30E7100FBF000C0EBE00080DBD000420
:100C45000BEB6014A2D5EB13FCED92E7FD2274FFCC
:100C5500FCFDFEFF22E480F8A2D574FF13FC7D8025
:030C6500E480EF39
:03000000020EB835
:0C0EB800787FE4F6D8FD758110020EFF73
:100C6800BC000BBE0029EF8DF084FFADF022E4CC70
:100C7800F875F008EF2FFFEE33FEEC33FCEE9DEC39
:100C8800984005FCEE9DFE0FD5F0E9E4CEFD22ED7F
:100C9800F8F5F0EE8420D21CFEADF075F008EF2FC9
:100CA800FFED33FD4007985006D5F0F222C398FDBA
:050CB8000FD5F0EA2257
:100CBD00C2D5EC30E709B2D5E4C39DFDE49CFCEE52
:100CCD0030E715B2D5E4C39FFFE49EFE120C68C356
:100CDD00E49DFDE49CFC8003120C6830D507C3E451
:060CED009FFFE49EFE22C1
:0E0CF300C3E49FFFE49EFEE49DFDE49CFC2212
:100D0100EB9FF5F0EA9E42F0E99D42F0EC6480C869
:060D110064809845F02209
:100D1700EB9FF5F0EA9E42F0E99D42F0E89C45F032
:010D270022A9
:0C0D2800ECF0A3EDF0A3EEF0A3EFF0223E
:100D3400A8828583F0D083D082120D4B120D4B1202
:100D44000D4B120D4BE473E493A3C583C5F0C58327
:100D5400C8C582C8F0A3C583C5F0C583C8C582C809
:010D6400226C
:0C13F200EE30E707C3E49FFFE49EFE22FC
:100EC40002000EE493A3F8E493A34003F68001F236
:100ED40008DFF48029E493A3F85407240CC8C3332F
:100EE400C4540F4420C8834004F456800146F6DFFE
:100EF400E4800B0102040810204080900D65E47E1C
:100F0400019360BCA3FF543F30E509541FFEE493F2
:100F1400A360010ECF54C025E060A840B8E493A3B9
:100F2400FAE493A3F8E493A3C8C582C8CAC583CAE4
:100F3400F0A3C8C582C8CAC583CADFE9DEE780BE9C
:010E280000C9
:00000001FF
