:0D0FD600C0F9A4B0999282F88090BFC1FFCD
:100D0E004400120000000041000F0041000C0141A0
:100D1E0000000141002700440022000000000411E1
:100D2E0000000000041541B800004400050000005A
:100D3E000041001A0041001B0044000100000000A9
:100D4E0041000B004100100041001D004100110048
:100D5E0041000E0044001E0000000041002600412C
:100D6E00001C0041000A0041000D00440016000066
:060D7E0000004100090025
:10000E00120FC3D2AFE4FF120F5BE4FF120FA67BF9
:10001E00367D3B7F0B1209C990000DE070047F0105
:10002E0080027F00EF540125E0FF90000AE05401AA
:10003E004FFF90000EE05401FE25E025E04FFF1229
:10004E000FA6900027E0701D120FE3900027740199
:10005E00F0900012E0FCA3E0FDA3E0FEA3E0FF9011
:10006E000022120968900012E0FCA3E0FDA3E0FE5E
:10007E00A3E0FFE4120854AB14AA13A912A811129C
:10008E0005E07B007A80793B78441207DB501490B0
:10009E000027E0B4010DE4F0120C058F148E138DC1
:1000AE00128C11900005E0F8A3E0F9A3E0FAA3E0AA
:1000BE00FB900012E0FCA3E0FDA3E0FEA3E0C39BD7
:1000CE00FFEE9AFEED99FDEC98FCE47BF47A01F9D3
:1000DE00F8C31209575017900012E0FCA3E0FDA3DD
:1000EE00E0FEA3E0FF900005120968120EAA900030
:1000FE000BE07028900010E07022120E1D90001A76
:10010E00EFF090000B7401F0900012E0FCA3E0FD04
:10011E00A3E0FEA3E0FF900001120968900001E049
:10012E00F8A3E0F9A3E0FAA3E0FB900012E0FCA331
:10013E00E0FDA3E0FEA3E0C39BFFEE9AFEED99FD6A
:10014E00EC98FCE47B0AFAF9F8C312095750379081
:10015E00000BE06401702F900010E07029120E1D4C
:10016E0090001BEFF090001AE0FF6015A3E0FEEF89
:10017E00B5060E9000107401F090001AE090001D6C
:10018E00F0E490000BF0900010E0B40113120E1D7D
:10019E00EF700D90001DE0900011F0E4900010F053
:1001AE00900011E0B4010EE4F0900009E004F0E0DC
:1001BE00B40302E4F0900011E0B40224E4F09000E5
:1001CE001CF090000AF090000EF090000DE070040C
:1001DE007F0180027F0090000DEFF0E4FF120F5BB5
:1001EE00900009E064026003020279900011E0B40D
:1001FE000339E4F0AF18AE17AD16AC15FBFA7980E3
:10020E0078BF1205E48F188E178D168C15E4FFFE3D
:10021E007D107C41AB18AA17A916A8151207DB7022
:10022E000AF518F517751620751541900011E0B4F2
:10023E000439E4F0AF18AE17AD16AC15FBFA7980A1
:10024E00783F1205E48F188E178D168C15E4FFFE7D
:10025E007DC87C42AB18AA17A916A8151207DB7029
:10026E000AF518F5177516C675154290001CE0FBB9
:10027E006031900026E0702B90000EE070047F013C
:10028E0080027F0090000EEFF09000267401F09037
:10029E000012E0FCA3E0FDA3E0FEA3E0FF90001E31
:1002AE00120968EB603C90001EE0F8A3E0F9A3E0B1
:1002BE00FAA3E0FB900012E0FCA3E0FDA3E0FEA396
:1002CE00E0C39BFFEE9AFEED99FDEC98FCE47B6497
:1002DE00FAF9F8C31209575009900026E0B401024A
:1002EE00E4F090000CE07025900000E0701F90008C
:1002FE000DE0701990000A04F0900012E0FCA3E0EB
:10030E00FDA3E0FEA3E0FF90001E12096890000D11
:10031E00E0703990001EE0F8A3E0F9A3E0FAA3E044
:10032E00FB900012E0FCA3E0FDA3E0FEA3E0C39B64
:10033E00FFEE9AFEED99FDEC98FCE47B887A13F9BA
:10034E00F8C31209575005E490000AF090000DE032
:10035E007031AF18AE17AD16AC15AB14AA13A912A7
:10036E00A8111207DB6010400E7F01120F5B900088
:10037E001C7401F002040FE4FF120F5BE490001CEA
:10038E00F0807A90000CE0702B900000E070257FDA
:10039E0001120F5B90001C7401F090000AF09000A7
:1003AE0012E0FCA3E0FDA3E0FEA3E0FF9000161216
:1003BE000968804D90001CE0B40146900016E0F8EC
:1003CE00A3E0F9A3E0FAA3E0FB900012E0FCA3E0A7
:1003DE00FDA3E0FEA3E0C39BFFEE9AFEED99FDECBC
:1003EE0098FCE47B887A13F9F8C31209575012E48B
:1003FE0090001CF090000AF0FF120F5BE490000ECC
:10040E00F0900009E01470030204A61470030205B4
:10041E007024026003020026E4FB7D0B7F01120CA8
:10042E008CE4FB7D017F02120C8CE4FB7D0C7F03C0
:10043E00120C8CE4FB7D0C7F04120C8CE4FB7D0C07
:10044E007F05120C8CAF14AE13AD12AC11120892C4
:10045E007C007D0A120913AD07E4FB7F06120C8C9B
:10046E00AF14AE13AD12AC111208927C007D0A12BD
:10047E0009137B017F07120C8CE4FFFE7D207C416B
:10048E00AB14AA13A912A8111206D51208927C0059
:10049E007D0A120913020566120E1DEF64047059CF
:1004AE00FB7D0B7F01120C8CE4FB7D027F02120C94
:1004BE008CE4FB7D0C7F03120C8C90000CE075F02D
:1004CE000A84FDE4FB7F04120C8C90000CE075F0A6
:1004DE000A84ADF0E4FB7F05120C8CE4FB7D0A7FF1
:1004EE0006120C8C900000E075F00A84FDE4FB7F90
:1004FE0007120C8C9000008058E4FB7D0B7F0112DC
:10050E000C8CE4FB7D027F02120C8CE4FB7D0C7FD5
:10051E0003120C8C90000FE075F00A84FDE4FB7F53
:10052E0004120C8C90000FE075F00A84ADF0E4FB21
:10053E007F05120C8CE4FB7D0A7F06120C8C90005A
:10054E000CE075F00A84FDE4FB7F07120C8C900022
:10055E000CE075F00A84ADF0E4FB7F08120C8C02FF
:10056E000026E4FB7D0B7F01120C8CE4FB7D037FE8
:10057E0002120C8CE4FB7D0C7F03120C8CE4FB7DD1
:10058E000C7F04120C8CE4FB7D0C7F05120C8CE4AA
:10059E00FB7D0C7F06120C8CAF18AE17AD16AC158A
:1005AE001208927C007D0A120913AD07E4FB7F0747
:1005BE00120C8CAF18AE17AD16AC151208927C004B
:0F05CE007D0A120913E4FB7F08120C8C02002631
:100F2900E4F50FD2947F0AFE120F8CC2947F087EDB
:100F390002120F8CD2947F377E00120F8C209404FA
:100F49007F0180027F008F0F7FC87E00120F8CAF58
:010F59000F88
:010F5A002274
:020D85008F0FCE
:100D8700E4F510D2947F0AFE120F8CE4F510AF1031
:100D9700E50FA807088002C313D8FC30E00FC29400
:100DA7007F077E00120F8CD2947F37800DC2947F0D
:100DB7003C7E00120F8CD2947F057E00120F8C05AB
:0A0DC70010E510C3940840C6D29452
:010DD10022FF
:100E6700E4F50FF510D2947F0AFE120F8CE4F50F0C
:100E7700E510C313F510C2947F037E00120F8CD2C6
:100E8700947F077E00120F8C3094034310807F37C6
:100E97007E00120F8C050FE50FC3940840D2D29441
:020EA700AF108A
:010EA9002226
:040AEC008F0B8D0CD3
:100AF000E4F50DC293C297C2A37F03FE120F8CD2FE
:100B0000937F037E00120F8CE4F50DAF0DE50BA86B
:100B100007088002C313D8FC1392A37F017E001242
:100B20000F8CD2977F037E00120F8CC2977F017EBD
:100B300000120F8C050DE50DC3940840CEE4F50DB1
:100B4000AF0DE50CA807088002C313D8FC1392A3CD
:100B50007F017E00120F8CD2977F037E00120F8CD4
:100B6000C2977F017E00120F8C050DE50DC394081E
:080B700040CEC293C297C2A35C
:010B7800225A
:020A5D008F0800
:100A5F00E4F509F50AC293C297C2A37F03FE120FF2
:100A6F008CD2937F037E00120F8CE4F509AF09E55A
:100A7F0008A807088002C313D8FC1392A37F017E36
:100A8F0000120F8CC2977F037E00120F8CD2977FBC
:100A9F00017E00120F8C0509E509C3940840CED2E0
:100AAF00A3D2977F017E00120F8CE4F509E50AC3EC
:100ABF0013F50AC2977F017E00120F8C30A30343F8
:100ACF000A80D2977F017E00120F8C0509E509C3BA
:0C0ADF00940840D9C293C297C2A3AF0A8A
:010AEB0022E8
:0D0FE300120F297FCC120D857F44020D8571
:100C0500E4F508FFF509F50AF50EF50DF50CF50BFC
:100C1500120F297FCC120D857FBE120D85120E672E
:100C25008F08120E67EFF509E508F50AE50930E7C3
:100C350011E50AF4FFE509F4FEEF2401F50AE43EA7
:100C4500F5097C00E50A540FFDE4120859E4FBFAA6
:100C55007980783D1206D5C004C005C006C007E5F9
:100C650009C4F854F0C868FCE50AC4540F48FDE40B
:100C7500120859D003D002D001D0001205E48F0E1E
:060C85008E0D8D0C8C0B9E
:010C8B002246
:0609C9008F088D098B0A66
:1009CF00E509D3943B40047F0180027F00E508D303
:1009DF00941740047E0180027E00EE4FFFE50AD39C
:1009EF00943B40047E0180027E00EE4F705FE4FD79
:1009FF007F8E120AECE50875F00A84C454F0FFE507
:100A0F000875F00A84E5F0540F4FFD7F84120AEC4D
:100A1F00E50975F00A84C454F0FFE50975F00A84FE
:100A2F00E5F0540F4FFD7F82120AECE50A75F00ACC
:100A3F0084C454F0FFE50A75F00A84E5F0540F4FB3
:0D0A4F00FD7F80120AEC7D807F8E120AEC84
:010A5C002277
:100EAA007F81120A5DEFC4540F75F00AA4FEEF5455
:100EBA000F2E900000F07F83120A5DEFC4540F7565
:100ECA00F00AA4FEEF540F2E90000CF07F85120A50
:100EDA005DEFC4540F75F00AA4FEEF540F2E900074
:020EEA000FF007
:010EEC0022E3
:100FC300438E805389F0758ACD758CD4C28DD28CB3
:030FD300D2A9227E
:03000B00020DD211
:100DD200C0E0C0F0C083C082C0D075D000C000C0E7
:100DE20004C005C006C007900012E0FCA3E0FDA30A
:100DF200E0FEA3E02401FFE43EFEE43DFDE43CFC12
:100E0200900012120968D007D006D005D004D00095
:0B0E1200D0D0D082D083D0F0D0E032EE
:100EED00E4FCFD900012E0F8A3E0F9A3E0FAA3E022
:100EFD002FF50BEA3EF50AED39F509EC38F50890BA
:100F0D000012E0FCA3E0FDA3E0FEA3E0FFAB0BAA03
:0B0F1D000AA909A808D312095750E4E4
:010F280022A6
:070F850053A01F7F017E0055
:100F8C00E4FDFCC3ED9FEC9E500F00000000000040
:090F9C0000000DBD00010C80EA0B
:010FA5002229
:100FA600AB07120F85EBF4F580120F8CE5A0541FEA
:0D0FB6004480F5A07F03120F8C53A01F2272
:100C8C00AA07A905EA70047F0180027F00EAD394C9
:100C9C000840047E0180027E00EE4FFFE9D3940CE5
:100CAC0040047E0180027E00EE4FFFEBD3940140A6
:100CBC00047E0180027E00EE4F7046120F85EA140E
:100CCC00FF7401A807088002C333D8FCF580120F0B
:100CDC0088E5A0541F44C0F5A07F03120F8C53A0CD
:100CEC001FE9900FD693F580EB6002C287120F8834
:100CFC00E5A0541F44E0F5A0120EED7580FF53A043
:020D0C001F22A4
:100F5B00AB07EBD394015021120F85EB6005758025
:100F6B00108003E4F580120F88E5A0541F44A0F510
:0A0F7B00A07F03120F8C53A01F2269
:100E1D00C2B5D2B4E5B0540C1313543FFFD2B5C2D2
:100E2D00B4E5B0540C1313543FFDEF25E025E04D10
:100E3D0044F0FF6307FFEF14601714601024FE6089
:100E4D000824FC70107E01800E7E02800A7E0380D5
:090E5D00067E048002E4FEAF06EB
:010E66002269
:1005DD000208FEE86480F8E933E83360110460F046
:1005ED00ED33EC337009E8FCE9FDEAFEEBFF220484
:1005FD0060DED3EB9FEA9EE99DE8C2E78CF0C2F77F
:10060D0095F0400CE8CCF8E9CDF9EACEFAEBCFFB4A
:10061D001208C985D0F05804700320D5B3E80470D2
:10062D00075002B2D502090892D5EC0460F7E4CC6C
:10063D00C0E0C398F8603B94186008400DD0E0FB13
:10064D000208E0E4FBFAC9FC8028E830E406E4C9BE
:10065D00FBE4CAFCE830E305E4C9CACBFCE8540767
:10066D006010F8C3E913F9EA13FAEB13FBEC13FC72
:10067D00D8F130F52FC3E49CFCEF9BFFEE9AFEED15
:10068D0099FDD0E0FBEF4E4D4C701222DB030209B9
:10069D0005EC2CFCEF33FFEE33FEED33FDED30E7D3
:1006AD00EB0208E0EF2BFFEE3AFEED39FDD0E0FB5B
:1006BD0050130BBB0003020908ED13FDEE13FEEF03
:0806CD0013FFEC13FC0208E02E
:1006D500EC4D6011E8497017ED33EC3304600DE41F
:1006E500FCFFFEFD22E933E8330470F80208FE1230
:1006F50008C958046009E4CC248150062850090231
:100705000908284003020905C0E0EB4A7044B98096
:1007150006D0E0FB0208F4EF4E701CBD8008EBFF2D
:10072500EAFEE9FD80EBE98DF0A4FEE5F00207BEE7
:10073500E9CDF9EAFEEBFFEF89F0A4FCE5F0CE89FF
:10074500F0A42EFFE435F0CD89F0A42DFEE435F0BC
:100755008067EF4E7005BD80D780C3EF8BF0A4ACEA
:10076500F0EE8BF0A42CFCE435F0F8EF8AF0A42C25
:10077500E5F038FCE433CB8DF0A42CFCE5F03BF838
:10078500EE8AF0A42CFCE5F038F8E433CF89F0A428
:100795002CFCE5F038CF3400CE89F0A42FFFE5F02E
:1007A5003EFEE433C98DF0A42EFEE5F039CD8AF086
:1007B500A42FFFE5F03EFEE43DFD33D0E0FB5007FE
:1007C5000BBB000F020908EC2CFCEF33FFEE33FEE8
:0607D500ED33FD0208E017
:1007DB0074F8CC6480CCC86480C8F58204604FC3C5
:1007EB00EB9FF5F0EA9E42F0E99D42F0E89C45F064
:1007FB00603C501DE5825FFFE582D313CB5BCBF4EE
:10080B002B5582FB50280ABA002409B90020088016
:10081B001DE5825BFBE582D313CF5FCFF4C3132FB0
:10082B005582FF50090EBE00050DBD00010CC3EB38
:10083B009FF5F0EA9E42F0E99D42F0E89C45F0609E
:09084B0007CC4820E701B3EC22C0
:1008540075F020800E75F010800575F0087D007E1F
:10086400007F003392D530D503120949EC33401090
:10087400EF33FFEE33FEED33FDEC33FCD5F0ED2228
:0E088400E5F0247EA2D513CC92E7CDCEFF2264
:10089200EDD2E7CD33EC3392D524814006E4FFFE5E
:1008A200FDFC22FCE4CFCECDCC24E0501174FF80BD
:1008B200EDC3CC13CCCD13CDCE13CECF13CF04705A
:0708C200F030D5DE02094908
:1008C900E9D2E7C933E833F892D5EDD2E7CD33EC75
:0708D90033FC5002B2D522EE
:1008E000EC30E7100FBF000C0EBE00080DBD000479
:1008F0000BEB6014A2D5EB13FCED92E7FD2274FF25
:10090000FCFDFEFF22E480F8A2D574FF13FC7D807D
:03091000E480EF91
:03000000020B7977
:0C0B7900787FE4F6D8FD758118020BC0EF
:10091300C2D5EC30E709B2D5E4C39DFDE49CFCEEFF
:1009230030E715B2D5E4C39FFFE49EFE120974C3FA
:10093300E49DFDE49CFC800312097430D507C3E4F5
:060943009FFFE49EFE226E
:0E094900C3E49FFFE49EFEE49DFDE49CFC22BF
:10095700EB9FF5F0EA9E42F0E99D42F0E89C45F0F6
:01096700226D
:0C096800ECF0A3EDF0A3EEF0A3EFF02202
:100B850002000EE493A3F8E493A34003F68001F278
:100B950008DFF48029E493A3F85407240CC8C33371
:100BA500C4540F4420C8834004F456800146F6DF40
:100BB500E4800B0102040810204080900D0EE47EB5
:100BC500019360BCA3FF543F30E509541FFEE49335
:100BD500A360010ECF54C025E060A840B8E493A3FC
:100BE500FAE493A3F8E493A3C8C582C8CAC583CA27
:100BF500F0A3C8C582C8CAC583CADFE9DEE780BEDF
:010D8400006E
:10097400BC000BBE0029EF8DF084FFADF022E4CC67
:10098400F875F008EF2FFFEE33FEEC33FCEE9DEC30
:10099400984005FCEE9DFE0FD5F0E9E4CEFD22ED76
:1009A400F8F5F0EE8420D21CFEADF075F008EF2FC0
:1009B400FFED33FD4007985006D5F0F222C398FDB1
:0509C4000FD5F0EA224E
:00000001FF
