:0F176400C0F9A4B0999282F88090888E8C89FF8A
:1012DB004400340000000041004000410016004172
:1012EB00003C0041003D0041003F0041002800410F
:1012FB00000D0041002200440000000000004100EE
:10130B003E0044004200000000410026004100184E
:10131B000041002000410046004400124110000033
:10132B0041000C284400383F19999A42000F0000E5
:10133B00410019004400300000000041000E004144
:10134B0000040041000B004100050041001F00415B
:10135B0000060044001B00000000440007000000D2
:10136B000041002F0041002E0041001700410011E9
:10137B0000410021004100230041002400410025D1
:10138B00004100270041002D00440029000000000F
:08139B0041001A00410041006D
:10001E0012170DD2AF121732E4FF1215EEE4FF12D3
:10002E00169E7F01121684EF6466600DE4FDFF12CA
:10003E00164E7D667F0112164EE4FF121684900056
:10004E0017EFF0900022E0702890000DE070221261
:10005E0015C690003CEFF090000D7401F090003446
:10006E00E0FCA3E0FDA3E0FEA3E0FF90000012126F
:10007E009E900022E0704790000DE0B40140900089
:10008E0000E0F8A3E0F9A3E0FAA3E0FB900034E06F
:10009E00FCA3E0FDA3E0FEA3E0C39BFFEE9AFEED02
:1000AE0099FDEC98FCE47B14FAF9F8C312128D500A
:1000BE000D1215C690003DEFF0E490000DF090008B
:1000CE0022E0704090003DE0FF90003CE0B5073428
:1000DE00EF6031B4042090003E7401F0900022F0E5
:1000EE00900034E0FCA3E0FDA3E0FEA3E0FF90004F
:1000FE004212129E800E9000227401F090003DE09C
:10010E0090003FF0900022E0640170611215C6EF7E
:10011E00705B90003EE0700E900022F090003FE089
:10012E00900028F08047900042E0F8A3E0F9A3E0A9
:10013E00FAA3E0FB900034E0FCA3E0FDA3E0FEA3F5
:10014E00E0C39BFFEE9AFEED99FDEC98FCE47BE894
:10015E007A03F9F8C312128D9000285004740580AA
:10016E00027404F0E490003EF0900022F09000281B
:10017E00E064017038900026E0B40307E4F0121733
:10018E00328025900026E0B40105E490000EF09038
:10019E000026E0B4020CE4900018F090002EF0124D
:1001AE001743900026E004F0E4900028F09000261B
:1001BE00E0FF701B900028E0B40414900020E07063
:1001CE000404F08005E4900020F0E4900028F0EFA5
:1001DE00B40116900028E0B4050FE4900017F0FD6E
:1001EE00FF12164EE4900028F0900026E0FFB402B5
:1001FE001B900028E0B40314900046E0700404F055
:10020E008005E4900046F0E4900028F0EF6403606F
:10021E00030203CD900028E0B40216900018E0B45B
:10022E000204E4F08006900018E004F0E490002848
:10023E00F0900018E060030202E0900028E0B403A2
:10024E0045E4FFFE7D407C41900012E0F8A3E0F90A
:10025E00A3E0FAA3E0FB1210E09000127009121254
:10026E00AA3F800000801AE0FCA3E0FDA3E0FEA3FD
:10027E00E0FFE4FBFAF9783F120E499000121212D9
:10028E009EE4900028F0900028E0B40445E4FFFEC0
:10029E007D807C3F900012E0F8A3E0F9A3E0FAA382
:1002AE00E0FB1210E090001270091212AA414000F9
:1002BE0000801AE0FCA3E0FDA3E0FEA3E0FFE4FB58
:1002CE00FAF978BF120E4990001212129EE49000B5
:1002DE0028F0900018E0FF6401703E900028E0B412
:1002EE00031890000CE0B43C05740AF080079000EF
:1002FE000CE0240AF0E4900028F0900028E0B4040A
:10030E001890000CE0B40A05743CF0800790000CC5
:10031E00E024F6F0E4900028F0EF6402600302039C
:10032E00CD900028E0B403487F9A7E997D997C3F5A
:10033E00900038E0F8A3E0F9A3E0FAA3E0FB121076
:10034E00E090003870091212AA3DCCCCCD801CE092
:10035E00FCA3E0FDA3E0FEA3E0FF7BCD7ACC79CC3D
:10036E00783D120E4990003812129EE4900028F04B
:10037E00900028E0B404487FCD7ECC7DCC7C3D90AF
:10038E000038E0F8A3E0F9A3E0FAA3E0FB1210E0D6
:10039E0090003870091212AA3F99999A801CE0FCBD
:1003AE00A3E0FDA3E0FEA3E0FF7BCD7ACC79CC7871
:1003BE00BD120E4990003812129EE4900028F09063
:1003CE000026E06003020547900019E0701D121729
:1003DE00829000197401F0900034E0FCA3E0FDA3BC
:1003EE00E0FEA3E0FF90003012129E900019E06430
:1003FE00016003020547900030E0F8A3E0F9A3E0A6
:10040E00FAA3E0FBA3E0FCA3E0FDA3E0FEA3E0C3A0
:10041E009BFFEE9AFEED99FDEC98FCE47BE87A03E7
:10042E00F9F8C312128D40030205471217209000EF
:10043E000FEEF0A3EFF0E4900019F0FFFE7D7A7C52
:10044E0044900012E0F8A3E0F9A3E0FAA3E0FB1257
:10045E000F3AC004C005C006C00790000FE0FCA311
:10046E00E0FDE412115EA804A905AA06AB07D007A9
:10047E00D006D005D0041210E0600A400890000E9D
:10048E007401F08005E490000EF090000FE0FCA3E4
:10049E00E0FDE412115E900012E0F8A3E0F9A3E093
:1004AE00FAA3E0FB1210E040057F330205449000F2
:1004BE000FE0FCA3E0FDE412115E900012E0F8A341
:1004CE00E0F9A3E0FAA3E0FB1210E0506790000FF2
:1004DE00E0FCA3E0FDC39450EC94005057E41211DD
:1004EE005E900012E0F8A3E0F9A3E0FAA3E0FB129D
:1004FE000E45E4FBFA794C7843120F3AC004C0055E
:10050E00C006C007900012E0F8A3E0F9A3E0FAA33A
:10051E00E0FBE4FFFE7DA07C42120E45A804A90577
:10052E00AA06AB07D007D006D005D004121043128E
:10053E00119780027FFF1216F8900005E0701D12D1
:10054E0016CD9000057401F0900034E0FCA3E0FDA0
:10055E00A3E0FEA3E0FF90001B12129E900005E0A8
:10056E006401707490001BE0F8A3E0F9A3E0FAA315
:10057E00E0FB900034E0FCA3E0FDA3E0FEA3E0C3AB
:10058E009BFFEE9AFEED99FDEC98FCE47B19FAF9CF
:10059E00F8C312128D50411216E3900004EFF0E4EE
:1005AE00A3F0FEFC7D64121218AC06AD07E4121126
:1005BE005EE4FBFA797F7843121043121197900094
:1005CE000BEFF0A3E0FEEFD39E40089000067401FF
:1005DE00F08005E4900006F0900026E064026003CF
:1005EE0002068D900007E0F8A3E0F9A3E0FAA3E07D
:1005FE00FB900034E0FCA3E0FDA3E0FEA3E0C39B70
:10060E00FFEE9AFEED99FDEC98FCE47BC8FAF9F842
:10061E00C312128D506912150790002FEFF0900043
:10062E0034E0FCA3E0FDA3E0FEA3E0FF9000071280
:10063E00129EE4FFFE7DC87C42900038E0F8A3E0F5
:10064E00F9A3E0FAA3E0FB120F3AC004C005C006FE
:10065E00C00790002FE0FCE4121163A804A905AABC
:10066E0006AB07D007D006D005D0041210E0600A02
:10067E00400890002E7401F08005E490002EF0905A
:10068E00002EE0B401159000117401F0900017E0F7
:10069E0004F0E0FDE4FF12164E8005E4900011F028
:1006AE00900011E0FF1215EE900026E0FF703490DE
:1006BE00002104F0E4900023F0A3F090000EE0B4CB
:1006CE0001089000257401F08005E4900025F0905B
:1006DE000006E0B401089000277401F08005E49054
:1006EE000027F0EFB40121E4900021F090002304E4
:1006FE00F0E4A3F0900006E0B40108900027740126
:10070E00F08005E4900027F0900026E0640270333C
:10071E00900021F0900023F0A304F090002EE0B49E
:10072E00010890002D7401F08005E490002DF090EA
:10073E000006E0B401089000277401F08005E490F3
:10074E000027F0900026E06403600302088A900000
:10075E0018E07060900029E0F8A3E0F9A3E0FAA396
:10076E00E0FB900034E0FCA3E0FDA3E0FEA3E0C3B9
:10077E009BFFEE9AFEED99FDEC98FCE47B64FAF992
:10078E00F8C312128D5023900021E0700404F08003
:10079E0005E4900021F0900034E0FCA3E0FDA3E01E
:1007AE00FEA3E0FF90002912129EE4900023F0A316
:1007BE00F002088A900018E064017061900029E050
:1007CE00F8A3E0F9A3E0FAA3E0FB900034E0FCA369
:1007DE00E0FDA3E0FEA3E0C39BFFEE9AFEED99FDC4
:1007EE00EC98FCE47B64FAF9F8C312128D50239056
:1007FE000023E0700404F08005E4900023F09000E4
:10080E0034E0FCA3E0FDA3E0FEA3E0FF900029127C
:10081E00129EE4900021F0900024F0805F90002959
:10082E00E0F8A3E0F9A3E0FAA3E0FB900034E0FCCB
:10083E00A3E0FDA3E0FEA3E0C39BFFEE9AFEED99BD
:10084E00FDEC98FCE47B64FAF9F8C312128D502388
:10085E00900024E0700404F08005E4900024F090F1
:10086E000034E0FCA3E0FDA3E0FEA3E0FF9000292E
:10087E0012129EE4900021F0900023F0900023E0ED
:10088E00540125E0FF900021E054014FFF90002419
:10089E00E0540125E025E04FFFA3E054013333334C
:1008AE0054F84FFF900027E05401C454F04FFF90CE
:1008BE00002DE05401FEC43354E04FFF12169E90FB
:1008CE000026E0147003020ADB147003020B3314CB
:1008DE007003020C4F24036003020DD1900020E040
:1008EE006003020A43FB7D0B7F01121430E4FB7D93
:1008FE000E7F02121430E4FB7D0E7F031214309033
:10090E00000FE0FEA3E0FF7C277D1012122AEF4EAF
:10091E00701090001AE0700AFB7D0E7F04121430E6
:10092E00802390000FE0FEA3E0FF7C277D101212C3
:10093E002A7C007D0A12122AE4FB7F0412143090E6
:10094E00001A7401F090000FE0FEA3E0FF7C037D1F
:10095E00E812122AEF4E701090001AE0700AFB7D1A
:10096E000E7F05121430802390000FE0FEA3E0FFEF
:10097E007C037DE812122A7C007D0A12122AE4FB07
:10098E007F0512143090001A7401F090000FE0FEF3
:10099E00A3E0FF7C007D6412122AEF4E70109000CF
:1009AE001AE0700AFB7D0E7F061214308023900031
:1009BE000FE0FEA3E0FF7C007D6412122A7C007D16
:1009CE000A12122AE4FB7F0612143090001A7401E8
:1009DE00F090000FE0FEA3E0FF7C007D0A12122AC9
:1009EE00EF4E701090001AE0700AFB7D0E7F07121A
:1009FE001430802390000FE0FEA3E0FF7C007D0A00
:100A0E0012122A7C007D0A12122AE4FB7F071214AE
:100A1E003090001A7401F090000FE0FEA3E0FF7C0E
:100A2E00007D0A12122AE4FB7F08121430E49000B3
:100A3E001AF0020E19E4FB7D0B7F01121430E4FB59
:100A4E007D0E7F02121430E4FB7D0E7F03121430F4
:100A5E00E4FB7D0E7F04121430E4FB7D0E7F051245
:100A6E00143090000FE0FEA3E0FF7C277D101212E1
:100A7E002AEF4E7005FB7D0E801890000FE0FEA34E
:100A8E00E0FF7C277D1012122A7C007D0A12122AAA
:100A9E00E4FB7F0612143090000FE0FEA3E0FF7C13
:100AAE00037DE812122A7C007D0A12122A7B017F36
:100ABE000712143090000FE0FEA3E0FF7C007D646F
:100ACE0012122A7C007D0A12122A020DCDE4FB7D41
:100ADE000D7F01121430E4FB7D0E7F02121430E400
:100AEE00FB7D0E7F03121430E4FB7D0E7F04121487
:100AFE0030E4FB7D0E7F05121430E4FB7D0E7F0685
:100B0E0012143090000BE075F00A8475F00A84AD73
:100B1E00F0E4FB7F0712143090000BE075F00A84AE
:100B2E00ADF0020DCD900046E06003020BEBFB7DB5
:100B3E000A7F01121430E4FB7D0E7F02121430E4A2
:100B4E00FB7D0E7F03121430E4FB7D0E7F04121426
:100B5E0030E4FB7D0E7F0512143090002FE075F00F
:100B6E0064847010900041E0700AFB7D0E7F0612C7
:100B7E001430801B90002FE075F0648475F00A84A9
:100B8E00ADF0E4FB7F061214309000417401F0903A
:100B9E00002FE075F00A847010900041E0700AFB9F
:100BAE007D0E7F07121430801B90002FE075F00A27
:100BBE008475F00A84ADF0E4FB7F071214309000C8
:100BCE00417401F090002FE075F00A84ADF0E4FB63
:100BDE007F08121430E4900041F0020E19E4FB7D00
:100BEE000A7F01121430E4FB7D0E7F02121430E4F2
:100BFE00FB7D0E7F03121430E4FB7D0E7F04121476
:100C0E0030E4FB7D0E7F0512143090002FE075F05E
:100C1E00648475F00A84ADF07B017F061214309067
:100C2E00002FE075F00A8475F00A84ADF0E4FB7FC6
:100C3E000712143090002FE075F00A84ADF0020D0B
:100C4E00CD900018E06003020D03FB7D0C7F0112B6
:100C5E001430E4FB7D017F02121430E4FB7D0E7F25
:100C6E0003121430E4FB7D0E7F04121430E4FB7D7E
:100C7E000E7F05121430900012E0FCA3E0FDA3E0FD
:100C8E00FEA3E0FF121197EF75F00A847005FB7D4D
:100C9E000E8019900012E0FCA3E0FDA3E0FEA3E09D
:100CAE00FF121197EF75F00A84FDE4FB7F06121414
:100CBE0030900012E0FCA3E0FDA3E0FEA3E0FF12E3
:100CCE001197EF75F00A84ADF07B017F0712143097
:100CDE00E4FFFE7D207C41900012E0F8A3E0F9A332
:100CEE00E0FAA3E0FB120F3A121197EF75F00A84A7
:100CFE00ADF0020DCD900018E06401704BFB7D0C41
:100D0E007F01121430E4FB7D027F02121430E4FBEB
:100D1E007D0E7F03121430E4FB7D0E7F041214301F
:100D2E00E4FB7D0E7F05121430E4FB7D0E7F061270
:100D3E00143090000CE075F00A84FDE4FB7F07127E
:100D4E00143090000CE08071E4FB7D0C7F011214D6
:100D5E0030E4FB7D037F02121430E4FB7D0E7F0333
:100D6E00121430E4FB7D0E7F04121430E4FB7D0E72
:100D7E007F05121430E4FB7D0E7F061214309000B6
:100D8E0038E0FCA3E0FDA3E0FEA3E0FF121197EF15
:100D9E0075F00A84ADF07B017F07121430E4FFFE7C
:100DAE007D207C41900038E0F8A3E0F9A3E0FAA39F
:100DBE00E0FB120F3A121197EF75F00A84ADF0E4D2
:100DCE00FB8043E4FB7D0E7F01121430E4FB7D0EAD
:100DDE007F02121430E4FB7D0E7F03121430E4FB0D
:100DEE007D0E7F04121430E4FB7D0E7F051214304D
:100DFE00E4FB7D0E7F06121430E4FB7D0E7F07129E
:100E0E001430E4FB7D0E7F0812143090000EE0903B
:100E1E000016B401057408F080037402F0900016F9
:100E2E00E0FF900040E0C39F5005D285020051C202
:040E3E0085020051D8
:04166A00D2A07F0586
:10166E00000000000000000000000000000000AEBE
:06167E00071FEE70EB22D5
:0F177300D2A112166AC2A17F0512166EC2A02261
:0A16B700121614AD077F01120003A4
:0C16C100C2A112166AD2A17F0502166EAB
:02159A00AD079B
:10159C00E4FCC2A07F0512166EED30E704D2A180E8
:1015AC0002C2A17F0512166ED2A0ED25E0FD7F05CB
:0915BC0012166E0CBC08DBC2A083
:0115C5002203
:10161400E4FC12166AED25E0FD30A103430501C286
:0C162400A07F0512166E0CBC08E8AF0594
:011630002297
:0B16310012159A12163CAF0312159A16
:10163C0012166AA2A1E433FDC2A07F0512166EAF8A
:01164C000598
:01164D00227A
:10000300C2A0EF24FF92A17F0512166E12166AC2D8
:08001300A0D2A17F0502166EC8
:10164E00AB05AA071217737FA012159A12163CAF9C
:0C165E00021216311216C17F0502155D44
:02168400AB07B2
:10168600E4FD1217737FA01216311217737FA11291
:0716960016311216B7AF0573
:01169D00222A
:1016CD001217737F9012159A12163C7F4312159ABA
:0616DD0012163C0216C1CA
:1016E300E4FD1217737F9112159A12163C1216B766
:0416F300AF057E00C1
:0116F70022D0
:1016F800AB071217737F9012159A12163C7F41128E
:0517080016310216C1BC
:10170D00438E4053890F758BAE758DFBC28FD28E74
:03171D00D2AB222A
:03001B000214B01C
:1014B000C0E0C0F0C083C082C0D075D000C000C002
:1014C00004C005C006C007900040E004F0E0B40A84
:1014D00021E4F0900034E0FCA3E0FDA3E0FEA3E0F3
:1014E0002401FFE43EFEE43DFDE43CFC90003412A8
:1014F000129ED007D006D005D004D000D0D0D08224
:07150000D083D0F0D0E032EF
:10173200438E805389F0438905C28DE4F58AF58C86
:011742002284
:10174300438E805389F0438901E4F58AF58CC28D79
:011753002273
:10155D00E4FCFDFE900034E0F8A3E0F9A3E0FAA36B
:10156D00E02FF50BEE3AF50AED39F509EC38F508F3
:10157D00900034E0FCA3E0FDA3E0FEA3E0FFAB0B85
:0C158D00AA0AA909A808D312128D50E484
:01159900222F
:04175400F5A07F037A
:0B175800E4FEEEC39F5004000E80F77B
:011763002263
:1015C600E5B0540F44F0F414601714601024FE6064
:1015D6000824FC70107F01800E7F02800A7F038042
:0715E600067F048002E4FF10
:0115ED0022DB
:10169E0053A01FEFF4F5807F01121758E5A0541FD9
:0916AE00448012175453A01F22BE
:10143000EF70047E0180027E00EFD3940840047CAC
:101440000180027C00EC4EFEEDD3940E40047C0142
:1014500080027C00EC4EFEEBD3940140047C0180C2
:10146000027C00EC4E704853A01FEF14FF7401A8DB
:1014700007088002C333D8FCF5807F01121758E5B6
:10148000A0541F44C012175453A01FED901764932B
:10149000F580EB6002C2877F03121758E5A0541F46
:1014A00044E0F5A07F0112155D7580FF53A01F2257
:0A178200C28DE4F58AF58CD28C22AA
:10172000C28CAF8CEFFEAD8AEDFFC28DE4F58AF579
:011730008C2C
:011731002295
:1015EE00EFD39401501FBF01047E108002E4FE531E
:1015FE00A01F8E807F01121758E5A0541F44A01221
:05160E00175453A01F5A
:0116130022B4
:10150700E4FDFBFAFCC28DF58AF58CD28CD2907F74
:101517000C121758C2901217580DBD05F0C28CAFA8
:101527008CEFFEAD8AEDFBEEFA308D047C5D801CFE
:10153700AE02AF03AD07AC06E412115E7B347A80CE
:1015470079B7783A120F3A121197AC07C28DE4F5C2
:051557008AF58CAF04D1
:01155C00226C
:100E4200021203E86480F8E933E83360110460F0C9
:100E5200ED33EC337009E8FCE9FDEAFEEBFF220416
:100E620060DED3EB9FEA9EE99DE8C2E78CF0C2F711
:100E720095F0400CE8CCF8E9CDF9EACEFAEBCFFBDD
:100E82001211CE85D0F05804700320D5B3E8047057
:100E9200075002B2D502120D92D5EC0460F7E4CCF1
:100EA200C0E0C398F8603B94186008400DD0E0FBA6
:100EB2000211E5E4FBFAC9FC8028E830E406E4C943
:100EC200FBE4CAFCE830E305E4C9CACBFCE85407FA
:100ED2006010F8C3E913F9EA13FAEB13FBEC13FC05
:100EE200D8F130F52FC3E49CFCEF9BFFEE9AFEEDA8
:100EF20099FDD0E0FBEF4E4D4C701222DB03021243
:100F02000AEC2CFCEF33FFEE33FEED33FDED30E760
:100F1200EB0211E5EF2BFFEE3AFEED39FDD0E0FBDF
:100F220050130BBB000302120DED13FDEE13FEEF87
:080F320013FFEC13FC0211E5B2
:100F3A00EC4D6011E8497017ED33EC3304600DE4B1
:100F4A00FCFFFEFD22E933E8330470F802120312B3
:100F5A0011CE58046009E4CC2481500628500902B5
:100F6A00120D28400302120AC0E0EB4A7044B9800D
:100F7A0006D0E0FB0211F9EF4E701CBD8008EBFFB2
:100F8A00EAFEE9FD80EBE98DF0A4FEE5F00210230C
:100F9A00E9CDF9EAFEEBFFEF89F0A4FCE5F0CE8992
:100FAA00F0A42EFFE435F0CD89F0A42DFEE435F04F
:100FBA008067EF4E7005BD80D780C3EF8BF0A4AC7D
:100FCA00F0EE8BF0A42CFCE435F0F8EF8AF0A42CB8
:100FDA00E5F038FCE433CB8DF0A42CFCE5F03BF8CB
:100FEA00EE8AF0A42CFCE5F038F8E433CF89F0A4BB
:100FFA002CFCE5F038CF3400CE89F0A42FFFE5F0C1
:10100A003EFEE433C98DF0A42EFEE5F039CD8AF018
:10101A00A42FFFE5F03EFEE43DFD33D0E0FB500790
:10102A000BBB000F02120DEC2CFCEF33FFEE33FE6C
:06103A00ED33FD0211E59B
:1010400002120DEC5D046005E859047003021203FE
:101050001211CE580460F6EC4860F2EC7004FDFE0C
:10106000FF22C860DB2481C85009C3986002500683
:1010700002120A9850CAF582E9294B4A7005AB82E0
:101080000211F975F0007C1A7880C3EF9BEE9AED9F
:1010900099400DC3EF9BFFEE9AFEED99FDE842F0FB
:1010A000DC23ACF0D0E0FFD0E0FED0E0FDAB82204E
:1010B000E7101BEB60BAEC2CFCEF33FFEE33FEEDD8
:1010C00033FD0211E5E803F830E705C0F075F000E4
:1010D000EF2FFFEE33FEED33FD40B830E7C280AABC
:1010E00074F8CC6480CCC86480C8F58204604FC3B7
:1010F000EB9FF5F0EA9E42F0E99D42F0E89C45F056
:10110000603C501DE5825FFFE582D313CB5BCBF4DF
:101110002B5582FB50280ABA002409B90020088008
:101120001DE5825BFBE582D313CF5FCFF4C3132FA2
:101130005582FF50090EBE00050DBD00010CC3EB2A
:101140009FF5F0EA9E42F0E99D42F0E89C45F06090
:0911500007CC4820E701B3EC22B2
:1011590075F020800E75F010800575F0087D007E11
:10116900007F003392D530D50312127FEC33401043
:10117900EF33FFEE33FEED33FDEC33FCD5F0ED221A
:0E118900E5F0247EA2D513CC92E7CDCEFF2256
:10119700EDD2E7CD33EC3392D524814006E4FFFE50
:1011A700FDFC22FCE4CFCECDCC24E0501174FF80AF
:1011B700EDC3CC13CCCD13CDCE13CECF13CF04704C
:0711C700F030D5DE02127FBB
:1011CE00E9D2E7C933E833F892D5EDD2E7CD33EC67
:0711DE0033FC5002B2D522E0
:1011E500EC30E7100FBF000C0EBE00080DBD00046B
:1011F5000BEB6014A2D5EB13FCED92E7FD2274FF17
:10120500FCFDFEFF22E480F8A2D574FF13FC7D806F
:03121500E480EF83
:030000000213A444
:0C13A400787FE4F6D8FD75810B0213EB96
:10121800EF8DF0A4A8F0CF8CF0A428CE8DF0A42EEA
:02122800FE22A4
:10122A00BC000BBE0029EF8DF084FFADF022E4CCA8
:10123A00F875F008EF2FFFEE33FEEC33FCEE9DEC71
:10124A00984005FCEE9DFE0FD5F0E9E4CEFD22EDB7
:10125A00F8F5F0EE8420D21CFEADF075F008EF2F01
:10126A00FFED33FD4007985006D5F0F222C398FDF2
:05127A000FD5F0EA228F
:0E127F00C3E49FFFE49EFEE49DFDE49CFC2280
:10128D00EB9FF5F0EA9E42F0E99D42F0E89C45F0B7
:01129D00222E
:0C129E00ECF0A3EDF0A3EEF0A3EFF022C3
:1012AA00A8828583F0D083D0821212C11212C11291
:1012BA0012C11212C1E473E493A3C583C5F0C583B6
:1012CA00C8C582C8F0A3C583C5F0C583C8C582C88E
:0112DA0022F1
:1013B00002001EE493A3F8E493A34003F68001F235
:1013C00008DFF48029E493A3F85407240CC8C3333E
:1013D000C4540F4420C8834004F456800146F6DF0D
:1013E000E4800B01020408102040809012DBE47EB0
:1013F000019360BCA3FF543F30E509541FFEE49302
:10140000A360010ECF54C025E060A840B8E493A3C8
:10141000FAE493A3F8E493A3C8C582C8CAC583CAF3
:10142000F0A3C8C582C8CAC583CADFE9DEE780BEAB
:0113A3000049
:00000001FF
