:0C0DD800C0F9A4B0999282F88090BFFF8F
:100AE10044002800000000410022004100120041A2
:100AF10000050044000600000000410027004100FD
:100B01002C0041002D004100230041002F00410035
:100B110026004100250044000A0000000041002495
:100B21000A440001000000004400310000000041BF
:100B31000010004A00170000000000000000000043
:100B410041002E004100350041000000410021001C
:100B510042000E000044001300000000410011009B
:040B6100410030001F
:10001E00120DB8D2AF7B327D3B7F1712082BE4FF57
:10002E00120D9F900023E07028900027E07022129E
:10003E000D7590002CEFF0900028E0FCA3E0FDA3DE
:10004E00E0FEA3E0FF90000612081F900027740147
:10005E00F0900023E07047900027E0B4014090003C
:10006E0006E0F8A3E0F9A3E0FAA3E0FB900028E095
:10007E00FCA3E0FDA3E0FEA3E0C39BFFEE9AFEED22
:10008E0099FDEC98FCE47B19FAF9F8C312080E50AE
:10009E000D120D7590002DEFF0E4900027F09000FA
:1000AE0023E0701A90002DE0FF90002CE0FEB507C3
:1000BE000D600B9000237401F090002FEEF0900075
:1000CE0023E0B40113120D75EF700D90002FE09028
:1000DE000026F0E4900023F0900025E07026A3E0C7
:1000EE00B40111900021E004F0E0B40402E4F0E465
:1000FE00900026F0900026E0B402099000257401CD
:10010E00F0E4A3F0900025E06402703AA3E0B4039B
:10011E0019900000E004F0E0B40A02E4F0E490006C
:10012E0011F0900030F0900026F0900026E0B4041C
:10013E0015E4900025F0900011F0900030F0900042
:10014E0000F0900026F0900021E014600C14601571
:10015E0014601E24037026802490000E7413F0A3E6
:10016E007488F0802290000E7475F0A37430F080C5
:10017E001690000E74EAF0A37460F0800A90000EE0
:10018E007403F0A374E8F0900010E0702A9000253C
:10019E00E0B40123900035E0701D120DCB900010DD
:1001AE007401F0900028E0FCA3E0FDA3E0FEA3E0C4
:1001BE00FF90003112081F900010E06401706E90E5
:1001CE000025E064017066900031E0F8A3E0F9A329
:1001DE00E0FAA3E0FB900028E0FCA3E0FDA3E0FE24
:1001EE00A3E0C39BFBEE9AFAED99F9EC98F8900018
:1001FE000EE0FEA3E0FFE4FCFDD312080E402E90AD
:10020E000035E0702812094B90002EE02417F5827D
:10021E00E43400F583EFF090002EE004F0E0B40A31
:10022E0007E4F090003504F0E4900010F0900035F3
:10023E00E0B401109000257402F090001114F0E467
:10024E00900035F0900025E0B4014B90000AE0F8E4
:10025E00A3E0F9A3E0FAA3E0FB900028E0FCA3E002
:10026E00FDA3E0FEA3E0C39BFFEE9AFEED99FDEC2D
:10027E0098FCE47BF47A01F9F8C312080E501712B9
:10028E000CBF900028E0FCA3E0FDA3E0FEA3E0FF7E
:10029E0090000A12081F900025E06401705A900029
:1002AE0001E0F8A3E0F9A3E0FAA3E0FB900028E058
:1002BE00FCA3E0FDA3E0FEA3E0C39BFFEE9AFEEDE0
:1002CE0099FDEC98FCE47BE87A03F9F8C312080E6A
:1002DE005026900024E0B40B05740AF080069000BE
:1002EE0024740BF0900028E0FCA3E0FDA3E0FEA335
:1002FE00E0FF90000112081F900011E06401705998
:10030E00900013E0F8A3E0F9A3E0FAA3E0FB90005D
:10031E0028E0FCA3E0FDA3E0FEA3E0C39BFFEE9A62
:10032E00FEED99FDEC98FCE47B907A01F9F8C3128E
:10033E00080E5025900030E0B40104E4F0800690E1
:10034E0000307401F0900028E0FCA3E0FDA3E0FE75
:10035E00A3E0FF90001312081F900030E05401FF3D
:10036E00120D9F900025E014607B14700302046947
:10037E00240260030204E6E4FB7D0B7F01120B6690
:10038E00E4FB7D0B7F02120B66E4FB7D0B7F0312F9
:10039E000B66E4FB7D0B7F04120B66E4FB7D0B7F8B
:1003AE0005120B66E4FB7D0A7F06120B6690000EAB
:1003BE00E0FEA3E0FF7C037DE81207AB7C007D0A24
:1003CE001207ABAD07E4FB7F07120B6690000EE041
:1003DE00FEA3E0FF7C037DE81207AB7C007D0A12D2
:1003EE0007AB0204DC900022E075F00A84FDE4FB0A
:1003FE007F01120B66900022E075F00A84ADF0E4E6
:10040E00FB7F02120B66900024E0FDE4FB7F0312DB
:10041E000B66900012E075F00A84FDE4FB7F041277
:10042E000B66900012E075F00A84ADF0E4FB7F05D8
:10043E00120B66900024E0FDE4FB7F06120B669023
:10044E000005E075F00A84FDE4FB7F07120B669051
:10045E000005E075F00A84ADF08073E4FB7D0A7F41
:10046E0001120B66900000E075F00A84FDE4FB7F3C
:10047E0002120B66900000E075F00A84ADF0E4FB0A
:10048E007F03120B66E4FB7D0B7F04120B66E4FB0D
:10049E007D0B7F05120B66E4FB7D0A7F06120B6651
:1004AE00900000E02417F582E43400F583E075F047
:1004BE000A84FDE4FB7F07120B66900000E0241710
:1004CE00F582E43400F583E075F00A84ADF0E4FBC8
:1004DE007F08120B66020031E4900025F002003115
:0409D5008F0B8D0CEB
:1009D900E4F50DC293C2A3C297D2937F0AFE120017
:1009E90009E4F50DAF0DE50BA807088002C313D87C
:1009F900FC1392A37F057E00120009D2977F057E22
:100A090000120009C2977F017E00120009050DE559
:100A19000DC3940840CEE4F50DAF0DE50CA8070809
:100A29008002C313D8FC1392A37F057E001200092C
:100A3900D2977F057E00120009C2977F017E0012BE
:100A49000009050DE50DC3940840CEC293C2A3C2A7
:010A59009705
:010A5A002279
:020A5B008F0802
:100A5D00E4F509F50AC293C2A3C297D2937F0AFEA9
:100A6D00120009E4F509AF09E508A807088002C3DB
:100A7D0013D8FC1392A37F057E00120009C2977F45
:100A8D00057E00120009D2977F017E001200090534
:100A9D0009E509C3940840CED2A37F017E00120060
:100AAD0009E4F509E50AC313F50AD2977F037E0021
:100ABD00120009C2977F017E0012000930A3034383
:100ACD000A800509E509C3940840D9C293C2A3C29F
:030ADD0097AF0AC6
:010AE00022F3
:100D3E00E4F50FD2947F0AFE120009C2947F087E5A
:100D4E0002120009D2947F397E00120009A294E4A7
:100D5E0033F50F70047F0180027F008F0F7FC87EF6
:060D6E0000120009AF0FA6
:010D7400225C
:020BE4008F0F71
:100BE600E4F510D2947F0AFE120009E4F510AF1066
:100BF600E50FA807088002C313D8FC30E00FC294A3
:100C06007F067E00120009D2947F37800DC2947F42
:100C16003C7E00120009D2947F057E001200090571
:0A0C260010E510C3940840C6D294F4
:010C300022A1
:100C7C00E4F50FF510D2947F0AFE120009E4F50F8B
:100C8C00E510C313F510C2947F027E00120009D246
:100C9C00947F087E001200093094034310807F3744
:100CAC007E00120009050FE50FC3940840D2D294C0
:020CBC00AF1077
:010CBE002213
:06082B008F088D098B0A05
:10083100E509D3943B40047F0180027F00E508D3A2
:10084100941740047E0180027E00EE4FFFE50AD33B
:10085100943B40047E0180027E00EE4F705FE4FD18
:100861007F8E1209D5E50875F00A84C454F0FFE5BE
:100871000875F00A84E5F0540F4FFD7F841209D505
:10088100E50975F00A84C454F0FFE50975F00A849E
:10089100E5F0540F4FFD7F821209D5E50A75F00A84
:1008A10084C454F0FFE50A75F00A84E5F0540F4F53
:0D08B100FD7F801209D57D807F8E1209D554
:0108BE002217
:100CBF007F81120A5BEFC4540F75F00AA4FEEF5444
:100CCF000F2E900005F07F83120A5BEFC4540F754F
:100CDF00F00AA4FEEF540F2E900012F07F85120A37
:100CEF005BEFC4540F75F00AA4FEEF540F2E900063
:020CFF0022F0E1
:010D010022CF
:0D0DCB00120D3E7FCC120BE47F44020BE4BE
:10094B00E4F508FFF509F50AF50EF50DF50CF50BB9
:10095B00120D3E7FCC120BE47FBE120BE4120C7C0B
:10096B008F08120C7CEFF509E508F50AE50930E76D
:10097B0011E50AF4FFE509F4FEEF2401F50AE43E64
:10098B00F5097C00E50A540FFDE41206F1E4FBFACD
:10099B007980783D1205E6C004C005C006C007E5A6
:1009AB0009C4F854F0C8E50AC4540F487C00FDE4B0
:1009BB001206F1D003D002D001D0001204F58F0E35
:0909CB008E0D8D0C8C0B12072A15
:0109D4002200
:100DB800438E4053890F758BCD758DD4C28FD28EDB
:030DC800D2AB2289
:03001B00020C31A3
:100C3100C0E0C0F0C083C082C0D075D000C000C089
:100C410004C005C006C007900028E0FCA3E0FDA396
:100C5100E0FEA3E02401FFE43EFEE43DFDE43CFCB4
:100C610090002812081FD007D006D005D004D0006C
:0B0C7100D0D0D082D083D0F0D0E03291
:100D0200E4FCFD900028E0F8A3E0F9A3E0FAA3E0F8
:100D12002FF50BEA3EF50AED39F509EC38F50890A6
:100D22000028E0FCA3E0FDA3E0FEA3E0FFAB0BAADA
:0B0D32000AA909A808D312080E50E41B
:010D3D002293
:06000300F5807F017E0084
:10000900E4FDFCC3ED9FEC9E50070DBD00010C8083
:01001900F2F4
:01001A0022C3
:100D9F0053A01FEFF4120003E5A0541F4480F5A0E9
:090DAF007F0312000953A01F226A
:100B6600AA05EF70047E0180027E00EFD394084050
:100B7600047D0180027D00ED4EFEEAD3940B400415
:100B86007D0180027D00ED4EFEEBD3940140047D95
:100B96000180027D00ED4E704453A01FEF14FF74D8
:100BA60001A807088002C333D8FC120003E5A0544D
:100BB6001F44C0F5A07F0312000953A01FEA900D41
:100BC600D893F580EB6002C287120005E5A0541F9A
:0E0BD60044E0F5A0120D027580FF53A01F220F
:100D7500D2C4E5B0540F24F5600F24FE600F146053
:100D850010240770107E01800E7E02800A7E03808B
:090D9500067E048002E4FEAF06B4
:010D9E002232
:1004EE00020796E86480F8E933E83360110460F09F
:1004FE00ED33EC337009E8FCE9FDEAFEEBFF220474
:10050E0060DED3EB9FEA9EE99DE8C2E78CF0C2F76E
:10051E0095F0400CE8CCF8E9CDF9EACEFAEBCFFB3A
:10052E0012076185D0F05804700320D5B3E804702B
:10053E00075002B2D50207A092D5EC0460F7E4CCC6
:10054E00C0E0C398F8603B94186008400DD0E0FB03
:10055E00020778E4FBFAC9FC8028E830E406E4C917
:10056E00FBE4CAFCE830E305E4C9CACBFCE8540757
:10057E006010F8C3E913F9EA13FAEB13FBEC13FC62
:10058E00D8F130F52FC3E49CFCEF9BFFEE9AFEED05
:10059E0099FDD0E0FBEF4E4D4C701222DB030207AB
:1005AE009DEC2CFCEF33FFEE33FEED33FDED30E72B
:1005BE00EB020778EF2BFFEE3AFEED39FDD0E0FBB4
:1005CE0050130BBB00030207A0ED13FDEE13FEEF5D
:0805DE0013FFEC13FC02077887
:1005E600EC4D6011E8497017ED33EC3304600DE40F
:1005F600FCFFFEFD22E933E8330470F80207961289
:10060600076158046009E4CC248150062850090289
:1006160007A028400302079DC0E0EB4A7044B9805A
:1006260006D0E0FB02078CEF4E701CBD8008EBFF86
:10063600EAFEE9FD80EBE98DF0A4FEE5F00206CFC7
:10064600E9CDF9EAFEEBFFEF89F0A4FCE5F0CE89EF
:10065600F0A42EFFE435F0CD89F0A42DFEE435F0AC
:100666008067EF4E7005BD80D780C3EF8BF0A4ACDA
:10067600F0EE8BF0A42CFCE435F0F8EF8AF0A42C15
:10068600E5F038FCE433CB8DF0A42CFCE5F03BF828
:10069600EE8AF0A42CFCE5F038F8E433CF89F0A418
:1006A6002CFCE5F038CF3400CE89F0A42FFFE5F01E
:1006B6003EFEE433C98DF0A42EFEE5F039CD8AF076
:1006C600A42FFFE5F03EFEE43DFD33D0E0FB5007EE
:1006D6000BBB000F0207A0EC2CFCEF33FFEE33FE42
:0606E600ED33FD02077870
:1006EC0075F020800E75F010800575F0087D007E89
:1006FC00007F003392D530D503120800EC33401044
:10070C00EF33FFEE33FEED33FDEC33FCD5F0ED2291
:0E071C00E5F0247EA2D513CC92E7CDCEFF22CD
:10072A00EDD2E7CD33EC3392D524814006E4FFFEC7
:10073A00FDFC22FCE4CFCECDCC24E0501174FF8026
:10074A00EDC3CC13CCCD13CDCE13CECF13CF0470C3
:07075A00F030D5DE020800BB
:10076100E9D2E7C933E833F892D5EDD2E7CD33ECDE
:0707710033FC5002B2D52257
:10077800EC30E7100FBF000C0EBE00080DBD0004E2
:100788000BEB6014A2D5EB13FCED92E7FD2274FF8E
:10079800FCFDFEFF22E480F8A2D574FF13FC7D80E7
:0307A800E480EFFB
:030000000208BF34
:0C08BF00787FE4F6D8FD75811002090670
:1007AB00BC000BBE0029EF8DF084FFADF022E4CC32
:1007BB00F875F008EF2FFFEE33FEEC33FCEE9DECFB
:1007CB00984005FCEE9DFE0FD5F0E9E4CEFD22ED41
:1007DB00F8F5F0EE8420D21CFEADF075F008EF2F8B
:1007EB00FFED33FD4007985006D5F0F222C398FD7C
:0507FB000FD5F0EA2219
:0E080000C3E49FFFE49EFEE49DFDE49CFC2209
:10080E00EB9FF5F0EA9E42F0E99D42F0E89C45F040
:01081E0022B7
:0C081F00ECF0A3EDF0A3EEF0A3EFF0224C
:1008CB0002001EE493A3F8E493A34003F68001F225
:1008DB0008DFF48029E493A3F85407240CC8C3332E
:1008EB00C4540F4420C8834004F456800146F6DFFD
:1008FB00E4800B0102040810204080900AE1E47EA2
:10090B00019360BCA3FF543F30E509541FFEE493F1
:10091B00A360010ECF54C025E060A840B8E493A3B8
:10092B00FAE493A3F8E493A3C8C582C8CAC583CAE3
:10093B00F0A3C8C582C8CAC583CADFE9DEE780BE9B
:010B6500008F
:00000001FF
