:102476000126000128000127004600000000000098
:10248600000046003C000000000000410039004109
:102496000025004100140041003A0041003B004184
:1024A6000043004100060041002600410023004190
:1024B60000240044003141C8000044000740A00049
:1024C60000440045000000004100130048000B00D6
:1024D600000000000000004100300041002E0041D5
:1024E6000028004100270044004941200000440024
:1024F6004D42480000440035000000004800150029
:10250600000000000000004100440041002B004193
:10251600002F00410053FF4100520041002C0042B1
:102526000029000041002D0046001D0000000000AB
:0F253600004100510041004200011C00011D0046
:10000E0012325912326CD2AF12328EE4FDFF122F21
:10001E0087E4FF123158E4FBFDFF122E82122AF400
:10002E007826EFF6BF02047F0180027F007826E675
:10003E00FEB401047D0180027D00ED4FFFEEB4039E
:10004E00047E0180027E00EE4FFF7826E6FEB404A9
:10005E00047D0180027D00ED4FFFEEB405047E01AC
:10006E0080027E00EE4F600C7826E67828F6E47863
:10007E0026F68015E47828F6FB7D0C7F011229C543
:10008E00E4FB7D017F021229C57828E624FE700369
:10009E000205641470030205A61470030209CC1441
:1000AE007003020DF2240460030212F390003AE092
:1000BE0060047F0180027F00EFC4333333548044E9
:1000CE0001FF123158122AF47826EFF6BF0E047F84
:1000DE000180027F007826E6FEB40D047D018002C9
:1000EE007D00ED4FFFEEB40F047E0180027E00EE28
:1000FE004FFF7826E6FEB410047D0180027D00EDF0
:10010E004F60097827A606E418F680237826E6B411
:10011E000108E4F690003B020611E47827F6FB7D19
:10012E000C7F011229C5E4FB7D027F021229C578DE
:10013E0027E624F2603714606914700302037624F4
:10014E0003600302055D122AF47826EFF6BF020E55
:10015E00E490003BF0FDFF122F87E47826F6782618
:10016E00E6B4010280257FF41228CF80D9122AF43A
:10017E007826EFF6BF020EE490003BF0FDFF122F43
:10018E0087E47826F67826E6B4010EE4F690003B76
:10019E00F0FDFF122F870200D37F967E00121E0401
:1001AE0080CB1230E6E4900043F0782BE6FF75F03A
:1001BE000A84900000F0EF75F00A84A3E5F0F07861
:1001CE002AE6FF75F00A84A3F0EF75F00A84A3E522
:1001DE00F0F07829E6FF75F00A84A3F0EF75F00AC7
:1001EE0084A3E5F0F0122AF47826EFF6BF0B1090F8
:1001FE000043E004F0E0B40602E4F0E47826F6787A
:10020E0026E6FFD394004019EF940B5014EF14FF21
:10021E00900043E02400F582E43400F583EFF0E42F
:10022E00F67826E6B40C05E4F60202C790003AE032
:10023E006016900043E0FF7401A807088002C333E4
:10024E00D8FC4480FF123158900043E0FF7401A89F
:10025E0007088002C333D8FCFF123158900000E02B
:10026E00FDE4FB7F011229C5900001E0FDE4FB7F58
:10027E00021229C5E4FB7D107F031229C5900002EE
:10028E00E0FDE4FB7F041229C5900003E0FDE4FBD2
:10029E007F051229C5E4FB7D107F061229C590004B
:1002AE0004E0FDE4FB7F071229C5900005E0FDE4A4
:1002BE00FB7F081229C50201F390003AE05401C4F5
:1002CE0033333354804401FF123158900000E0FF65
:1002DE0075F00AA4FEA3E0FD2E782BF6A3E075F0D0
:1002EE000AA4FEA3E02E782AF6A3E075F00AA4FE77
:1002FE00A3E02E7829F6EF75F00AA47C002DFFEC12
:10030E0035F0FED3EF9417EE648094804004782B82
:10031E007617900002E075F00AA4FFA3E07C002F90
:10032E00FFEC35F0FED3EF943BEE648094804004F6
:10033E00782A763B900004E075F00AA4FFA3E07CD7
:10034E00002FFFEC35F0FED3EF943BEE64809480EB
:10035E0040047829763B782BE6FF782AE6FD78294B
:10036E00E6FB122E820200D3E4900043F090003997
:10037E00E0FF75F00A8490003CF0EF75F00A84A35C
:10038E00E5F0F0900025E0FF75F00A8490003EF055
:10039E00EF75F00A84A3E5F0F0900014E0FF75F01D
:1003AE000A84900040F0EF75F00A84A3E5F0F01295
:1003BE002AF47826EFF6BF0B10900043E004F0E02D
:1003CE00B40602E4F0E47826F67826E6FFD394002D
:1003DE004019EF940B5014EF14FF900043E0243CAF
:1003EE00F582E43400F583EFF0E4F67826E6FFB408
:1003FE000C05E4F60204ADEFB40D15E47826F69084
:10040E00003AE070047F0180027F0090003AEFF026
:10041E0090003AE06016900043E0FF7401A80708D0
:10042E008002C333D8FC44C0FF123158900043E021
:10043E00FF7401A807088002C333D8FC4440FF12A2
:10044E00315890003CE0FDE4FB7F011229C590007D
:10045E003DE0FDE4FB7F021229C5E4FB7D107F0326
:10046E001229C590003EE0FDE4FB7F041229C590E1
:10047E00003FE0FDE4FB7F051229C5E4FB7D107F04
:10048E00061229C5900040E0FDE4FB7F071229C546
:10049E00900041E0FDE4FB7F081229C50203BD90E8
:1004AE00003AE05401C433333354804401FF123117
:1004BE005890003CE0FC75F00AA4FEA3E0FD2E90DF
:1004CE000039F090003EE075F00AA4FFA3E02F90F3
:1004DE000025F0900040E075F00AA4FFA3E02F90F5
:1004EE000014F0EC75F00AA47C002DFFEC35F0FE44
:1004FE00D3EF9417EE648094804006900039741701
:10050E00F090003EE075F00AA4FFA3E07C002FFF00
:10051E00EC35F0FED3EF943BEE6480948040069071
:10052E000025743BF0900040E075F00AA4FFA3E0B4
:10053E007C002FFFEC35F0FED3EF943BEE648094FD
:10054E008050030200D3900014743BF00200D3E4F9
:10055E007826F60200D37F02123158900006743CC2
:10056E00F0122AF47826EFF6D394004015E6FF94A5
:10057E000B500FEF75F00AA42432900006F0E4F64B
:10058E0080DF7826E6700A900006E0FF122B878047
:10059E00D0E47826F6020E73900013E02404FF7464
:1005AE0001A807088002C333D8FC4404FF9000233F
:1005BE00E05401FEC433333354804FFF12315812CE
:1005CE002AF47826EFF6BF0E047F0180027F0078B2
:1005DE0026E6FEB40D047D0180027D00ED4FFFEE98
:1005EE00B40F047E0180027E00EE4F600B7826E68B
:1005FE00900026F0E4F6802B7826E6B4010FE4F6A0
:10060E00900024F0FDFF122F87E4020E73E4900099
:10061E0026F0FB7D0C7F011229C5E4FB7D037F02D2
:10062E001229C5900026E024F2601F14603A2402BD
:10063E0060030209C5122AF47826EFF6BF01028084
:10064E00137F5A7E0012174480EB122AF47826EF9D
:10065E00F6BF010DE4900024F0FDFF122F87020972
:10066E00C57FE81220E980E2E4900030F0900007A8
:10067E00E0FCA3E0FDA3E0FEA3E0FF1215AFAB0785
:10068E00AA067C007D0A12163090000BEFF07C005B
:10069E007D0AAF03AE02121630A3EDF0E4FFFE7D2D
:1006AE00207C41900007E0F8A3E0F9A3E0FAA3E074
:1006BE00FB1213F21215AF7C007D0A121630900059
:1006CE000DEDF0E4FFFE7DC87C42900007E0F8A33C
:1006DE00E0F9A3E0FAA3E0FB1213F21215AF7C00CF
:1006EE007D0A12163090000EEDF0900031E0FCA362
:1006FE00E0FDA3E0FEA3E0FF1215AFAB07AA067C58
:10070E00007D0A12163090000FEFF07C007D0AAFCC
:10071E0003AE02121630A3EDF0E4FFFE7D207C4105
:10072E00900031E0F8A3E0F9A3E0FAA3E0FB121386
:10073E00F21215AF7C007D0A121630900011EDF00A
:10074E00E4FFFE7DC87C42900031E0F8A3E0F9A3FF
:10075E00E0FAA3E0FB1213F21215AF7C007D0A1231
:10076E001630900012EDF0122AF47826EFF6D3949C
:10077E0000401AE6FF940B5014EF14FF900030E087
:10078E00240BF582E43400F583EFF0E4F67826E6E8
:10079E00B40B10900030E004F0E0B40802E4F0E492
:1007AE007826F67826E6FFB40C05E4F6020863EF29
:1007BE00B40D15E47826F6900023E070047F0180D6
:1007CE00027F00900023EFF07826E6B40E10900022
:1007DE0013E004F0E0B40302E4F0E47826F69000AF
:1007EE0030E0FF7401A807088002C333D8FCFF1263
:1007FE00315890000BE0FDE4FB7F011229C59000FB
:10080E000CE0FD7B017F021229C590000DE0FDE496
:10081E00FB7F031229C590000EE0FDE4FB7F04125E
:10082E0029C590000FE0FDE4FB7F051229C590005D
:10083E0010E0FD7B017F061229C5900011E0FDE45A
:10084E00FB7F071229C5900012E0FDE4FB7F081222
:10085E0029C5020775900013E02404FF7401A80750
:10086E00088002C333D8FC4404FF900023E05401F7
:10087E00FEC433333354804FFF12315890000DE0D5
:10088E00FCE412157B7BCD7ACC79CC783D1213F239
:10089E00C004C005C006C00790000BE075F00AA4A6
:1008AE00FFA3E07C002FFDEC35F0FCE4121576D0B2
:1008BE0003D002D001D000121301C004C005C0063F
:1008CE00C00790000EE0FCE412157B7B0A7AD77904
:1008DE0023783C1213F2D003D002D001D0001213B1
:1008EE00019000071216AA900011E0FCE412157B8D
:1008FE007BCD7ACC79CC783D1213F2C004C005C002
:10090E0006C00790000FE075F00AA4FFA3E07C007C
:10091E002FFDEC35F0FCE4121576D003D002D00199
:10092E00D000121301C004C005C006C0079000120B
:10093E00E0FCE412157B7B0A7AD77923783C1213FC
:10094E00F2D003D002D001D0001213019000311268
:10095E0016AA900031E0FCA3E0FDA3E0FEA3E0FFA9
:10096E00900007E0F8A3E0F9A3E0FAA3E0FB12146D
:10097E00F8600250030205CD900031E0FCA3E0FDCB
:10098E00A3E0FEA3E0FF9000451216AA900007E038
:10099E00FCA3E0FDA3E0FEA3E0FF9000311216AA37
:1009AE00900045E0FCA3E0FDA3E0FEA3E0FF900075
:1009BE00071216AA0205CDE47826F60205CD9000A0
:1009CE0027E02404FF7401A807088002C333D8FC73
:1009DE004408FF900028E05401FEC43333335480A2
:1009EE004FFF123158122AF47826EFF6BF0E047F0D
:1009FE000180027F007826E6FEB40D047D018002A0
:100A0E007D00ED4FFFEEB40F047E0180027E00EEFE
:100A1E004F600B7826E690002EF0E4F6802B7826B9
:100A2E00E6B4010FE4F690002BF0FDFF122F87E4E1
:100A3E00020E73E490002EF0FB7D0C7F011229C58F
:100A4E00E4FB7D047F021229C590002EE024F260A3
:100A5E002114603C24026003020DEB122AF4782666
:100A6E00EFF6BF0106E490002480157F64121AAAE7
:100A7E0080E9122AF47826EFF6BF010DE490002BE0
:100A8E00F0FDFF122F87020DEB7F5A1222B080E28B
:100A9E00E4900044F0900049E0FCA3E0FDA3E0FEEA
:100AAE00A3E0FF1215AFAB07AA067C007D0A121653
:100ABE0030900015EFF07C007D0AAF03AE021216E7
:100ACE0030A3EDF0E4FFFE7D207C41900049E0F87C
:100ADE00A3E0F9A3E0FAA3E0FB1213F21215AF7C28
:100AEE00007D0A121630900017EDF0E4FFFE7DC86F
:100AFE007C42900049E0F8A3E0F9A3E0FAA3E0FB02
:100B0E001213F21215AF7C007D0A121630900018E7
:100B1E00EDF090004DE0FCA3E0FDA3E0FEA3E0FFAE
:100B2E001215AFAB07AA067C007D0A121630900094
:100B3E0019EFF07C007D0AAF03AE02121630A3ED62
:100B4E00F0E4FFFE7D207C4190004DE0F8A3E0F93B
:100B5E00A3E0FAA3E0FB1213F21215AF7C007D0A9C
:100B6E0012163090001BEDF0E4FFFE7DC87C429023
:100B7E00004DE0F8A3E0F9A3E0FAA3E0FB1213F2B4
:100B8E001215AF7C007D0A12163090001CEDF0128B
:100B9E002AF47826EFF6D39400401AE6FF940B5011
:100BAE0014EF14FF900044E02415F582E43400F5B0
:100BBE0083EFF0E4F67826E6B40B10900044E004E0
:100BCE00F0E0B40802E4F0E47826F67826E6FFB406
:100BDE000C05E4F6020C8BEFB40D15E47826F690B6
:100BEE000028E070047F0180027F00900028EFF063
:100BFE007826E6B40E10900027E004F0E0B403026D
:100C0E00E4F0E47826F6900044E0FF7401A80708AB
:100C1E008002C333D8FCFF123158900015E0FDE47A
:100C2E00FB7F011229C5900016E0FD7B017F0212A9
:100C3E0029C5900017E0FDE4FB7F031229C5900043
:100C4E0018E0FDE4FB7F041229C5900019E0FDE4D5
:100C5E00FB7F051229C590001AE0FD7B017F06126D
:100C6E0029C590001BE0FDE4FB7F071229C590000B
:100C7E001CE0FDE4FB7F081229C5020B9D900027A6
:100C8E00E02404FF7401A807088002C333D8FC4493
:100C9E0008FF900028E05401FEC433333354804FD4
:100CAE00FF123158900017E0FCE412157B7BCD7AD1
:100CBE00CC79CC783D1213F2C004C005C006C00733
:100CCE00900015E075F00AA4FFA3E07C002FFDEC68
:100CDE0035F0FCE4121576D003D002D001D000120C
:100CEE001301C004C005C006C007900018E0FCE464
:100CFE0012157B7B0A7AD77923783C1213F2D00334
:100D0E00D002D001D0001213019000491216AA9001
:100D1E00001BE0FCE412157B7BCD7ACC79CC783DC0
:100D2E001213F2C004C005C006C007900019E0758A
:100D3E00F00AA4FFA3E07C002FFDEC35F0FCE412DA
:100D4E001576D003D002D001D000121301C004C01A
:100D5E0005C006C00790001CE0FCE412157B7B0A60
:100D6E007AD77923783C1213F2D003D002D001D077
:100D7E000012130190004D1216AA90004DE0FCA334
:100D8E00E0FDA3E0FEA3E0FF900049E0F8A3E0F948
:100D9E00A3E0FAA3E0FB1214F8600250030209F379
:100DAE0090004DE0FCA3E0FDA3E0FEA3E0FF900069
:100DBE00351216AA900049E0FCA3E0FDA3E0FEA3C5
:100DCE00E0FFA31216AA900035E0FCA3E0FDA3E01D
:100DDE00FEA3E0FF9000491216AA0209F3E478265A
:100DEE00F60209F3900029A3E02404FF7401A8077A
:100DFE00088002C333D8FCFF90002CE05401FEC4DF
:100E0E0033333354804FFF123158122AF47826EFC1
:100E1E00F6BF0E047F0180027F007826E6FEB40D39
:100E2E00047D0180027D00ED4FFFEEB40F047E01C4
:100E3E0080027E00EE4FFF7826E6FEB410047D01A0
:100E4E0080027D00ED4F600B90002FEEF0E47826CF
:100E5E00F6802F7826E6B40113E4F690002DF0FD0F
:100E6E00FF122F87E4FF12315802002BE490002F5F
:100E7E00F0FB7D0C7F011229C5E4FB7D057F02127C
:100E8E0029C590002FE024F26025146042147003EF
:100E9E00021119240360030212EC122AF47826EFD1
:100EAE00F6BF010280137D057F0112259A80EB1299
:100EBE002AF47826EFF6BF010DE490002DF0FDFF29
:100ECE00122F870212EC7D057F0212259A80E0E434
:100EDE00900051F0A3E0FF75F0648475F00A8490E1
:100EEE00001DE5F0F0EF75F00A8475F00A84A3E5B5
:100EFE00F0F0900052E075F00A8490001FE5F0F0DB
:100F0E00900053E0FF75F0648475F00A8490002021
:100F1E00E5F0F0EF75F00A8475F00A84A3E5F0F0C1
:100F2E00900053E075F00A84900022E5F0F0122A4A
:100F3E00F47826EFF6D39400401AE6FF940B501483
:100F4E00EF14FF900051E0241DF582E43400F58388
:100F5E00EFF0E4F67826E6B40B10900051E004F0C2
:100F6E00E0B40602E4F0E47826F67826E6FFB40C48
:100F7E0005E4F6021038EFB40D15E47826F690006D
:100F8E002CE070047F0180027F0090002CEFF0783F
:100F9E0026E6B40E2490002AE004F0700690002994
:100FAE00E004F0900029E07004A3E0640370069062
:100FBE000029F0A3F0E47826F6900051E0FF7401CA
:100FCE00A807088002C333D8FCFF123158E4FB7D1A
:100FDE00107F011229C590001DE0FDE4FB7F021277
:100FEE0029C590001EE0FDE4FB7F031229C5900089
:100FFE001FE0FDE4FB7F041229C5E4FB7D107F0595
:10100E001229C5900020E0FDE4FB7F061229C59051
:10101E000021E0FDE4FB7F071229C5900022E0FDD0
:10102E00E4FB7F081229C5020F3C900029A3E0249F
:10103E0004FF7401A807088002C333D8FCFF900098
:10104E002CE05401FEC433333354804FFF12315819
:10105E00900021E0F975F00AA4FDACF0900020E0BC
:10106E00FB75F064A42DFFE5F03CFE900022E0FD40
:10107E007583002FFFE5833EFED3EF94FFEE648071
:10108E009480400890005374FFF08011E975F00AC7
:10109E00A4FFEB75F064A42F2D900053F090001E6A
:1010AE00E0F975F00AA4FDACF090001DE0FB75F0C0
:1010BE0064A42DFFE5F03CFE90001FE0FD7583005B
:1010CE002FFFE5833EFED3EF94FFEE6480948040C5
:1010DE000890005274FFF08011E975F00AA4FFEB3E
:1010EE0075F064A42F2D900052F0900053E0FF9005
:1010FE000052E0FED39F5003020E18900042EEF015
:10110E00900052EFF0A3EEF0020E18E4900051F0B2
:10111E00E51C75F0648475F00A8490001DE5F0F00E
:10112E00E51C75F00A8475F00A84A3E5F0F0E51C61
:10113E0075F00A84A3E5F0F0122AF47826EFF6D3C0
:10114E009400401AE6FF940B5014EF14FF900051D8
:10115E00E0241DF582E43400F583EFF0E4F6782602
:10116E00E6B40B10900051E004F0E0B40302E4F09A
:10117E00E47826F67826E6FFB40C05E4F60212763D
:10118E00EF640D707B7826F6122AF47826A607E413
:10119E00FF122EE78F1DE4FB7D0E7F011229C5E4A1
:1011AE00FB7D0F7F021229C5E4FB7D107F03122900
:1011BE00C5E4FB7D107F041229C5E4FB7D107F057D
:1011CE001229C5E51D75F0648475F00A84ADF0E44E
:1011DE00FB7F061229C5E51D75F00A8475F00A8499
:1011EE00ADF0E4FB7F071229C5E51D75F00A84AD4D
:1011FE00F0E4FB7F081229C57826E664017089F6B3
:10120E00900051E0FF7401A807088002C333D8FC98
:10121E00FF123158E4FB7D0E7F011229C5E4FB7DE0
:10122E000A7F021229C5E4FB7D107F031229C5E453
:10123E00FB7D107F041229C5E4FB7D107F0512296A
:10124E00C590001DE0FDE4FB7F061229C590001E2F
:10125E00E0FDE4FB7F071229C590001FE0FDE4FBD3
:10126E007F081229C5021146900029A3E02404FF2D
:10127E007401A807088002C333D8FCFF90002CE04D
:10128E005401FEC433333354804FFF123158900053
:10129E001EE0F975F00AA4FDACF090001DE0FB75A0
:1012AE00F064A42DFFE5F03CFE90001FE0FD758379
:1012BE00002FFFE5833EFED3EF94FFEE6480948013
:1012CE004005751CFF800FE975F00AA4FFEB75F061
:1012DE0064A42F2DF51CAF1C1231D4020E18E47825
:0C12EE0026F6020E18E47826F602002B0B
:0C254500041E0000000004220000000042
:10325900438E805389F0758ACD758CD4C28DD28CFA
:03326900D2A922C5
:10326C00438E4053890F438910C28FE4F58BF58D43
:01327C00222F
:03000B0002306060
:10306000C0E0C0F0C083C082C0D075D000C000C036
:1030700004C005C006C007781E121685EF2401FFA4
:10308000E43EFEE43DFDE43CFC781E12169ED007B3
:10309000D006D005D004D000D0D0D082D083D0F0DC
:0330A000D0E0324B
:10318600E4FCFD781E121691EF2BF51BEE3AF51AAC
:10319600ED39F519EC38F518781E121685AB1BAA11
:0B31A6001AA919A818D312167450EDD6
:0131B10022FB
:10321100E4FDFCC3ED9FEC9E500F00000000000098
:0932210000000DBD00010C80EA63
:01322A002281
:0A328E0053A00F7580FFE4F59022B5
:103158008F0853A01F7F017E00123211E508F4F595
:10316800807F017E00123211E5A0541F4480F5A033
:0E3178007F057E0012321153A01FE4F5802265
:10322B00D2A0D2A17F037E00123211C2A17F017EF8
:07323B0000123211C2A022B3
:10324200C2A0C2A17F037E00123211D2A07F017EF2
:0732520000123211D2A1228B
:02301A008F0E17
:10301C00E4F50FC2A0C2A17F01FE123211E4F50F3C
:10302C00C37407950FFFE50EA807088002C313D8D9
:10303C00FC1392A17F027E00123211D2A07F037E7C
:10304C0000123211C2A0050FE50FC3940840D1C283
:03305C00A0D2A15E
:01305F00224E
:102FD300E4F50EF50FC2A0D2A17F01FE123211E477
:102FE300F50EE50F25E0F50F7F037E00123211D2B7
:102FF300A07F027E0012321130A103430F01C2A051
:103003007F017E00123211050EE50EC3940840D2F3
:06301300C2A0D2A1AF0F24
:013019002294
:1031F400C2A0EF24FFB392A17F017E00123211D24C
:0D320400A07F037E00123211C2A0D2A122D1
:1031B200E4F50EC2A0D2A17F01FE123211D2A07F8D
:1031C200037E0012321120A1047F0180027F008F52
:0131D2000EEE
:0131D30022D9
:102EE700E4F50CF50DEF14600C14600E2402700F5E
:102EF700750D40800D750D418008750D4380037F6A
:102F0700002212322B7F9012301A1231B2AF0D12FB
:102F1700301A1231B212324212322B7F9112301A0A
:102F27001231B2122FD38F0C7F011231F4123242B9
:022F3700AF0CDD
:012F39002275
:1031D4008F0812322B7F9012301A1231B27F4112B3
:1031E400301A1231B2AF0812301A1231B20232421E
:10312600E4F518D2947F0AFE123211C2947F087E0B
:1031360002123211D2947F327E0012321120940490
:103146007F0180027F008F187FC87E00123211AF88
:013156001860
:013157002255
:022F3A008F18EE
:102F3C00E4F519D2947F05FE123211E4F519AF199C
:102F4C00E518A807088002C313D8FC30E00FC29420
:102F5C007F067E00123211D2947F37800DC2947F8F
:102F6C003C7E00123211D2947F057E001232110584
:0A2F7C0019E519C3940840C6D29469
:012F86002228
:1030A300E4F518F519D2947F05FE123211E4F518F0
:1030B300E519C313F519C2947F027E00123211D2AF
:1030C300947F087E001232113094034319807F37B6
:1030D3007E001232110518E518C3940840D2D29429
:0230E300AF1923
:0130E50022C8
:102A5900E4F511FFF512F513F517F516F515F5144B
:102A69001231267FCC122F3A7F44122F3A7F1E7ED5
:102A7900001231861231267FCC122F3A7FBE122FD7
:102A89003A1230A38F111230A3EFF512E511F513A5
:102A9900E51230E711E513F4FFE512F4FEEF240126
:102AA900F513E43EF5127C00E513540FFDE412150D
:102AB90076E4FBFA7980783D1213F2C004C005C0B0
:102AC90006C007E512C4F854F0C868FCE513C454FD
:102AD9000F48FDE4121576D003D002D001D00012C0
:0A2AE90013018F178E168D158C1443
:012AF30022C0
:042CA1008F0B8D0CFC
:102CA500E4F50DC293C297C2A37F05FE123211D27D
:102CB500937F017E00123211E4F50DC297AF0DE549
:102CC5000BA807088002C313D8FC1392A37F027ECA
:102CD50000123211D2977F057E00123211050DE5E3
:102CE5000DC3940840D5E4F50DC297AF0DE50CA8CA
:102CF50007088002C313D8FC1392A37F027E00123B
:102D05003211D2977F057E00123211050DE50DC3F4
:062D1500940840D5C293B2
:012D1B002295
:022D1C008F0D19
:102D1E00E4F50EF50FC293C297C2A37F05FE1232E1
:102D2E0011D2937F017E00123211E4F50EC297AFDD
:102D3E000EE50DA807088002C313D8FC1392A37FDB
:102D4E00027E00123211D2977F057E0012321105DB
:102D5E000EE50EC3940840D5D2A3E4F50ED297E546
:102D6E000FC313F50F7F037E00123211C2977F023D
:102D7E007E0012321130A303430F80050EE50EC301
:082D8E00940840D9C293AF0F75
:012D9600221A
:062E82008F088D098B0A88
:102E8800E4FD7F8E122CA1E50875F00A84C454F085
:102E9800FFE50875F00A84E5F0540F4FFD7F8412B2
:102EA8002CA1E50975F00A84C454F0FFE50975F012
:102EB8000A84E5F0540F4FFD7F82122CA1E50A75B4
:102EC800F00A84C454F0FFE50A75F00A84E5F0546A
:0F2ED8000F4FFD7F80122CA17D807F8E022CA1D9
:1030E6007F85122D1CEFC4540F75F00AA4FEEF5411
:1030F6000F2E782BF67F83122D1CEFC4540F75F01C
:103106000AA4FEEF540F2E782AF67F81122D1CEFAB
:0F311600C4540F75F00AA4FEEF540F2E7829F65B
:013125002287
:10327D00C0F9A4B0999282F880908883C6A1868EF9
:01328D00FF41
:0929BC008475F00A84ADF0E4FB1F
:1029C5008D0E8B0FEF70047E0180027E00EFD39495
:1029D5000840047D0180027D00ED4EFEE50ED39496
:1029E5001040047D0180027D00ED4EFEE50FD3947D
:1029F5000140047D0180027D00ED4E705653A01FFD
:102A0500EF14FF7401A807088002C333D8FCF580D2
:102A15007F027E00123211E5A0541F44C0F5A07F4D
:102A2500027E0012321153A01FE50E90327D93F500
:102A350080E50F6002C2877F017E00123211E5A09A
:102A4500541F44E0F5A07F027E001231867580FF99
:042A550053A01F2249
:0228CF008F0870
:1028D100E4F5091230E6900039E0782B6670269015
:1028E1000025E0782A66701D900014E07829667052
:1028F1001490003AE0B4010D90003B7401F0E4FD46
:102901007F01122F87781E121685782212169E7863
:1029110022121691C000781E121685D000C3EF9BBB
:10292100FBEE9AFAED99F9EC98F8AF08E4FCFDFE9C
:10293100C3121674507B782BE675F00A84FDE4FB14
:102941007F011229C5782BE675F00A84ADF0E4FB0E
:102951007F021229C5E4FB7D107F031229C5782A65
:10296100E675F00A84FDE4FB7F041229C5782AE6A6
:1029710075F00A84ADF0E4FB7F051229C5E4FB7D07
:10298100107F061229C57829E675F00A84FDE4FB5B
:102991007F071229C57829E675F00A84ADF0E4FBBA
:1029A1007F081229C51226BEEF700302291075098E
:0B29B10001E509640160030228D42244
:0220E9008F085E
:1020EB00E4F509F50DF50CF50BF50A122A598F0DD0
:1020FB008E0C8D0B8C0A900023E06401600302218F
:10210B00CA900013E0146027146045240260030298
:10211B0021C4900031E0FCA3E0FDA3E0FEA3E0FFAF
:10212B00AB0DAA0CA90BA80A1214F84021806E90D3
:10213B000007E0FCA3E0FDA3E0FEA3E0FFAB0DAACC
:10214B000CA90BA80A1214F860025002804F805C95
:10215B00900007E0FCA3E0FDA3E0FEA3E0FFAB0DC6
:10216B00AA0CA90BA80A1214F8600250067F01C032
:10217B000780047F00C007900031E0FCA3E0FDA3C3
:10218B00E0FEA3E0FFAB0DAA0CA90BA80A1214F8F2
:10219B0040047E0180027E00D0E04E600F7D01E4A2
:1021AB00FF122F879000247401F08013E4FDFF12BF
:1021BB002F87E4900024F08006E4FDFF122F877830
:1021CB001E121685782212169E7822121691C000C6
:1021DB00781E121685D000C3EF9BFBEE9AFAED9991
:1021EB00F9EC98F8AF08E4FCFDFEC312167440033B
:1021FB000222A8E4FB7D0C7F011229C5E4FB7D10B4
:10220B007F021229C5E4FB7D107F031229C5E4FB75
:10221B007D107F041229C5AF0DAE0CAD0BAC0A12AD
:10222B0015AF7C007D0A121630AD07E4FB7F05125B
:10223B0029C5AF0DAE0CAD0BAC0A1215AF7C007DF2
:10224B000A1216307B017F061229C5E4FFFE7D20A2
:10225B007C41AB0DAA0CA90BA80A1213F21215AFF5
:10226B007C007D0A121630E4FB7F071229C5E4FFC0
:10227B00FE7DC87C42AB0DAA0CA90BA80A1213F267
:10228B001215AF7C007D0A121630E4FB7F08122971
:10229B00C51226BEEF70030221D4750901E5097042
:0522AB00030220F622F1
:04259A008F088D0910
:10259E00E4F50AF50BAF08122EE78F0A90002CE037
:1025AE006401707A900029E0FEA3E0FFEE7069EFFF
:1025BE001460141460202402705E900053E0FFE556
:1025CE000AC39F40468035900052E0FFE50AD39F34
:1025DE00500280288035900052E0FFE50AD39F50CC
:1025EE00047F0180027F00900053E0FEE50AC39E47
:1025FE0040047E0180027E00EE4F600F7D01E4FFFD
:10260E00122F8790002D7401F08013E4FDFF122F1E
:10261E0087E490002DF08006E4FDFF122F87781ED0
:10262E00121685782212169E7822121691C0007804
:10263E001E121685D000C3EF9BFBEE9AFAED99F9A8
:10264E00EC98F8AF09E4FCFDFEC31216745059E481
:10265E00FB7D0E7F011229C5E4FB7D107F0212293E
:10266E00C5E4FB7D107F031229C5E4FB7D107F04BA
:10267E001229C5E4FB7D107F051229C5E50A75F008
:10268E00647F061229BCE50A75F00A7F071229BC81
:10269E00E50A75F00A84ADF0E4FB7F081229C51235
:1026AE0026BEEF6083750B01E50B70030225A32296
:0222B0008F0895
:1022B200E4F50CF50BF50AF509F50D122D978F0CC7
:1022C2008E0B8D0A8C09900028E0640160030223C2
:1022D2008B900027E01460271460452402600302FB
:1022E200238090004DE0FCA3E0FDA3E0FEA3E0FF0D
:1022F200AB0CAA0BA90AA8091214F84021806E900F
:102302000049E0FCA3E0FDA3E0FEA3E0FFAB0CAAC2
:102312000BA90AA8091214F860025002804F805ECD
:10232200900049E0FCA3E0FDA3E0FEA3E0FFAB0CBC
:10233200AA0BA90AA8091214F8600250067F01C06C
:102342000780047F00C00790004DE0FCA3E0FDA3DE
:10235200E0FEA3E0FFAB0CAA0BA90AA8091214F82D
:1023620040047E0180027E00D0E04E600F7D01E4D9
:10237200FF122F8790002B7401F0800D8000E4FD86
:10238200FF122F87E490002BF0781E121685782218
:1023920012169E7822121691C000781E121685D04F
:1023A20000C3EF9BFBEE9AFAED99F9EC98F8AF08AF
:1023B200E4FCFDFEC3121674400302246EE4FB7DAE
:1023C2000D7F011229C5E4FB7D107F021229C5E4AD
:1023D200FB7D107F031229C5E4FB7D107F041229C7
:1023E200C5AF0CAE0BAD0AAC091215AF7C007D0A6D
:1023F2001216307C007D0A121630E4FB7F0512298A
:10240200C5AF0CAE0BAD0AAC091215AF7C007D0A4C
:102412001216307B017F061229C5E4FFFE7D207C67
:1024220041AB0CAA0BA90AA8091213F21215AF7C30
:10243200007D0A121630E4FB7F071229C5E4FFFE75
:102442007DC87C42AB0CAA0BA90AA8091213F2128E
:1024520015AF7C007D0A121630E4FB7F081229C5F5
:102462001226BEEF7003022395750D01E50D700370
:042472000222BD2263
:1027C900007454545C00207E24001C2A2A1A003FFD
:1027D900243C00FC203C001C2A2A1A001E101E0062
:1027E9004252527E007E42427E00010600003804B9
:1027F900380438003854543400FC04003C242400C4
:102809003C24243C003C203C203C001C2A2A1A0081
:1028190000103E14001E12121E005E5272007E420B
:102829007E001D1517002E2A3A003E223E002E2A50
:102839003A003E2A2E0000003E00002E2A3A0020CF
:10284900203E000000000040407E4040005E000045
:102859001E101E101E001E2A2A1A000A00004040DF
:102869007E40401E2A2A1A001E101E101E003F28F4
:1028790038001C241C02103E12001C021E02003EDD
:1028890010201E2A2A1A00007E42423C005E003AAD
:102899002A2E00107E14001E121E013E203E003E0C
:1028A9002222001E2A2A1A007C447C007C005C54E7
:1028B9007454547C70107C74545C7C545C40407C2F
:0628C9007C547C74547C79
:102551005D007600000000000000000000000000A7
:10256100000000000000000000000000000000006A
:102571005100650000000000000000002400000080
:1025810000000000510054000000000000000004A1
:08259100000000000000000042
:102E0D008F118D12E51170047F0180027F00E51195
:102E1D00D3940840047E0180027E00EE4F7055531E
:102E2D00A01F7F017E00123211E51114FF7401A85D
:102E3D0007088002C333D8FCF5807F017E00123273
:102E4D0011E5A0541F44C0F5A07F057E001232117C
:102E5D0053A01FE512F4F5807F017E00123211E5BB
:102E6D00A0541F44E0F5A07F027E001231867580CC
:052E7D00FF53A01F221D
:022B87008F08B5
:102B8900E4F509F50AF50B781E1216857822121656
:102B99009E7822121691C000781E121685D000C3A5
:102BA900EF9BFBEE9AFAED99F9EC98F8AF08E4FC83
:102BB900FDFEC31216745042E4F509E50904FFC08D
:102BC90007E50A2509FFE433FE7C007D87121630EC
:102BD90074C92DF58274273CF583E493FDD007125F
:102BE9002E0D1226BEEF6005750B0180090509E55A
:102BF90009C3940840C5E50B6097E50AB48603E468
:0C2C0900F50A050AE50B7003022B90226F
:041E04008E088F09AC
:101E0800E4F50AF50BF50C1230E6900039E0782B72
:101E1800667026900025E0782A66701D900014E010
:101E2800782966701490003AE0B4010D90003B7474
:101E380001F0E4FD7F01122F87782BE6FF75F00A89
:101E480084FE75F003A424B1F582E43428F583E414
:101E580093900077F0EE75F003A424B2F582E43491
:101E680028F583E493900078F0EF75F00A8475F014
:101E780003A424B3F582E43428F583E4939000792D
:101E8800F0E4A3F0E6FF75F00A84AEF0EE75F00317
:101E9800A424B1F582E43428F583E49390007BF020
:101EA800EE75F003A424B2F582E43428F583E493B4
:101EB80090007CF0EF75F00A84E5F075F003A42437
:101EC800B3F582E43428F583E49390007DF0E4A32D
:101ED800F0A37424F0E4A3F0782AE6FF75F00A84EE
:101EE800FE75F003A424B1F582E43428F583E49365
:101EF800900081F0EE75F003A424B2F582E4342852
:101F0800F583E493900082F0EF75F00A8475F0038E
:101F1800A424B3F582E43428F583E493900083F095
:101F2800E4A3F0E6FF75F00A84AEF0EE75F003A4C2
:101F380024B1F582E43428F583E493900085F0EE2B
:101F480075F003A424B2F582E43428F583E4939071
:101F58000086F0EF75F00A84E5F075F003A424B369
:101F6800F582E43428F583E493900087F0E4A3F045
:101F7800A37424F0E4A3F07829E6FF75F00A84FE40
:101F880075F003A424B1F582E43428F583E4939032
:101F9800008BF0EE75F003A424B2F582E43428F542
:101FA80083E49390008CF0EF75F00A8475F003A435
:101FB80024B3F582E43428F583E49390008DF0E4AB
:101FC800A3F0E6FF75F00A84AEF0EE75F003A424E2
:101FD800B1F582E43428F583E49390008FF0EE7530
:101FE800F003A424B2F582E43428F583E493900046
:101FF80090F0EF75F00A84E5F075F003A424B3F5CA
:1020080082E43428F583E493900091F0E4A3F07817
:102018001E121685782212169E7822121691C0007A
:10202800781E121685D000C3EF9BFBEE9AFAED9945
:10203800F9EC98F8AE08AF09EE3395E0FDFCC31251
:10204800167440030220D7E4F50AE50B250AFFE4DD
:1020580033FED3EF9415EE6480948040047D0180B4
:10206800027D00C3EF9433EE6480948050047F01B6
:1020780080027F00EF5D6015E50A04FFE50B250A85
:102088002460F582E43400F583E0FD8024E50A0449
:10209800FFC007E50B250AFFE433FE7C007D331201
:1020A800163074502DF58274283CF583E493FDD0E6
:1020B80007122E0D1226BEEF6005750C018009056A
:1020C8000AE50AC394084082E50C70030220210542
:1020D8000BE50BB43303E4F50BE50C7003021E0F9C
:0120E80022D5
:041744008E088F0973
:10174800E4F50AF50BF50CF510F50FF50EF50D128D
:101758002A598F108E0F8D0E8C0D900023E0640196
:10176800600302182B900013E014602714604524CE
:10177800026003021825900031E0FCA3E0FDA3E01D
:10178800FEA3E0FFAB10AA0FA90EA80D1214F84093
:1017980021806E900007E0FCA3E0FDA3E0FEA3E03B
:1017A800FFAB10AA0FA90EA80D1214F86002500280
:1017B800804F805C900007E0FCA3E0FDA3E0FEA35F
:1017C800E0FFAB10AA0FA90EA80D1214F860025082
:1017D800067F01C00780047F00C007900031E0FC4D
:1017E800A3E0FDA3E0FEA3E0FFAB10AA0FA90EA89B
:1017F8000D1214F840047E0180027E00D0E04E6095
:101808000F7D01E4FF122F879000247401F08013EC
:10181800E4FDFF122F87E4900024F08006E4FDFF2A
:10182800122F87AF10AE0FAD0EAC0D1215AFAB0770
:10183800AA067C007D0A1216309028B175F003EFD5
:101848001216B6EE75F003A42583F583E493900091
:1018580065F09028B275F003EF1216B6EE75F00336
:10186800A42583F583E493900066F07C007D0AAF9D
:1018780003AE021216309028B375F003EF1216B6B5
:10188800EE75F003A42583F583E493900067F0AF29
:1018980010AE0FAD0EAC0D1215AF7C007D0A1216FE
:1018A800309028B175F003ED1216B6EC75F003A46C
:1018B8002583F583E493900069F09028B275F003CE
:1018C800ED1216B6EC75F003A42583F583E4939026
:1018D800006AF09028B375F003ED1216B6EC75F0B7
:1018E80003A42583F583E49390006BF0E4FFFE7D69
:1018F800207C41AB10AA0FA90EA80D1213F21215E5
:10190800AF7C007D0A1216309028B175F003ED12F5
:1019180016B6EC75F003A42583F583E49390006F65
:10192800F09028B275F003ED1216B6EC75F003A42A
:101938002583F583E493900070F09028B375F00345
:10194800ED1216B6EC75F003A42583F583E49390A5
:101958000071F0E4FFFE7DC87C42AB10AA0FA90E0F
:10196800A80D1213F21215AF7C007D0A12163090E2
:1019780028B175F003ED1216B6EC75F003A42583B3
:10198800F583E493900072F09028B275F003ED129D
:1019980016B6EC75F003A42583F583E493900073E1
:1019A800F09028B375F003ED1216B6EC75F003A4A9
:1019B8002583F583E493900074F0781E12168578D9
:1019C8002212169E7822121691C000781E121685D1
:1019D800D000C3EF9BFBEE9AFAED99F9EC98F8AEBC
:1019E80008AF09EE3395E0FDFCC3121674400302FC
:1019F8001A98E4F50AE50A250BFFE433FED3EF94C1
:101A080029EE6480948040047D0180027D00C3EF4C
:101A1800943BEE6480948050047F0180027F00EF45
:101A28005D6028E50A04FFC007E50B250AFFE433DB
:101A3800CF24D6CF34FFFE7C007D3B121630746570
:101A48002DF58274003CF583E08021E50A04FFC08F
:101A580007E50B250AFFE433FE7C007D3B121630B8
:101A680074662DF58274283CF583E493FDD0071243
:101A78002E0D1226BEEF6005750C01800C050AE5D7
:101A88000AC3940850030219FDE50C70030219CC2F
:101A9800050BE50BB43B03E4F50BE50C70030217EB
:021AA8005722C3
:021AAA008F08A3
:101AAC00E4F509F50AF50BF50FF50EF50DF50C122D
:101ABC002D978F0F8E0E8D0D8C0C900028E06401ED
:101ACC006003021B89900027E014602714604524F2
:101ADC00026003021B7E90004DE0FCA3E0FDA3E03E
:101AEC00FEA3E0FFAB0FAA0EA90DA80C1214F84030
:101AFC0021806E900049E0FCA3E0FDA3E0FEA3E092
:101B0C00FFAB0FAA0EA90DA80C1214F8600250021C
:101B1C00804F805E900049E0FCA3E0FDA3E0FEA3B3
:101B2C00E0FFAB0FAA0EA90DA80C1214F86002501E
:101B3C00067F01C00780047F00C00790004DE0FCC9
:101B4C00A3E0FDA3E0FEA3E0FFAB0FAA0EA90DA836
:101B5C000C1214F840047E0180027E00D0E04E602E
:101B6C000F7D01E4FF122F8790002B7401F0800D84
:101B7C008000E4FDFF122F87E490002BF0AF0FAE36
:101B8C000EAD0DAC0C1215AFAB07AA067C007D0A8E
:101B9C001216309028B175F003EF1216B6EE75F0F0
:101BAC0003A42583F583E493900054F09028B27538
:101BBC00F003EF1216B6EE75F003A42583F583E45B
:101BCC0093900055F07C007D0AAF03AE02121630E4
:101BDC009028B375F003EF1216B6EE75F003A4253A
:101BEC0083F583E493900056F0AF0FAE0EAD0DACC1
:101BFC000C1215AF7C007D0A1216309028B175F0CE
:101C0C0003ED1216B6EC75F003A42583F583E4936B
:101C1C00900058F09028B275F003ED1216B6EC75E2
:101C2C00F003A42583F583E493900059F09028B336
:101C3C0075F003ED1216B6EC75F003A42583F5834D
:101C4C00E49390005AF0E4FFFE7D207C41AB0FAA98
:101C5C000EA90DA80C1213F21215AF7C007D0A12FE
:101C6C0016309028B175F003ED1216B6EC75F00332
:101C7C00A42583F583E49390005EF09028B275F070
:101C8C0003ED1216B6EC75F003A42583F583E493EB
:101C9C0090005FF09028B375F003ED1216B6EC755A
:101CAC00F003A42583F583E493900060F0E4FFFE39
:101CBC007DC87C42AB0FAA0EA90DA80C1213F21210
:101CCC0015AF7C007D0A1216309028B175F003ED2B
:101CDC001216B6EC75F003A42583F583E4939000FB
:101CEC0062F09028B275F003ED1216B6EC75F003A5
:101CFC00A42583F583E493900063F09028B375F0EA
:101D0C0003ED1216B6EC75F003A42583F583E4936A
:101D1C00900064F0781E121685782212169E782296
:101D2C00121691C000781E121685D000C3EF9BFBD3
:101D3C00EE9AFAED99F9EC98F8AF08E4FCFDFEC3C5
:101D4C001216744003021DF2E4F509E509250AFF99
:101D5C00E433FED3EF9420EE6480948040047D0144
:101D6C0080027D00C3EF9432EE6480948050047F37
:101D7C000180027F00EF5D6028E50904FFC007E5E4
:101D8C000A2509FFE433CF24DFCF34FFFE7C007D2E
:101D9C003212163074542DF58274003CF583E080B9
:101DAC0021E50904FFC007E50A2509FFE433FE7CA1
:101DBC00007D3212163074902DF58274283CF58318
:101DCC00E493FDD007122E0D1226BEEF6005750BA5
:101DDC0001800C0509E509C394085003021D57E561
:101DEC000B7003021D2A050AE50AB43203E4F50A56
:081DFC00E50B7003021ABB2283
:1026BE00E4F511FEC2C4D2C2D2B5D2B4E5B0540F05
:1026CE00D2C4C2C2D2B5D2B4C4F8540FC868FFEE99
:1026DE00C454F048FEE5B0540FFDEF4DD2C4D2C243
:1026EE00C2B5D2B4C4F8540FC868FFEEC454F04853
:1026FE00FEE5B0540FFDEF4DD2C4D2C2D2B5C2B476
:10270E00C4F8540FC868FFEEC454F048FEE5B05448
:10271E000FFDEF4DFF6307FF6306FFEF8EF01216FE
:10272E00C227BE000127B9000227B4000427AF005C
:10273E000827AA001027A5002027A00040279B00ED
:10274E00802796010027910200278C040027870816
:10275E000027821000277D200027784000277380F5
:10276E0000000027C3751101804E75110280497556
:10277E0011038044751104803F751105803A75115F
:10278E000680357511078030751108802B7511097B
:10279E00802675110A802175110B801C75110C8015
:1027AE001775110D801275110E800D75110F8008A1
:0A27BE007511108003E4F511AF114E
:0127C80022EE
:102AF400E4F508FFF5091226BE8F087F057E001253
:102B040031861226BEE5086F7076E5086072F50915
:102B14001226BE8F087F057E001231861226BEE57E
:102B240008B507047E0180027E00EE70E3FD7F019C
:102B3400122F877F057E0012318690003BE0B4019E
:102B440006E4FD7F01803690002BE0B401047F0190
:102B540080027F00900024E0B401047E0180027EA4
:102B640000EE4FFF90002DE0B401047E0180027E50
:102B740000EE4F60057D01E48002E4FDFF122F8723
:022B8400AF0997
:012B8600222C
:102D9700E4F510F514F513F512F511F58BF58DD251
:102DA70091D28EF510D2907F0D7E00123211C29013
:102DB7007F0D7E001232110510E510C3940340E524
:102DC700208F032091FAC28E308F10C28F75147C2A
:102DD70075137F7512B77511428022AF8DEFAD8BDA
:102DE700FCE41215767B347A8079B7783A1213F2BD
:102DF7008F148E138D128C11E4F58BF58DAF14AEF5
:052E070013AD12AC1137
:012E0C0022A3
:102F8700E4FEEDD3940140047C0180027C00EFD382
:102F9700940140047B0180027B00EB4C702DBF0144
:102FA70003430640BD01034306108E807F017E0068
:102FB700123211E590541F44A0F5A07F017E001244
:0B2FC7003211E590541FF5A0E4F580E6
:012FD20022DC
:1012FA0002161BE86480F8E933E83360110460F0F1
:10130A00ED33EC337009E8FCE9FDEAFEEBFF220459
:10131A0060DED3EB9FEA9EE99DE8C2E78CF0C2F754
:10132A0095F0400CE8CCF8E9CDF9EACEFAEBCFFB20
:10133A001215E685D0F05804700320D5B3E804707E
:10134A00075002B2D502162592D5EC0460F7E4CC18
:10135A00C0E0C398F8603B94186008400DD0E0FBE9
:10136A000215FDE4FBFAC9FC8028E830E406E4C96A
:10137A00FBE4CAFCE830E305E4C9CACBFCE854073D
:10138A006010F8C3E913F9EA13FAEB13FBEC13FC48
:10139A00D8F130F52FC3E49CFCEF9BFFEE9AFEEDEB
:1013AA0099FDD0E0FBEF4E4D4C701222DB03021682
:1013BA0022EC2CFCEF33FFEE33FEED33FDED30E78C
:1013CA00EB0215FDEF2BFFEE3AFEED39FDD0E0FB07
:1013DA0050130BBB0003021625ED13FDEE13FEEFAF
:0813EA0013FFEC13FC0215FDDA
:1013F200EC4D6011E8497017ED33EC3304600DE4F5
:10140200FCFFFEFD22E933E8330470F802161B12DA
:1014120015E658046009E4CC2481500628500902DC
:101422001625284003021622C0E0EB4A7044B98018
:1014320006D0E0FB021611EF4E701CBD8008EBFFD8
:10144200EAFEE9FD80EBE98DF0A4FEE5F00214DB93
:10145200E9CDF9EAFEEBFFEF89F0A4FCE5F0CE89D5
:10146200F0A42EFFE435F0CD89F0A42DFEE435F092
:101472008067EF4E7005BD80D780C3EF8BF0A4ACC0
:10148200F0EE8BF0A42CFCE435F0F8EF8AF0A42CFB
:10149200E5F038FCE433CB8DF0A42CFCE5F03BF80E
:1014A200EE8AF0A42CFCE5F038F8E433CF89F0A4FE
:1014B2002CFCE5F038CF3400CE89F0A42FFFE5F004
:1014C2003EFEE433C98DF0A42EFEE5F039CD8AF05C
:1014D200A42FFFE5F03EFEE43DFD33D0E0FB5007D4
:1014E2000BBB000F021625EC2CFCEF33FFEE33FE94
:0614F200ED33FD0215FDC3
:1014F80074F8CC6480CCC86480C8F58204604FC39B
:10150800EB9FF5F0EA9E42F0E99D42F0E89C45F039
:10151800603C501DE5825FFFE582D313CB5BCBF4C3
:101528002B5582FB50280ABA002409B900200880EC
:101538001DE5825BFBE582D313CF5FCFF4C3132F86
:101548005582FF50090EBE00050DBD00010CC3EB0E
:101558009FF5F0EA9E42F0E99D42F0E89C45F06074
:0915680007CC4820E701B3EC2296
:1015710075F020800E75F010800575F0087D007EF5
:10158100007F003392D530D503121666EC3340103C
:10159100EF33FFEE33FEED33FDEC33FCD5F0ED22FE
:0E15A100E5F0247EA2D513CC92E7CDCEFF223A
:1015AF00EDD2E7CD33EC3392D524814006E4FFFE34
:1015BF00FDFC22FCE4CFCECDCC24E0501174FF8093
:1015CF00EDC3CC13CCCD13CDCE13CECF13CF047030
:0715DF00F030D5DE021666B4
:1015E600E9D2E7C933E833F892D5EDD2E7CD33EC4B
:0715F60033FC5002B2D522C4
:1015FD00EC30E7100FBF000C0EBE00080DBD00044F
:10160D000BEB6014A2D5EB13FCED92E7FD2274FFFA
:10161D00FCFDFEFF22E480F8A2D574FF13FC7D8053
:03162D00E480EF67
:03000000022C15BA
:0C2C1500787FE4F6D8FD75812B022C5C62
:10163000C2D5EC30E709B2D5E4C39DFDE49CFCEED5
:1016400030E715B2D5E4C39FFFE49EFE1216EFC348
:10165000E49DFDE49CFC80031216EF30D507C3E443
:061660009FFFE49EFE2244
:0E166600C3E49FFFE49EFEE49DFDE49CFC2295
:10167400EB9FF5F0EA9E42F0E99D42F0E89C45F0CC
:011684002243
:0C168500E6FC08E6FD08E6FE08E6FF2291
:0D169100E6FB08E6F908E6FA08E6CBF822C9
:0C169E00ECF608EDF608EEF608EFF62278
:0C16AA00ECF0A3EDF0A3EEF0A3EFF022B3
:0C16B600A42582F582E5F03583F583223F
:1016C200D083D082F8E4937012740193700DA3A3B7
:1016D20093F8740193F5828883E473740293B5F0EE
:0D16E200067403936860E9A3A3A3A380D856
:102C210002000EE493A3F8E493A34003F68001F2BB
:102C310008DFF48029E493A3F85407240CC8C333B4
:102C4100C4540F4420C8834004F456800146F6DF83
:102C5100E4800B0102040810204080902476E47E79
:102C6100019360BCA3FF543F30E509541FFEE49378
:102C7100A360010ECF54C025E060A840B8E493A33F
:102C8100FAE493A3F8E493A3C8C582C8CAC583CA6A
:102C9100F0A3C8C582C8CAC583CADFE9DEE780BE22
:012599000041
:1016EF00BC000BBE0029EF8DF084FFADF022E4CCDF
:1016FF00F875F008EF2FFFEE33FEEC33FCEE9DECA8
:10170F00984005FCEE9DFE0FD5F0E9E4CEFD22EDED
:10171F00F8F5F0EE8420D21CFEADF075F008EF2F37
:10172F00FFED33FD4007985006D5F0F222C398FD28
:05173F000FD5F0EA22C5
:00000001FF
