:10125400C0F9A4B0999282F88090888E8C89C7BF17
:01126400FF8A
:100E25004400270000000041001A00410010004165
:100E35000000004400010000000041002C004100BA
:100E45002D0041000F0041001D0041003000410010
:100E55002100410038004100390041003A004400BA
:100E650023000000004100370042001F000042003F
:100E7500180000420012000042001507D042003160
:100E850000004100090041002E0041001C00410006
:100E95001700410014004100110041002F004100DE
:100EA5000E0044000A0000000041002B004400052C
:100EB5000000000044003300000000410022004112
:070EC500001B0041001E00AC
:10001E0012122F121265D2AFE4FF1211EFE4FBFDA4
:10002E00FF120FD790001DE0702890000FE0702295
:10003E0012107F90002CEFF090000F7401F09000E2
:10004E0027E0FCA3E0FDA3E0FEA3E0FF9000011279
:10005E000E1990001DE0704790000FE0B401409023
:10006E000001E0F8A3E0F9A3E0FAA3E0FB9000277B
:10007E00E0FCA3E0FDA3E0FEA3E0C39BFFEE9AFE2F
:10008E00ED99FDEC98FCE47B1EFAF9F8C3120E080C
:10009E00500D12107F90002DEFF0E490000FF090B5
:1000AE00001DE0701990002DE0FF90002CE0FEB5D1
:1000BE00070C600A900030F090001D7401F0900063
:1000CE001DE0B4011312107FEF700D900030E09020
:1000DE000021F0E490001DF0900021E0B401259085
:1000EE000038E0FFB40103E4A3F0EFB40305E4909D
:1000FE00003AF0900038E004F0E0B40402E4F0E4DA
:10010E00900021F0900038E0FF6401600302022AA3
:10011E00900021E0B40214900039E0700404F080E5
:10012E0005E4900039F0E4900021F0900039E0FEF3
:10013E007058900021E0B40326900016E024E8F0F9
:10014E00900015E03403F0E0B4270FA3E0B4100ADA
:10015E009000157423F0A37428F0E4900021F09021
:10016E000021E0B40424900016E02418F09000154D
:10017E00E034FCF0E07002A3E0700A900015740306
:10018E00F0A374E8F0E4900021F0EE640160030245
:10019E00022A900021E0B4033E900019E02464F09E
:1001AE00900018E03400F0E0B4030FA3E0B4E80AC6
:1001BE009000187403F0A37484F0C3900018E064E8
:1001CE0080948050089000177401F08005E4900030
:1001DE0017F0E4900021F0900021E0B4043E90006E
:1001EE0019E0249CF0900018E034FFF0E0B4FC0F0E
:1001FE00A3E0B4180A90001874FCF0A3747CF0C34A
:10020E00900018E06480948050089000177401F0FC
:10021E008005E4900017F0E4900021F0EFB4031B8A
:10022E00900021E0B4021490003AE0700404F080D3
:10023E0005E490003AF0E4900021F0900037E07071
:10024E001D1212919000377401F0900027E0FCA36C
:10025E00E0FDA3E0FEA3E0FF900023120E19900034
:10026E0037E06401600302033F900023E0F8A3E04F
:10027E00F9A3E0FAA3E0FBA3E0FCA3E0FDA3E0FEFC
:10028E00A3E0C39BFFEE9AFEED99FDEC98FCE47B98
:10029E00E87A03F9F8C3120E08400302033F121264
:1002AE004290001FEEF0A3EFF0900019E02FFF90A8
:1002BE000018E03EFE900012F0A3EFF0C3EE648053
:1002CE0094805006A37401F08062E4900014F0A3B1
:1002DE00E0FEA3E0FF900012E0FCA3E0FDD39FEC54
:1002EE009E400890000E7401F08005E490000EF020
:1002FE00900031E0FEA3E0FFD3ED9FEE6480F8ECBA
:10030E006480984027900012E0FFA3E0900031CF68
:10031E00F0A3EFF090001AE0900009F0900010E0CA
:10032E0090002EF0900000E090001CF0E49000375A
:10033E00F0900005E0F8A3E0F9A3E0FAA3E0FB904B
:10034E000027E0FCA3E0FDA3E0FEA3E0C39BFFEECD
:10035E009AFEED99FDEC98FCE47BF47A01F9F8C372
:10036E00120E0850171210C3900027E0FCA3E0FDF8
:10037E00A3E0FEA3E0FF900005120E1990000AE024
:10038E00F8A3E0F9A3E0FAA3E0FB900027E0FCA3BA
:10039E00E0FDA3E0FEA3E0C39BFFEE9AFEED99FD08
:1003AE00EC98FCE47B64FAF9F8C3120E08400302E1
:1003BE000472900014E0B40108E490002BF00204E3
:1003CE0056900012E0FEA3E0FFC394F4EE64809416
:1003DE0081500890002B7433F0806D900015E0FC76
:1003EE00A3E0FDD3EF9DEE9C5058E4120CB5E4FB58
:1003FE00FA79FA78C3120A19A804A905AA06AB0756
:10040E00E4FFFE7D4C7C43120C13C004C005C006F5
:10041E00C007900013E0240CFD900012E034FEFCA7
:10042E00120CB5D003D002D001D000120B0AE4FB9F
:10043E00FA794C7842120A19120CEE90002BEFF05A
:10044E00800690002B74FFF090002BE0FF1211BC81
:10045E00900027E0FCA3E0FDA3E0FEA3E0FF9000E8
:10046E000A120E19900033E0F8A3E0F9A3E0FAA304
:10047E00E0FB900027E0FCA3E0FDA3E0FEA3E0C3B9
:10048E009BFFEE9AFEED99FDEC98FCE47BC8FAF921
:10049E00F8C3120E085023900022E0700404F0807E
:1004AE0005E4900022F0900027E0FCA3E0FDA3E01D
:1004BE00FEA3E0FF900033120E19900038E0700694
:1004CE00900022E08001E490001BF090000EE0B45A
:1004DE000106900022E08010900014E0B401089014
:1004EE00001E7401F08005E490001EF090001EE0E6
:1004FE00540125E0FF90001BE054014FFF1211EF55
:10050E00900038E01470030206A71470030207BEB1
:10051E0014700302083124036003020A0A900014C7
:10052E00E0600302067CFB7D0B7F01120F59E4FB9A
:10053E007D107F02120F59E4FB7D107F03120F59BD
:10054E00900011E0701DA3E0FEA3E0FF7C277D105C
:10055E00120DC47C007D0A120DC4ED4C7005FB7D9E
:10056E0010801C9000117401F0A3E0FEA3E0FF7C4C
:10057E00277D10120DC47C007D0A120DC4E4FB7F92
:10058E0004120F59900011E0701DA3E0FEA3E0FFCE
:10059E007C037DE8120DC47C007D0A120DC4ED4C67
:1005AE007005FB7D10801C9000117401F0A3E0FE1D
:1005BE00A3E0FF7C037DE8120DC47C007D0A120DC2
:1005CE00C4E4FB7F05120F59900011E0701DA3E0EB
:1005DE00FEA3E0FF7C007D64120DC47C007D0A1238
:1005EE000DC4ED4C7005FB7D10801C900011740144
:1005FE00F0A3E0FEA3E0FF7C007D64120DC47C003E
:10060E007D0A120DC4E4FB7F06120F59900011E013
:10061E00701DA3E0FEA3E0FF7C007D0A120DC47CDA
:10062E00007D0A120DC4ED4C7005FB7D10801C90F0
:10063E0000117401F0A3E0FEA3E0FF7C007D0A121E
:10064E000DC47C007D0A120DC4E4FB7F07120F5906
:10065E00900012E0FEA3E0FF7C007D0A120DC4E4C0
:10066E00FB7F08120F59E4900011F0020032E4FBF8
:10067E007D107F04120F59E4FB7D107F05120F5978
:10068E00E4FB7D107F06120F59E4FB7D0E7F0712EF
:10069E000F59E4FB7D0E020A02900039E07056FB02
:1006AE007D0C7F01120F59E4FB7D017F02120F5961
:1006BE00E4FB7D107F03120F59E4FB7D107F0412C3
:1006CE000F59900015E0FEA3E0FF7C037DE8120DAC
:1006DE006F7C007D0A120D6FE4FB7F05120F59E44B
:1006EE00FBFD7F06120F59E4FBFD7F07120F59E445
:1006FE00FBFD020A02E4FB7D0C7F01120F59E4FBA5
:10070E007D027F02120F59E4FB7D107F03120F59F9
:10071E00E4FB7D107F04120F59900017E064017006
:10072E003AFB7D0F7F05120F59900018E0FEA3E0F3
:10073E00FFC3E49FFFE49EFE7C007D64120DC47C2B
:10074E00007D0A120DC4E4FB7F06120F59E4FBFD77
:10075E007F07120F59E4FBFD020A02900018E070A9
:10076E0002A3E07017FB7D107F05120F59E4FB7D8D
:10077E00107F06120F59E4FB7D108029E4FB7D10DB
:10078E007F05120F59900018E0FEA3E0FF7C007D5C
:10079E0064120DC47C007D0A120DC4E4FB7F0612A8
:1007AE000F59E4FBFD7F07120F59E4FBFD020A020D
:1007BE0090001AE075F00A84FDE4FB7F01120F59D8
:1007CE0090001AE075F00A84ADF0E4FB7F02120F80
:1007DE0059E4FB7D0F7F03120F59900010E075F066
:1007EE000A84FDE4FB7F04120F59900010E075F0AF
:1007FE000A84ADF0E4FB7F05120F59E4FB7D0F7FF9
:10080E0006120F59900000E075F00A84FDE4FB7F9C
:10081E0007120F59900000E075F00A84ADF0E4FB6A
:10082E00020A0290003AE06003020992FB7D0D7FFE
:10083E0001120F59E4FB7D0B7F02120F59E4FB7D71
:10084E00107F03120F5990002FE0701F900031E0BF
:10085E00FEA3E0FF7C277D10120DC47C007D0A12E2
:10086E000DC4ED4C7005FB7D10801E90002F7401A1
:10087E00F0900031E0FEA3E0FF7C277D10120DC446
:10088E007C007D0A120DC4E4FB7F04120F59900008
:10089E002FE0701F900031E0FEA3E0FF7C037DE8A7
:1008AE00120DC47C007D0A120DC4ED4C7005FB7D4B
:1008BE0010801E90002F7401F0900031E0FEA3E036
:1008CE00FF7C037DE8120DC47C007D0A120DC4E48A
:1008DE00FB7F05120F5990002FE0701F900031E042
:1008EE00FEA3E0FF7C007D64120DC47C007D0A1225
:1008FE000DC4ED4C7005FB7D10801E90002F740111
:10090E00F0900031E0FEA3E0FF7C007D64120DC488
:10091E007C007D0A120DC4E4FB7F06120F59900075
:10092E002FE0701F900031E0FEA3E0FF7C007D0AF7
:10093E00120DC47C007D0A120DC4ED4C7005FB7DBA
:10094E0010801E90002F7401F0900031E0FEA3E0A5
:10095E00FF7C007D0A120DC47C007D0A120DC4E4DA
:10096E00FB7F07120F59900031E0FEA3E0FF7C00E1
:10097E007D0A120DC4E4FB7F08120F59E490002F7C
:10098E00F0020032E4FB7D0D7F01120F59E4FB7D76
:10099E000A7F02120F59900009E075F00A84FDE4F7
:1009AE00FB7F03120F59900009E075F00A84ADF039
:1009BE00E4FB7F04120F5990002EE075F00A84FDBF
:1009CE00E4FB7F05120F5990002EE075F00A84ADFE
:1009DE00F0E4FB7F06120F5990001CE075F00A84BC
:1009EE00FDE4FB7F07120F5990001CE075F00A849E
:1009FE00ADF0E4FB7F08120F59020032E49000388C
:040A0E00F0020032C0
:10121C00E4FEC297EF1392A3EFC313FFD2970EBE57
:02122C0008F0C8
:01122E00229D
:10120800C29300C29700D2930012121CAF051212AB
:041218001CC293223F
:10114200E4FDC29300C29700D2930012121CE4FF86
:10115200C297EDC313FD30A303430580D2970FBF9F
:1011620008EEC29300C29700D29700C2A300D2A396
:0311720000AF05C6
:011175002257
:0411A200D2A07F0553
:1011A600000000000000000000000000000000AE8B
:0611B600071FEE70EB22A2
:0F127600D2A11211A2C2A17F051211A6C2A022FD
:0C128500C2A11211A2D2A17F050211A685
:02117600AD07C3
:10117800E4FCC2A07F051211A6ED30E704D2A180DD
:1011880002C2A17F051211A6D2A0ED25E0FD7F05C0
:091198001211A60CBC08DBC2A078
:0111A100222B
:0300030012117661
:100006001211A2A2A1E433FDC2A07F051211A6AF70
:0100160005E4
:0100170022C6
:040FD700AC07AA05B4
:100FDB00E4FD7F8E121208EC75F00A84C454F0FF06
:100FEB00EC75F00A84E5F0540F4FFD7F8412120864
:100FFB00EA75F00A84C454F0FFEA75F00A84E5F050
:10100B00540F4FFD7F82121208EB75F00A84C45403
:10101B00F0FFEB75F00A84E5F0540F4FFD7F801263
:09102B0012087D807F8E0212087C
:1010C3007F85121142EFC4540F75F00AA4FEEF544A
:1010D3000F2E90001AF07F83121142EFC4540F7544
:1010E300F00AA4FEEF540F2E900010F07F8112112E
:1010F30042EFC4540F75F00AA4FEEF540F2E900074
:0211030000F0FA
:0111050022C7
:1011BC00AB071212767F901200037F41120003AF2F
:0A11CC0003121176120006021285CC
:10122F00438E4053890F758BCD758DD4C28FD28E5F
:03123F00D2AB220D
:10126500438E805389F0438905E4F58AF58CC28D58
:011275002256
:03001B000210349C
:10103400C0E0C0F0C083C082C0D075D000C000C082
:1010440004C005C006C007900027E0FCA3E0FDA390
:10105400E0FEA3E02401FFE43EFEE43DFDE43CFCAD
:10106400900027120E19D007D006D005D004D00066
:0B107400D0D0D082D083D0F0D0E0328A
:10110600E4FCFD900027E0F8A3E0F9A3E0FAA3E0F1
:101116002FF50BEA3EF50AED39F509EC38F508909E
:101126000027E0FCA3E0FDA3E0FEA3E0FFAB0BAAD3
:0B1136000AA909A808C3120E0850E423
:01114100228B
:0611D600F5807F017E00A0
:1011DC00E4FDFCC3ED9FEC9E5008000DBD00010C1E
:0211EC0080F190
:0111EE0022DE
:100F5900AA05EF70047E0180027E00EFD394084059
:100F6900047D0180027D00ED4EFEEAD39410400419
:100F79007D0180027D00ED4EFEEBD3940140047D9E
:100F89000180027D00ED4E704453A01FEF14FF74E1
:100F990001A807088002C333D8FC1211D6E5A05472
:100FA9001F44C0F5A07F031211DC53A01FEA901261
:100FB9005493F580BB0102C2871211D8E5A0541FD2
:0E0FC90044E0F5A01211067580FF53A01F2210
:1011EF0053A01FEFF41211D6E5A0541F4480F5A0B1
:0911FF007F031211DC53A01F2232
:10107F00C2C4D2C2E5B0540C1313543FD2C4C2C27F
:10108F0025E025E044F0FFE5B0540C1313543F4F17
:10109F00F414601714601024FE600824FC70107E96
:1010AF0001800E7E02800A7E0380067E048002E4A9
:0310BF00FEAF067B
:0110C200220B
:0A129100E4F58AF58CC28DD28C22A0
:10124200C28CAF8CEFFEAD8AEDFFE4F58AF58CC25D
:011252008D0E
:011253002278
:100A1200020D5AE86480F8E933E83360110460F0AB
:100A2200ED33EC337009E8FCE9FDEAFEEBFF22044A
:100A320060DED3EB9FEA9EE99DE8C2E78CF0C2F745
:100A420095F0400CE8CCF8E9CDF9EACEFAEBCFFB11
:100A5200120D2585D0F05804700320D5B3E8047038
:100A6200075002B2D5020D6492D5EC0460F7E4CCD3
:100A7200C0E0C398F8603B94186008400DD0E0FBDA
:100A8200020D3CE4FBFAC9FC8028E830E406E4C924
:100A9200FBE4CAFCE830E305E4C9CACBFCE854072E
:100AA2006010F8C3E913F9EA13FAEB13FBEC13FC39
:100AB200D8F130F52FC3E49CFCEF9BFFEE9AFEEDDC
:100AC20099FDD0E0FBEF4E4D4C701222DB03020D7C
:100AD20061EC2CFCEF33FFEE33FEED33FDED30E73E
:100AE200EB020D3CEF2BFFEE3AFEED39FDD0E0FBC1
:100AF20050130BBB0003020D64ED13FDEE13FEEF6A
:080B020013FFEC13FC020D3C93
:100B0A00EC4D6011E8497017ED33EC3304600DE4E5
:100B1A00FCFFFEFD22E933E8330470F8020D5A1295
:100B2A000D2558046009E4CC248150062850090296
:100B3A000D64284003020D61C0E0EB4A7044B9809D
:100B4A0006D0E0FB020D50EF4E701CBD8008EBFF93
:100B5A00EAFEE9FD80EBE98DF0A4FEE5F0020BF375
:100B6A00E9CDF9EAFEEBFFEF89F0A4FCE5F0CE89C6
:100B7A00F0A42EFFE435F0CD89F0A42DFEE435F083
:100B8A008067EF4E7005BD80D780C3EF8BF0A4ACB1
:100B9A00F0EE8BF0A42CFCE435F0F8EF8AF0A42CEC
:100BAA00E5F038FCE433CB8DF0A42CFCE5F03BF8FF
:100BBA00EE8AF0A42CFCE5F038F8E433CF89F0A4EF
:100BCA002CFCE5F038CF3400CE89F0A42FFFE5F0F5
:100BDA003EFEE433C98DF0A42EFEE5F039CD8AF04D
:100BEA00A42FFFE5F03EFEE43DFD33D0E0FB5007C5
:100BFA000BBB000F020D64EC2CFCEF33FFEE33FE4F
:060C0A00ED33FD020D3C7C
:100C1000020D64EC5D046005E859047003020D5A8E
:100C2000120D25580460F6EC4860F2EC7004FDFEED
:100C3000FF22C860DB2481C85009C39860025006B7
:100C4000020D619850CAF582E9294B4A7005AB82C2
:100C5000020D5075F0007C1A7880C3EF9BEE9AED80
:100C600099400DC3EF9BFFEE9AFEED99FDE842F02F
:100C7000DC23ACF0D0E0FFD0E0FED0E0FDAB822082
:100C8000E7101BEB60BAEC2CFCEF33FFEE33FEED0C
:100C900033FD020D3CE803F830E705C0F075F000C5
:100CA000EF2FFFEE33FEED33FD40B830E7C280AAF0
:100CB00075F020800E75F010800575F0087D007EBF
:100CC000007F003392D530D503120DFAEC3340107B
:100CD000EF33FFEE33FEED33FDEC33FCD5F0ED22C8
:0E0CE000E5F0247EA2D513CC92E7CDCEFF2204
:100CEE00EDD2E7CD33EC3392D524814006E4FFFEFE
:100CFE00FDFC22FCE4CFCECDCC24E0501174FF805D
:100D0E00EDC3CC13CCCD13CDCE13CECF13CF0470F9
:070D1E00F030D5DE020DFAF2
:100D2500E9D2E7C933E833F892D5EDD2E7CD33EC14
:070D350033FC5002B2D5228D
:100D3C00EC30E7100FBF000C0EBE00080DBD000418
:100D4C000BEB6014A2D5EB13FCED92E7FD2274FFC4
:100D5C00FCFDFEFF22E480F8A2D574FF13FC7D801D
:030D6C00E480EF31
:03000000020ECD20
:0C0ECD00787FE4F6D8FD75810B020F144D
:100D6F00BC000BBE0029EF8DF084FFADF022E4CC68
:100D7F00F875F008EF2FFFEE33FEEC33FCEE9DEC31
:100D8F00984005FCEE9DFE0FD5F0E9E4CEFD22ED77
:100D9F00F8F5F0EE8420D21CFEADF075F008EF2FC1
:100DAF00FFED33FD4007985006D5F0F222C398FDB2
:050DBF000FD5F0EA224F
:100DC400C2D5EC30E709B2D5E4C39DFDE49CFCEE4A
:100DD40030E715B2D5E4C39FFFE49EFE120D6FC346
:100DE400E49DFDE49CFC8003120D6F30D507C3E441
:060DF4009FFFE49EFE22B9
:0E0DFA00C3E49FFFE49EFEE49DFDE49CFC220A
:100E0800EB9FF5F0EA9E42F0E99D42F0E89C45F040
:010E180022B7
:0C0E1900ECF0A3EDF0A3EEF0A3EFF0224C
:100ED90002001EE493A3F8E493A34003F68001F211
:100EE90008DFF48029E493A3F85407240CC8C3331A
:100EF900C4540F4420C8834004F456800146F6DFE9
:100F0900E4800B0102040810204080900E25E47E45
:100F1900019360BCA3FF543F30E509541FFEE493DD
:100F2900A360010ECF54C025E060A840B8E493A3A4
:100F3900FAE493A3F8E493A3C8C582C8CAC583CACF
:100F4900F0A3C8C582C8CAC583CADFE9DEE780BE87
:010ECC000025
:00000001FF
