:101378000411000000004100310144000800000091
:10138800004400020000000041002D0041002E0032
:101398004100060041001D0041001C0044004300BC
:1013A800000000410032004100230041003B0041A1
:1013B800003C00410041004100420044001100008F
:1013C800000044001741F0000041000700440035C8
:1013D8000000000042002B00004100302841000EB0
:1013E8000041000D00420000000042001501544178
:1013F800000F0044003D3F800000410034004100E0
:10140800390041002F004100100044002500000071
:101418000041001B0041001E0041001F0041002048
:101428000041002200410024004100290041002A17
:101438000041000C0041003A004100330041002106
:0114480000A3
:10001E001200031218A1D2AFE4FF121829E4FF1246
:10002E00177F900031E0B4012890001DE0702290FF
:10003E000006E0701C12163F90002DEFF0900006A7
:10004E007401F0AF14AE13AD12AC11900002121386
:10005E003B900031E06401704590001DE0703F90D0
:10006E000006E0B40138900002E0F8A3E0F9A3E046
:10007E00FAA3E0FBC3E5149BFFE5139AFEE5129984
:10008E00FDE51198FCE47B1EFAF9F8C312132A5011
:10009E000D12163F90002EEFF0E4900006F0900047
:1000AE0031E0FFB4012090001DE0701A90002EE0A8
:1000BE00FE90002DE0FDB5060D600B90001D740145
:1000CE00F0900032EDF0EF640160030201689000E1
:1000DE001DE064016003020168900032E064057067
:1000EE006790001CE0FB701204F0AF14AE13AD125B
:1000FE00AC1190004312133B8060EBB401399000B9
:10010E0043E0F8A3E0F9A3E0FAA3E0FBC3E5149BF8
:10011E00FFE5139AFEE51299FDE51198FCE47BD0FC
:10012E007A07F9F8C312132A500DE490001CF0A3BD
:10013E00F09000237405F012163FEF6405601BE487
:10014E0090001CF0A3F0801212163FEF700C90007E
:10015E001DF0900032E0900023F0900031E07036F8
:10016E00900008E0F8A3E0F9A3E0FAA3E0FBC3E5F2
:10017E00149BFFE5139AFEE51299FDE51198FCE438
:10018E007B707A17F9F8C312132A500AE490000F05
:10019E00F090003104F0900031E0FF640170349073
:1001AE000023E06401702C90003BE0FE7002A3F08F
:1001BE00EEB40105E4900041F0EEB40205E49000C7
:1001CE0042F090003BE004F0E0B40302E4F0E4906F
:1001DE000023F0EFB40138900023E0B40131900019
:1001EE001712134741F000009000307428F0E4908D
:1001FE00000EF090000DF090001504F0A37454F072
:10020E0090003D1213473F800000E4900023F090D1
:10021E00003BE0FB7071900031E0B4011B900023B5
:10022E00E0B4021490003CE0700404F08005E49009
:10023E00003CF0E4900023F0900031E0B4012F90E8
:10024E000023E0B40328E4900031F0AF14AE13ADF8
:10025E0012AC1190000812133BE4900006F09000CF
:10026E001DF090001CF0900032F0900023F09000F2
:10027E0031E0B40112900023E0B4040B900034740A
:10028E0001F0E4900023F0EB640160030203B790E9
:10029E000031E0FFB4011B900023E0B40214900083
:1002AE0041E0700404F08005E4900041F0E4900019
:1002BE0023F0900041E0FE703EEFB4011A9000234F
:1002CE00E0B40313900030E0240AF0E0B464037449
:1002DE005AF0E4900023F0900031E0B40119900040
:1002EE0023E0B40412900030E024F6F0E0700374C2
:1002FE000AF0E4900023F0EE640160030203B7906D
:10030E000031E0B4014E900023E0B4034790001793
:10031E00E0FCA3E0FDA3E0FEA3E0FFE4FBFA79809E
:10032E00783F120E8E90001712133BE4FFFE7DA253
:10033E007C42900017E0F8A3E0F9A3E0FAA3E0FBFB
:10034E00121125700A90001712134742A00000E404
:10035E00900023F0900031E0B4014E900023E0B401
:10036E000447900017E0FCA3E0FDA3E0FEA3E0FF2E
:10037E00E4FBFA798078BF120E8E90001712133BB1
:10038E00E4FFFE7D807CBF900017E0F8A3E0F9A3A8
:10039E00E0FAA3E0FB121125700A90001712134722
:1003AE0000000000E4900023F090003BE064026047
:1003BE000302057B900031E0FFB40118900023E0AA
:1003CE00B40211900042E004F0E0B40302E4F0E461
:1003DE00900023F0900042E0FE7071EF64017032E5
:1003EE00900023E0B4032B90000EE02405F0E0B45F
:1003FE005F03745AF090000EE0C36480948050083E
:10040E0090000D7401F08005E490000DF0E4900072
:10041E0023F0900031E064017032900023E0B404C8
:10042E002B90000EE024FBF0E0B4A10374A6F09034
:10043E00000EE0C364809480500890000D7401F0AB
:10044E008005E490000DF0E4900023F0EE6401705E
:10045E0064900031E0FFB4012F900023E0B4032834
:10046E00900016E0240AF0900015E03400F0E0FC55
:10047E00A3E0FDBC270DBD100A9000157427F0A354
:10048E007406F0E4900023F0EFB40129900023E00D
:10049E00B40422900016E024F6F0900015E034FF2C
:1004AE00F0E0FEA3E04E7008900015F0A3740AF081
:1004BE00E4900023F0900042E06402600302057BAA
:1004CE00900031E0B40150900023E0B40349900055
:1004DE003DE0FCA3E0FDA3E0FEA3E0FF7BCD7ACCE4
:1004EE0079CC783D120E8E90003D12133B7F667EC6
:1004FE00667D067C4090003DE0F8A3E0F9A3E0FAAB
:10050E00A3E0FB121125700A90003D121347400024
:10051E000000E4900023F0900031E0B4014F900011
:10052E0023E0B4044890003DE0FCA3E0FDA3E0FE10
:10053E00A3E0FF7BCD7ACC79CC78BD120E8E9000E5
:10054E003D12133BE4FFFE7D807CBF90003DE0F842
:10055E00A3E0F9A3E0FAA3E0FB121125700A9000C4
:10056E003D12134700000000E4900023F09000318C
:10057E00E0700F90000FE070091217D890000F7402
:10058E0001F0900031E0705B90000FE06401705359
:10059E00308D047F0180027F002091047E01800255
:1005AE007E00EE4F603D900015E0FEA3E0FF1217B7
:1005BE000C90002BEEF0A3EFF090000EE0FD3395C3
:1005CE00E0FCED2FFFEC3EFE900000F0A3EFF0C339
:1005DE00EE648094805007E4900000F0A3F0E49065
:1005EE00000FF0900034E0640160030206F2900008
:1005FE0000E0FEA3E0C3940AEE648094805025E4EC
:10060E00FFFE7D7F7C4390003DE0F8A3E0F9A3E080
:10061E00FAA3E0FB120F7FE4FBFA79A078401210E8
:10062E00880206D5900000E0FEA3E0C3945AEE6463
:10063E0080948040030206DF90003DE0F8A3E0F9CD
:10064E00A3E0FAA3E0FBE4FFFE7DA07C40120E8A3D
:10065E00E4FBFA797F7843120F7FE4FBFA79A078F6
:10066E0040121088C004C005C006C007900000E00C
:10067E00FEA3E024F6FDEE34FFFC1211A3D003D04E
:10068E0002D001D000120F7FE4FBFA79A07842125B
:10069E001088C004C005C006C007E4FFFE7D7F7C45
:1006AE004390003DE0F8A3E0F9A3E0FAA3E0FB12CB
:1006BE000F7FE4FBFA79A07840121088D003D002A5
:1006CE00D001D000120E8E1211DC900039EFF080A6
:1006DE000690003974FFF0900039E0FF12184AE4DA
:1006EE00900034F0900007E070171218DA900007AF
:1006FE007401F0AF14AE13AD12AC1190003512139D
:10070E003B900007E0B4013A900035E0F8A3E0F921
:10071E00A3E0FAA3E0FBC3E5149BFFE5139AFEE505
:10072E001299FDE51198FCE47BEE7A02F9F8C312FA
:10073E00132A500E12156B90001112133BE4900009
:10074E0007F0900030E0F924FBFFE434FFFE900048
:10075E0000E0FCA3E0FDC39FEC9E4039E92405FFB9
:10076E00E433FED3ED9FEC9E502B900017E0FCA3DC
:10077E00E0FDA3E0FEA3E0FF900011E0F8A3E0F996
:10078E00A3E0FAA3E0FB1211256002500890002F9F
:10079E007401F08005E490002FF090002FE0FF121E
:1007AE00177F900025E0F8A3E0F9A3E0FAA3E0FBA1
:1007BE00C3E5149BFFE5139AFEE51299FDE511982A
:1007CE00FCE47B64FAF9F8C312132A501D90001052
:1007DE00E0700404F08005E4900010F0AF14AE1346
:1007EE00AD12AC1190002512133B90003BE0FB7054
:1007FE0040900000A3E0FDFF540190001BF0EF5469
:10080E000290001EF0AE05EE5404A3F0EE5408A3C1
:10081E00F0900000A3E05410900022F0EF542090CE
:10082E000024F0EF5440900029F0EF5480A3F080A4
:10083E0041EBB4011EE490001BF090001EF0A3F0FB
:10084E00A3F0900022F0900024F0900029F0A30471
:10085E00F0801F900010E090001BF0E490001EF05E
:10086E00A3F0A3F0900022F0900024F0900029F065
:10087E00A3F090001EE05402FF90001BE054014FC5
:10088E00FF90001FE054044FFFA3E054084FFF9069
:10089E000022E054104FFF900024E054204FFF90B0
:1008AE000029E054404FFFA3E054804FFF12182957
:1008BE0090003BE0147003020ADC147003020B97E5
:1008CE0024026003020E7F900011E0FCA3E0FDA362
:1008DE00E0FEA3E0FF1211DCEF75F00A84FDE4FBED
:1008EE007F0112144A900011E0FCA3E0FDA3E0FE8C
:1008FE00A3E0FF1211DCEF75F00A84ADF07B017FEF
:10090E000212144AE4FFFE7D207C41900011E0F8B3
:10091E00A3E0F9A3E0FAA3E0FB120F7F1211DCEFC4
:10092E0075F00A84ADF0E4FB7F0312144AE4FB7DFC
:10093E000A7F0412144A90003CE06003020A4390BE
:10094E00000CE0701F900000E0FEA3E0FF7C037D32
:10095E00E81212E67C007D0A1212E6ED4C7005FBE1
:10096E007D0D801E90000C7401F0900000E0FEA33F
:10097E00E0FF7C037DE81212E67C007D0A1212E68F
:10098E00E4FB7F0512144A90000CE0701F900000EB
:10099E00E0FEA3E0FF7C007D641212E67C007D0A7F
:1009AE001212E6ED4C7005FB7D0D801E90000C744E
:1009BE0001F0900000E0FEA3E0FF7C007D641212C7
:1009CE00E67C007D0A1212E6E4FB7F0612144A90C2
:1009DE00000CE0701F900000E0FEA3E0FF7C007DA5
:1009EE000A1212E67C007D0A1212E6ED4C7005FB2F
:1009FE007D0D801E90000C7401F0900000E0FEA3AF
:100A0E00E0FF7C007D0A1212E67C007D0A1212E6DF
:100A1E00E4FB7F0712144A900000E0FEA3E0FF7C87
:100A2E00007D0A1212E6E4FB7F0812144AE49000DD
:100A3E000CF002003090003AE07018900000E0FEDA
:100A4E00A3E0FF7C037DE81212E6EF4E7005FB7DFE
:100A5E000D801E90003A7401F0900000E0FEA3E0BD
:100A6E00FF7C037DE81212E67C007D0A1212E6E49A
:100A7E00FB7F0512144A900000E0FEA3E0FF7C000D
:100A8E007D641212E67C007D0A1212E67B017F065F
:100A9E0012144A900000E0FEA3E0FF7C007D0A12D3
:100AAE0012E67C007D0A1212E6E4FB7F0712144A5E
:100ABE00900000E0FEA3E0FF7C007D0A1212E6E447
:100ACE00FB7F0812144AE490003AF00200309000C6
:100ADE0041E0704CFB7D0B7F0112144AE4FB7D015B
:100AEE007F0212144AE4FB7D0D7F0312144AE4FBCD
:100AFE007D0D7F0412144AE4FB7D0D7F0512144A0E
:100B0E00E4FB7D0D7F0612144A900030E075F00A6A
:100B1E0084FDE4FB7F0712144A900030E0020E6F52
:100B2E00E4FB7D0B7F0112144AE4FB7D027F02126F
:100B3E00144AE4FB7D0D7F0312144AE4FB7D0D7F06
:100B4E000412144AE4FB7D0D7F0512144AE4FB7D6A
:100B5E000D7F0612144A900017E0FCA3E0FDA3E0FF
:100B6E00FEA3E0FF1211DCEF75F00A84FDE4FB7FBB
:100B7E000712144A900017E0FCA3E0FDA3E0FEA3C9
:100B8E00E0FF1211DCEF020E6F900042E0600302F4
:100B9E000CDAFB7D0C7F0112144AE4FB7D017F020F
:100BAE0012144AE4FB7D0D7F0312144AE4FB7D0D03
:100BBE007F0412144AE4FB7D0D7F0512144A900047
:100BCE000DE06003020C77900021E0701C90000E87
:100BDE00E0FF75F06412125DFF75F00A12125DAF40
:100BEE00F0EF7005FB7D0D801C9000217401F090DC
:100BFE00000EE0FF75F06412125DFF75F00A12121E
:100C0E005DADF0E4FB7F0612144A900021E0701CEB
:100C1E0090000EE0FF75F00A12125DFF75F00A12D9
:100C2E00125DAFF0EF7005FB7D0D801C90002174FE
:100C3E0001F090000EE0FF75F00A12125DFF75F0E4
:100C4E000A12125DADF0E4FB7F0712144A90000EFB
:100C5E00E0FF75F00A12125DADF0E4FB7F0812148E
:100C6E004AE4900021F002003090000EE0F404FF00
:100C7E0075F00A12125DADF0E4FB7F0812144A9073
:100C8E00000EE0F404FF75F00A12125DFF75F00A13
:100C9E0012125DAFF0EF700EFB7D0D7F0612144A3F
:100CAE00E4FB7D0A8021E4FB7D0A7F0612144A9044
:100CBE00000EE0F404FF75F00A12125DFF75F00AE3
:100CCE0012125DADF0E4FB7F07020E79900042E058
:100CDE0064016003020DFEFB7D0C7F0112144AE4D9
:100CEE00FB7D027F0212144AE4FB7D0D7F0312147A
:100CFE004AE4FB7D0D7F0412144A900033E0701F0E
:100D0E00900015E0FEA3E0FF7C037DE81212917CBB
:100D1E00007D0A121291ED4C7005FB7D0D801E9028
:100D2E0000337401F0900015E0FEA3E0FF7C037D1C
:100D3E00E81212917C007D0A121291E4FB7F0512DB
:100D4E00144A900033E0701F900015E0FEA3E0FF00
:100D5E007C007D641212917C007D0A121291ED4C82
:100D6E007005FB7D0D801E9000337401F090001510
:100D7E00E0FEA3E0FF7C007D641212917C007D0AF0
:100D8E00121291E4FB7F0612144A900033E0701F9A
:100D9E00900015E0FEA3E0FF7C007D0A1212917C0C
:100DAE00007D0A121291ED4C7005FB7D0D801E9098
:100DBE0000337401F0900015E0FEA3E0FF7C007D8F
:100DCE000A1212917C007D0A121291E4FB7F071227
:100DDE00144A900015E0FEA3E0FF7C007D0A12127B
:100DEE0091E4FB7F0812144AE4900033F0020030C5
:100DFE00E4FB7D0C7F0112144AE4FB7D037F02129B
:100E0E00144AE4FB7D0D7F0312144AE4FB7D0D7F33
:100E1E000412144AE4FB7D0D7F0512144AE4FB7D97
:100E2E000D7F0612144A90003DE0FCA3E0FDA3E006
:100E3E00FEA3E0FF1211DCEF75F00A84ADF07B012A
:100E4E007F0712144AE4FFFE7D207C4190003DE0B6
:100E5E00F8A3E0F9A3E0FAA3E0FB120F7F1211DC76
:100E6E00EF75F00A84ADF0E4FB7F0812144A02001D
:090E7E0030E490003BF00200306A
:0D18C000D2A1121888C2A112188AC2A0225B
:0D18CD00C2A0C2A112188A121888D2A1224E
:0216CC008F0984
:1016CE00E4F50AC2A0C2A17F02FE12188EE4F50A4A
:1016DE00C37407950AFFE509A807088002C313D84B
:1016EE00FC1392A17F027E0012188E121888C2A0DF
:0D16FE00050AE50AC3940840D7C2A0D2A196
:01170B0022BB
:10180200E4FFC2A0C2A10FFE12188ED2A07F017EF9
:101812000012188EA2A1E43370047E0180027E00C1
:06182200AF06C2A0D2A136
:01182800229D
:10174800E4F50FD2947F0AFE12188EC2947F087EA9
:101758000212188ED2947F397E0012188EA294E459
:1017680033F50F70047F0180027F008F0F7FC87EE2
:061778000012188EAF0FF5
:01177E002248
:0215F2008F0F59
:1015F400E4F510D2947F0AFE12188EE4F510AF10B1
:10160400E50FA807088002C313D8FC30E00FC2948A
:101614007F067E0012188ED2947F37800DC2947F8D
:101624003C7E0012188ED2947F057E0012188E051F
:0A16340010E510C3940840C6D294DC
:01163E002289
:10168900E4F50FF510D2947F0AFE12188EE4F50FD7
:10169900E510C313F510C2947F027E0012188ED292
:1016A900947F087E0012188E3094034310807F3790
:1016B9007E0012188E050FE50FC3940840D2D2940C
:0216C900AF1060
:0116CB0022FC
:06188800D2A07F037E00E8
:10188E00E4FDFCC3ED9FEC9E5008000DBD00010C65
:02189E0080F1D7
:0118A0002225
:1017AD00EF2514F50DEE3513F50CE43512F50BE4BC
:1017BD003511F50AAF14AE13AD12AC11AB0DAA0C69
:0A17CD00A90BA80AC312132A50EA60
:0117D70022EF
:10184A008F081218C07F901216CC1218027F41120C
:10185A0016CC121802AF081216CC1218020218CDB2
:0D18DA001217487FCC1215F27F440215F260
:10156B00E4F50BF50AF509F508F50CFFF50DF50E8D
:10157B001217487FCC1215F27FBE1215F212168984
:10158B008F0C121689EFF50DE50CF50EE50D30E716
:10159B0011E50EF4FFE50DF4FEEF2401F50EE43E2C
:1015AB00F50D7C00E50E540FFDE41211A3E4FBFADC
:1015BB007980783D120F7FC004C005C006C007E5D7
:1015CB000DC4F854F0C8E50EC4540F487C00FDE47C
:1015DB001211A3D003D002D001D000120E8E8F0BAC
:0615EB008E0A8D098C0838
:0115F10022D7
:0E18B200C0F9A4B0999282F88090BF8C8EFF8E
:10000300438E4053890F758BCD758DD4C28FD28E9D
:03001300D2AB224B
:1018A100438E805389F0438901E4F58AF58CC28D1A
:0118B1002214
:03001B0002186A5E
:10186A00C0E0C0D0E5142401F514E43513F513E4FF
:0E187A003512F512E43511F511D0D0D0E03260
:10144A008D088B09EF70047E0180027E00EFD39431
:10145A000840047D0180027D00ED4EFEE508D3942C
:10146A000E40047D0180027D00ED4EFEE509D39415
:10147A000140047D0180027D00ED4E705753A01F8C
:10148A00EF14FF7401A807088002C333D8FCF58063
:10149A007F017E0012188EE5A0541F44C0F5A07F7C
:1014AA00037E0012188E53A01FE5089018B293F518
:1014BA0080E509B40102C2877F017E0012188EE519
:1014CA00A0541F44E0F5A07F017E001217AD75807D
:0514DA00FF53A01F22DA
:1018290053A01FEFF4F5807F017E0012188EE5A00A
:10183900541F4480F5A07F037E0012188E53A01F09
:01184900227C
:10177F00EFD39401502753A01FBF01057580108030
:10178F0003E4F5807F017E0012188EE5A0541F44FC
:0E179F00A0F5A07F037E0012188E53A01F221B
:10163F00C2C4D2C2E5B0540C1313543FD2C4C2C2B9
:10164F0025E025E044F0FFE5B0540C1313543F4F51
:10165F00F414601914601214601714600824FC70DD
:10166F00147E0180127E02800E7E03800A7E04802B
:09167F00067E058002E4FEAF06C0
:01168800223F
:1017D800E4F508F508D2907F0D7E0012188EC290AD
:1017E8007F0D7E0012188E0508E508C3940840E5B1
:0917F800E4F58AF58CC28DD28C57
:0118010022C4
:04170C008F828E83B7
:10171000C28CAF8CEFAD8AFAEDFBE4F58AF58CC292
:101720008DAE83AF82FC7D0A121291AC02AD031222
:10173000127FAC06AD07E41211A3E4FBFA797A78C4
:07174000441210881211DCB5
:01174700227F
:100E8700021248E86480F8E933E83360110460F03F
:100E9700ED33EC337009E8FCE9FDEAFEEBFF2204D1
:100EA70060DED3EB9FEA9EE99DE8C2E78CF0C2F7CC
:100EB70095F0400CE8CCF8E9CDF9EACEFAEBCFFB98
:100EC70012121385D0F05804700320D5B3E80470CC
:100ED700075002B2D502125292D5EC0460F7E4CC67
:100EE700C0E0C398F8603B94186008400DD0E0FB61
:100EF70002122AE4FBFAC9FC8028E830E406E4C9B8
:100F0700FBE4CAFCE830E305E4C9CACBFCE85407B4
:100F17006010F8C3E913F9EA13FAEB13FBEC13FCBF
:100F2700D8F130F52FC3E49CFCEF9BFFEE9AFEED62
:100F370099FDD0E0FBEF4E4D4C701222DB030212FD
:100F47004FEC2CFCEF33FFEE33FEED33FDED30E7D6
:100F5700EB02122AEF2BFFEE3AFEED39FDD0E0FB54
:100F670050130BBB0003021252ED13FDEE13FEEFFD
:080F770013FFEC13FC02122A27
:100F7F00EC4D6011E8497017ED33EC3304600DE46C
:100F8F00FCFFFEFD22E933E8330470F80212481229
:100F9F00121358046009E4CC24815006285009022A
:100FAF00125228400302124FC0E0EB4A7044B9803E
:100FBF0006D0E0FB02123EEF4E701CBD8008EBFF27
:100FCF00EAFEE9FD80EBE98DF0A4FEE5F002106882
:100FDF00E9CDF9EAFEEBFFEF89F0A4FCE5F0CE894D
:100FEF00F0A42EFFE435F0CD89F0A42DFEE435F00A
:100FFF008067EF4E7005BD80D780C3EF8BF0A4AC38
:10100F00F0EE8BF0A42CFCE435F0F8EF8AF0A42C72
:10101F00E5F038FCE433CB8DF0A42CFCE5F03BF885
:10102F00EE8AF0A42CFCE5F038F8E433CF89F0A475
:10103F002CFCE5F038CF3400CE89F0A42FFFE5F07B
:10104F003EFEE433C98DF0A42EFEE5F039CD8AF0D3
:10105F00A42FFFE5F03EFEE43DFD33D0E0FB50074B
:10106F000BBB000F021252EC2CFCEF33FFEE33FEE2
:06107F00ED33FD02122A10
:10108500021252EC5D046005E8590470030212482F
:10109500121213580460F6EC4860F2EC7004FDFE81
:1010A500FF22C860DB2481C85009C398600250063E
:1010B50002124F9850CAF582E9294B4A7005AB8256
:1010C50002123E75F0007C1A7880C3EF9BEE9AED14
:1010D50099400DC3EF9BFFEE9AFEED99FDE842F0B6
:1010E500DC23ACF0D0E0FFD0E0FED0E0FDAB822009
:1010F500E7101BEB60BAEC2CFCEF33FFEE33FEED93
:1011050033FD02122AE803F830E705C0F075F00058
:10111500EF2FFFEE33FEED33FD40B830E7C280AA76
:1011250074F8CC6480CCC86480C8F58204604FC371
:10113500EB9FF5F0EA9E42F0E99D42F0E89C45F010
:10114500603C501DE5825FFFE582D313CB5BCBF49A
:101155002B5582FB50280ABA002409B900200880C3
:101165001DE5825BFBE582D313CF5FCFF4C3132F5D
:101175005582FF50090EBE00050DBD00010CC3EBE5
:101185009FF5F0EA9E42F0E99D42F0E89C45F0604B
:0911950007CC4820E701B3EC226D
:10119E0075F020800E75F010800575F0087D007ECC
:1011AE00007F003392D530D50312131CEC33401060
:1011BE00EF33FFEE33FEED33FDEC33FCD5F0ED22D5
:0E11CE00E5F0247EA2D513CC92E7CDCEFF2211
:1011DC00EDD2E7CD33EC3392D524814006E4FFFE0B
:1011EC00FDFC22FCE4CFCECDCC24E0501174FF806A
:1011FC00EDC3CC13CCCD13CDCE13CECF13CF047007
:07120C00F030D5DE02131CD7
:10121300E9D2E7C933E833F892D5EDD2E7CD33EC21
:0712230033FC5002B2D5229A
:10122A00EC30E7100FBF000C0EBE00080DBD000425
:10123A000BEB6014A2D5EB13FCED92E7FD2274FFD1
:10124A00FCFDFEFF22E480F8A2D574FF13FC7D802A
:03125A00E480EF3E
:030000000214DF08
:0C14DF00787FE4F6D8FD75811402152614
:10125D00C2D530F707B2D563F0FF05F030E70CB219
:10126D00D5F4048463F0FF05F080018430D502F4D9
:02127D00042249
:10127F00EF8DF0A4A8F0CF8CF0A428CE8DF0A42E83
:02128F00FE223D
:10129100BC000BBE0029EF8DF084FFADF022E4CC41
:1012A100F875F008EF2FFFEE33FEEC33FCEE9DEC0A
:1012B100984005FCEE9DFE0FD5F0E9E4CEFD22ED50
:1012C100F8F5F0EE8420D21CFEADF075F008EF2F9A
:1012D100FFED33FD4007985006D5F0F222C398FD8B
:0512E1000FD5F0EA2228
:1012E600C2D5EC30E709B2D5E4C39DFDE49CFCEE23
:1012F60030E715B2D5E4C39FFFE49EFE121291C3F8
:10130600E49DFDE49CFC800312129130D507C3E4F2
:061316009FFFE49EFE2291
:0E131C00C3E49FFFE49EFEE49DFDE49CFC22E2
:10132A00EB9FF5F0EA9E42F0E99D42F0E89C45F019
:01133A002290
:0C133B00ECF0A3EDF0A3EEF0A3EFF02225
:10134700A8828583F0D083D08212135E12135E12B7
:10135700135E12135EE473E493A3C583C5F0C583DC
:10136700C8C582C8F0A3C583C5F0C583C8C582C8F0
:011377002253
:1014EB0002001EE493A3F8E493A34003F68001F2F9
:1014FB0008DFF48029E493A3F85407240CC8C33302
:10150B00C4540F4420C8834004F456800146F6DFD0
:10151B00E4800B0102040810204080901378E47ED5
:10152B00019360BCA3FF543F30E509541FFEE493C5
:10153B00A360010ECF54C025E060A840B8E493A38C
:10154B00FAE493A3F8E493A3C8C582C8CAC583CAB7
:10155B00F0A3C8C582C8CAC583CADFE9DEE780BE6F
:0114490000A2
:00000001FF
