:100BA700042300000000042700000000041E0000CA
:100BB7000000013119011C19011700012E00012F36
:100BC70000013000012200041800000000011D0090
:100BD700012B00012C00012D00011600041200005A
:020BE70000000C
:10000E00120D7CD2AFE4FF120D32E51654014402FC
:10001E00FF120D32E5177010120D8F78231208BBE8
:10002E0078271208D475170178271208C7C00078F0
:10003E00231208BBD000C3EF9BFFEE9AFEED99FD95
:10004E00EC98FCE47BEF7A02F9F8D31208AA501070
:10005E00E517B4010B1209C1781E1208D4E4F51786
:10006E00E4FB7D0B7F01120A4CE4FB7D0D7F021237
:10007E000A4CE4FB7D0D7F03120A4CE4FB7D0D7FE1
:10008E0004120A4C781E1208BB1207E57C007D0A8A
:10009E00120866AD07E4FB7F05120A4C781E1208A3
:1000AE00BB1207E57C007D0A1208667B017F0612F3
:1000BE000A4CE4FFFE7D207C41781E1208C7120612
:1000CE00281207E57C007D0A120866E4FB7F071202
:1000DE000A4CE4FFFE7DC87C42781E1208C7120649
:1000EE00281207E57C007D0A120866E4FB7F0812E1
:1000FE000A4C781DE67015120B1D782EA607782374
:10010E001208BB78181208D4781D760178181208D8
:10011E00C7C00078231208BBD000C3EF9BFFEE9A36
:10012E00FEED99FDEC98FCE47B0AFAF9F8C312088F
:10013E00AA501B120B1D782FEFF618E6FEB5070A14
:10014E006008782276017830A606E4781DF67822CB
:10015E00E6600C120B1DEF70067830E6782BF67801
:10016E002BE664016003020022F67822F6E51654AF
:10017E0001FF120D32E51654014404FF120D32E454
:10018E00FB7D0C7F01120A4CE4FB7D0D7F02120AEF
:10019E004CE4FB7D0D7F03120A4CE4FB7D0D7F04C6
:1001AE00120A4CE4FB7D0D7F05120A4CE4FB7D0D1B
:1001BE007F06120A4C7831E675F00A84FDE4FB7F67
:1001CE0007120A4C7831E675F00A84ADF0E4FB7F35
:1001DE0008120A4C781DE67015120B1D782EA60714
:1001EE0078231208BB78181208D4781D7601781877
:1001FE001208C7C00078231208BBD000C3EF9BFFC4
:10020E00EE9AFEED99FDEC98FCE47B0AFAF9F8C340
:10021E001208AA501B120B1D782FEFF618E6FEB52A
:10022E00070A6008782276017830A606E4781DF673
:10023E007822E6600C120B1DEF70067830E6782CF3
:10024E00F6782CE6B40115E4F67822F67831E678E5
:10025E001CF6E5165401FF120D32803C782CE6FF99
:10026E00B40313E4F67822F6783116E6F46003024E
:10027E00018DF602018DEFB40417E4782CF6782286
:10028E00F6783106E66464600302018D766302013E
:10029E008DE4782CF602018DE51654014408FF1208
:1002AE000D32E4FB7D0A7F01120A4CE4FB7D0D7FCB
:1002BE0002120A4CE4FB7D0D7F03120A4CE4FB7D17
:1002CE000D7F04120A4CE4FB7D0D7F05120A4CAF24
:1002DE0015AE14AD13AC121207E57C007D0A1208A0
:1002EE00667B017F06120A4CE4FFFE7D207C41AB4B
:1002FE0015AA14A913A8121206281207E57C007D70
:10030E000A120866E4FB7F07120A4CE4FFFE7DC862
:10031E007C42AB15AA14A913A8121206281207E5DF
:10032E007C007D0A120866E4FB7F08120A4CE51772
:10033E007010120D8F78231208BB78271208D4750F
:10034E00170178271208C7C00078231208BBD00007
:10035E00C3EF9BFFEE9AFEED99FDEC98FCE47BEF6C
:10036E007A02F9F8D31208AA5010E517B4010B124D
:10037E0009C1781E1208D4E4F517E5167035781CFD
:10038E00E6FCE41207B1781E1208C712072E60129F
:10039E0040107FFF120CF2E4F515F5147513A00250
:1003AE000482E4FF120CF2E4F515F514F513F512C0
:1003BE00020485E4FFFE7DA07C41781E1208C71260
:1003CE00072E50067F01C00780047F00C007E4FFA0
:1003DE00FE7DA07C41781E1208C712072E50047EA7
:1003EE000180027E00D0E04E60127F33120CF2E4E8
:1003FE00F515F51475138075123F807BE4FFFE7DB5
:10040E00A07C41781E1208C712072E605A4058E48D
:10041E00FFFE7D207C42781E1208C712072E504721
:10042E00E4FFFE7DA07CC1781E1208C71205377B43
:10043E00CD7ACC79F478401206281207E5EF2433F2
:10044E00FF120CF27F9A7E997D197C3E781E12085F
:10045E00C7120628E4FBFAF978C01205378F158EFD
:10046E00148D138C1280107FCC120CF2E4F515F55E
:10047E0014751380751240781DE67015120B1D78D9
:10048E002EA60778231208BB78181208D4781D768A
:10049E000178181208C7C00078231208BBD000C319
:1004AE00EF9BFFEE9AFEED99FDEC98FCE47B0AFAC9
:1004BE00F9F8C31208AA501B120B1D782FEFF6186D
:1004CE00E6FEB5070A6008782276017830A606E4C3
:1004DE00781DF67822E6600C120B1DEF7006783050
:1004EE00E6782DF6782DE6B4021DE47822F6782D06
:1004FE00F6E51670047F0180027F008F16E5165414
:10050E00014408FF120D32782DE6640160030202E9
:10051E00B07822F6782DF6E5165401FF120D320250
:02052E000018B3
:100D4E00D2A0D2A17F037E00120D18C2A17F027E17
:070D5E0000120D18C2A022D3
:100D6500C2A0C2A17F037E00120D18D2A07F027E11
:070D750000120D18D2A122AB
:020B63008F09F8
:100B6500E4F50AC2A0C2A17F01FE120D18E4F50A40
:100B7500C37407950AFFE509A807088002C313D8BF
:100B8500FC1392A17F017E00120D18D2A07F057E75
:100B950000120D18C2A0050AE50AC3940840D1D277
:010BA500A1AE
:010BA600222C
:100CCE00E4F509C2A0D2A17F01FE120D18D2A07FB9
:100CDE00017E00120D1820A1047F0180027F008F7B
:030CEE0009C2A098
:010CF10022E0
:100C7000E4F50FD2947F1EFE120D18C2947F087EF9
:100C800002120D18D2947F377E00120D18209404A2
:100C90007F0180027F008F0F7FC87E00120D18AF8A
:010CA0000F44
:010CA1002230
:040ACA008E0F8F10EC
:100ACE00E4F511D2947F0AFE120D18E4F511E5102B
:100ADE00AE0FA811088006CEA2E713CE13D8F830B9
:100AEE00E00FC2947F067E00120D18D2947F3780DD
:100AFE000DC2947F3C7E00120D18D2947F057E00AD
:0E0B0E00120D180511E511C3940840C2D294CF
:010B1C0022B6
:100BEA00E4F50FF510D2947F0AFE120D18E4F51001
:100BFA00E50FC313F50FC2947F027E00120D18D2BF
:100C0A00947F087E00120D18309403430F807F37BB
:100C1A007E00120D180510E510C3940840D2D29434
:020C2A00AF0F0A
:010C2C0022A5
:100D8F00120C707FCC7E00120ACA7F447E00020ACA
:010D9F00CA89
:1009C100E4F50BF50AF509F508FFF50CF50DF50E43
:1009D100120C707FCC7E00120ACA7FBE7E00120A02
:1009E100CA120BEA8F0C120BEAEFF50DE50CF50EAE
:1009F100E50D30E711E50EF4FFE50DF4FEEF2401FE
:100A0100F50EE43EF50D7C00E50E540FFDE41207F2
:100A1100ACE4FBFA7980783D120628C004C005C019
:100A210006C007E50DC4F854F0C868FCE50EC454CF
:100A31000F48FDE41207ACD003D002D001D0001260
:0A0A410005378F0B8E0A8D098C0813
:010A4B002288
:100CF2008F08120D4E7F90120B63120CCE7F4112A1
:100D02000B63120CCEAF08120B63120CCE020D65F0
:0E0DA000C0F9A4B0999282F8809088C68CFFAA
:100D7C00438E805389F0758ACD758CD4C28DD28CFC
:030D8C00D2A922C7
:03000B00020C2DB7
:100C2D00C0E0C0F0C083C082C0D075D000C000C08D
:100C3D0004C005C006C00778231208BBEF2401FFCE
:100C4D00E43EFEE43DFDE43CFC78231208D4D007DD
:100C5D00D006D005D004D000D0D0D082D083D0F033
:030C6D00D0E032A2
:100CA200E4FCFD78231208C7EF2BF50BEE3AF50AA8
:100CB200ED39F509EC38F508AF0BAE0AAD09AC0811
:0B0CC20078231208C7C31208AA40EDF7
:010CCD002204
:060D1200F5807F017E0068
:100D1800E4FDFCC3ED9FEC9E500F000000000000B6
:090D280000000DBD00010C80EA81
:010D3100229F
:100D320053A01FEFF4120D12E5A0541F4480F5A03A
:0C0D42007F05120D1853A01FE4F580225D
:100A4C00AA05EF70047E0180027E00EFD39408406B
:100A5C00047D0180027D00ED4EFEEAD3940E40042D
:100A6C007D0180027D00ED4EFEEBD3940140047DB0
:100A7C000180027D00ED4E704453A01FEF14FF74F3
:100A8C0001A807088002C333D8FC120D12E5A0544C
:100A9C001F44C0F5A07F03120D1853A01FEA900D40
:100AAC00A093F580EB6002C287120D14E5A0541FD1
:0E0ABC0044E0F5A0120CA27580FF53A01F228B
:100B1D00C2C4D2C2E5B0540C1313543FFFD2C4C2A9
:100B2D00C2E5B0540C1313543FFDEF25E025E04D05
:100B3D00F4540F14601714601024FE600824FC7028
:100B4D00107E01800E7E02800A7E0380067E048068
:050B5D0002E4FEAF06FA
:010B62002270
:10053000020851E86480F8E933E83360110460F0A0
:10054000ED33EC337009E8FCE9FDEAFEEBFF220431
:1005500060DED3EB9FEA9EE99DE8C2E78CF0C2F72C
:1005600095F0400CE8CCF8E9CDF9EACEFAEBCFFBF8
:1005700012081C85D0F05804700320D5B3E804702D
:10058000075002B2D502085B92D5EC0460F7E4CCC8
:10059000C0E0C398F8603B94186008400DD0E0FBC1
:1005A000020833E4FBFAC9FC8028E830E406E4C919
:1005B000FBE4CAFCE830E305E4C9CACBFCE8540715
:1005C0006010F8C3E913F9EA13FAEB13FBEC13FC20
:1005D000D8F130F52FC3E49CFCEF9BFFEE9AFEEDC3
:1005E00099FDD0E0FBEF4E4D4C701222DB03020868
:1005F00058EC2CFCEF33FFEE33FEED33FDED30E72E
:10060000EB020833EF2BFFEE3AFEED39FDD0E0FBB5
:1006100050130BBB000302085BED13FDEE13FEEF5E
:0806200013FFEC13FC02083388
:10062800EC4D6011E8497017ED33EC3304600DE4CC
:10063800FCFFFEFD22E933E8330470F8020851128A
:10064800081C58046009E4CC24815006285009028B
:10065800085B284003020858C0E0EB4A7044B980A0
:1006680006D0E0FB020847EF4E701CBD8008EBFF88
:10067800EAFEE9FD80EBE98DF0A4FEE5F002071142
:10068800E9CDF9EAFEEBFFEF89F0A4FCE5F0CE89AD
:10069800F0A42EFFE435F0CD89F0A42DFEE435F06A
:1006A8008067EF4E7005BD80D780C3EF8BF0A4AC98
:1006B800F0EE8BF0A42CFCE435F0F8EF8AF0A42CD3
:1006C800E5F038FCE433CB8DF0A42CFCE5F03BF8E6
:1006D800EE8AF0A42CFCE5F038F8E433CF89F0A4D6
:1006E8002CFCE5F038CF3400CE89F0A42FFFE5F0DC
:1006F8003EFEE433C98DF0A42EFEE5F039CD8AF034
:10070800A42FFFE5F03EFEE43DFD33D0E0FB5007AB
:100718000BBB000F02085BEC2CFCEF33FFEE33FE43
:06072800ED33FD02083371
:10072E0074F8CC6480CCC86480C8F58204604FC372
:10073E00EB9FF5F0EA9E42F0E99D42F0E89C45F011
:10074E00603C501DE5825FFFE582D313CB5BCBF49B
:10075E002B5582FB50280ABA002409B900200880C4
:10076E001DE5825BFBE582D313CF5FCFF4C3132F5E
:10077E005582FF50090EBE00050DBD00010CC3EBE6
:10078E009FF5F0EA9E42F0E99D42F0E89C45F0604C
:09079E0007CC4820E701B3EC226E
:1007A70075F020800E75F010800575F0087D007ECD
:1007B700007F003392D530D50312089CEC334010EC
:1007C700EF33FFEE33FEED33FDEC33FCD5F0ED22D6
:0E07D700E5F0247EA2D513CC92E7CDCEFF2212
:1007E500EDD2E7CD33EC3392D524814006E4FFFE0C
:1007F500FDFC22FCE4CFCECDCC24E0501174FF806B
:10080500EDC3CC13CCCD13CDCE13CECF13CF047007
:07081500F030D5DE02089C63
:10081C00E9D2E7C933E833F892D5EDD2E7CD33EC22
:07082C0033FC5002B2D5229B
:10083300EC30E7100FBF000C0EBE00080DBD000426
:100843000BEB6014A2D5EB13FCED92E7FD2274FFD2
:10085300FCFDFEFF22E480F8A2D574FF13FC7D802B
:03086300E480EF3F
:03000000020935BD
:0C093500787FE4F6D8FD75813102097C62
:10086600C2D5EC30E709B2D5E4C39DFDE49CFCEEAD
:1008760030E715B2D5E4C39FFFE49EFE1208E0C33D
:10088600E49DFDE49CFC80031208E030D507C3E438
:060896009FFFE49EFE221C
:0E089C00C3E49FFFE49EFEE49DFDE49CFC226D
:1008AA00EB9FF5F0EA9E42F0E99D42F0E89C45F0A4
:0108BA00221B
:0C08BB00E6FC08E6FD08E6FE08E6FF2269
:0D08C700E6FB08E6F908E6FA08E6CBF822A1
:0C08D400ECF608EDF608EEF608EFF62250
:1009410002000EE493A3F8E493A34003F68001F2BE
:1009510008DFF48029E493A3F85407240CC8C333B7
:10096100C4540F4420C8834004F456800146F6DF86
:10097100E4800B0102040810204080900BA7E47E64
:10098100019360BCA3FF543F30E509541FFEE4937B
:10099100A360010ECF54C025E060A840B8E493A342
:1009A100FAE493A3F8E493A3C8C582C8CAC583CA6D
:1009B100F0A3C8C582C8CAC583CADFE9DEE780BE25
:010BE900000B
:1008E000BC000BBE0029EF8DF084FFADF022E4CCFC
:1008F000F875F008EF2FFFEE33FEEC33FCEE9DECC5
:10090000984005FCEE9DFE0FD5F0E9E4CEFD22ED0A
:10091000F8F5F0EE8420D21CFEADF075F008EF2F54
:10092000FFED33FD4007985006D5F0F222C398FD45
:050930000FD5F0EA22E2
:00000001FF
